S00F00004279676765726E2E7372656347
S11300000C94F6000C9415010C9413010C94130138
S11300100C9413010C9413010C9413010C9413010C
S11300200C9413010C9413010C9413010C941301FC
S11300300C9413010C9413010C9413010C941301EC
S11300400C9413010C9440050C9413010C94AA0510
S11300500C9413010C9413010C9413010C94F805E3
S11300600C9413010C9413010C9413010C941301BC
S113007000000000005C00000C000C007C287C28C0
S113008058DC68002410480028542840000C000064
S1130090007884008478000054385400107C1000E8
S11300A080400000101010000040000060100C00A0
S11300B038543800487C40004864580044542C00AC
S11300C01C107C005C5424003854240064140C007C
S11300D068542C0048543800004800008048000050
S11300E0102844002828280044281000045408003C
S11300F038445C00781478007C5428003844280084
S11301007C4438007C5444007C140400384474005B
S11301107C107C00447C440020403C007C106C003B
S11301207C4040007C187C0078103C003844380047
S11301307C1408003844B8007C1468004854240037
S1130140047C04007C407C003C603C007C307C00EF
S11301506C106C000C700C0064544C00007C440067
S11301600C106000447C00000804080080808000BB
S113017000040800304878007C48300030484800CB
S113018030487C00306850001078140090A8780043
S11301907C08700050744000808074007C106800FB
S11301A0447C4000781078007808700030483000B3
S11301B0F82810003048F80078100800505828003B
S11301C0083C4800384078003840380078207800EF
S11301D04830480098A07800486858001078840097
S11301E0007C0000847810000804080411241FBE59
S11301F0CFEFD4E0DEBFCDBF12E0A0E0B1E0E8ED88
S1130200F4E102C005900D92A43AB107D9F723E0B6
S1130210A4EAB2E001C01D92AD3BB207E1F70E942F
S1130220D5010C946A0A0C9400001F920F920FB629
S11302300F9211248F93EF93FF93809106018530E1
S113024049F018F4843091F034C08630D9F0873006
S113025029F12FC0E0910701F0910801808180937A
S1130260A70284E080838093060123C0E091070104
S1130270F091080180818093A60286E080838093B8
S1130280060117C0E0910701F09108018081809375
S1130290A50287E08083809306010BC0E0910701EB
S11302A0F091080180818093A40285E0808380938B
S11302B00601FF91EF918F910F900FBE0F901F9049
S11302C01895F89480E48BBF86B7846086BFE0916C
S11302D00701F091080185E08083789408952091C6
S11302E0A70230E020583109C901992324F4882752
S11302F09927821B930B49977CF42091A60230E046
S113030020583109C901992324F488279927821B8D
S1130310930B49970CF441C04091A7022091A60287
S113032050E04058510930E020583109C90199235F
S113033024F488279927821B930B841795077CF153
S11303404091A7022091A60250E04058510930E0A4
S113035020583109C901992324F488279927821B3D
S1130360930B91958195910948175907D4F04091C1
S1130370A6022091A70250E04058510930E02058CD
S11303803109C901992324F488279927821B930BE7
S11303908417950744F482E0089584E0089581E089
S11303A0089580E0089583E008950E94020685B7C9
S11303B0806885BF80B7806280BF80E098E19093B9
S11303C003018093020180E090E290930101809305
S11303D000010E9461010E946405C9EBD3E009E2B7
S11303E011E0198308838BE191E09093B803809323
S11303F0B7030E94D5028AE192E00E948E0782E24E
S113040092E00E948E07198308830E942403FDCF83
S1130410EF92FF920F931F93CF93DF937C01EB0135
S113042088E290E00E9412068C01FC0188E111929E
S11304308150E9F747E150E0B701C8010E9439074C
S1130440F80180E0118E108E8F5F32968730D1F7DD
S1130450209731F4F80117A306A3802F912F25C00C
S1130460F801D7A3C6A3888D998D892B41F0FE018D
S113047021E030E0828D938D892B79F402C020E055
S113048030E0245F3F4FC901880F991FC80FD91F5F
S113049019830883802F912F08C02F5F3F4F329616
S11304A02730310539F780E090E0DF91CF911F913B
S11304B00F91FF90EF900895CF92DF92EF92FF9209
S11304C00F931F93CF93DF930E941A048091B2027B
S11304D08F938091B1028F9380E392E09F938F93E7
S11304E089E091E09F938F930E9448070F900F90AB
S11304F00F900F900F900F90C0E0D0E00F2EF0E31C
S1130500EF2EF2E0FF2EF02D09E011E06E01809154
S1130510B1029091B202DE011C96AA0FBB1FA80F74
S1130520B91F8D919C91892B91F18091A802C813D8
S11305300AC0980142E050E061E070E084E392E098
S11305400E945A0709C0980142E050E061E070E05F
S113055087E392E00E945A07E091B102F091B2025F
S11305608CE0C80ED11CCC0CDD1CEC0DFD1D818172
S11305708F9380818F93FF92EF921F930F930E942A
S113058048070F900F900F900F900F900F902196A7
S1130590C730D10509F0BACFDF91CF911F910F91E8
S11305A0FF90EF90DF90CF90089560E070E08AE3D1
S11305B092E00E9408029093B0028093AF02BC01C3
S11305C082E592E00E940802BC018AE592E00E9462
S11305D008026091AF027091B00286E692E00E9438
S11305E008026091AF027091B0028EE692E00E9420
S11305F008026091AF027091B00286E792E00E9417
S113060008026091AF027091B0028EE792E00E94FE
S113061008026091AF027091B00286E892E00E94F5
S113062008026091AF027091B0028EE892E00E94DD
S113063008028091AF029091B0029093B20280932D
S1130640B1020E945C0208950E946F01823041F45D
S11306508091A802882321F081508093A80262C06F
S11306600E946F018330C9F42091A802822F90E088
S11306700196873091058CF4E091B102F091B202B9
S11306800C96880F991FE80FF91F80819181892B9F
S113069021F02F5F2093A80245C00E946F018111B1
S11306A00FC0E091B102F091B20286A197A190939C
S11306B0B2028093B1021092A8020E94640532C073
S11306C00E946F01813071F58091B1029091B20264
S11306D0E091A802F0E03C96EE0FFF1FE80FF91F2F
S11306E00190F081E02D808D918D892B99F4FF93F9
S11306F0EF9386E992E09F938F9389E291E09F9331
S11307008F930E9448070F900F900F900F900F90B7
S11307100F9008C0F093B202E093B1021092A802C5
S11307200E9464050E945C020895F89400C000C011
S113073000008EEA8093001000C000C0000081EA2F
S11307408093001000C000C000008AED8093001068
S113075000C000C0000082E18093001000C000C00F
S1130760000088EC8093001000C000C0000088EAFC
S11307708093001000C000C000008FE3809300103D
S113078000C000C0000085ED8093001000C000C0D0
S1130790000080E88093001000C000C0000081E8E1
S11307A08093001000C000C0000080E5809300101A
S11307B000C000C0000089ED8093001000C000C09C
S11307C0000081E28093001000C000C0000080E2BD
S11307D08093001000C000C000001092001000C000
S11307E000C000008BED8093001000C000C000002A
S11307F080E38093001000C000C000008DEA809365
S1130800001000C000C000001092001000C000C022
S1130810000084EA8093001000C000C0000086EA53
S11308208093001000C000C000008FEA8093001085
S1130830789408951092AA021092A9020895109231
S1130840AA028091A90290E0019687709078809323
S1130850A90208952091AA0230E02F5F3F4F2F771D
S113086030782093AA028091A90290E041E050E000
S1130870222311F040E050E0840F951F8770907898
S1130880992324F40197886F9F6F01968093A9029E
S113089008950F931F93CF93DF93082F8032A0F115
S11308A02091AA02222384F18091A902883060F564
S11308B030E02C5F3F4F2038310584F10E941F0443
S11308C02DC08091A902A091AA02B0E090E8899F6E
S11308D0A00DB11D11248091170190911801A80F4A
S11308E0B91FCE01800F911FE0911901F0911A01F7
S11308F0E80FF91F859194918C930E942A04219604
S1130900C430D105F1F614C00A3019F40E941F0452
S113091022C00D3001F51092AA021DC010E0005251
S11309201109000F111F000F111FC0E0D0E0C9CF43
S11309308091A902E091AA02F0E090E8899FE00D7D
S1130940F11D11248091170190911801E80FF91FEE
S113095010820E942A04DF91CF911F910F91089574
S113096000C000C0000091E29093001000C000C0DD
S113097000001092001000C000C000009FE7909398
S1130980001000C000C0000092E29093001000C06C
S113099000C000001092001000C000C0000097E0EA
S11309A09093001060E070E0A0E090E015C0A90111
S11309B0460F571FE0911701F0911801E40FF51F3E
S11309C080832F5F3F4F2038310589F760587F4F70
S11309D0611524E0720719F02A2F392FE8CF089502
S11309E000C000C0000081E28093001000C000C07D
S11309F000001092001000C000C000008FE7809338
S1130A00001000C000C0000082E28093001000C00B
S1130A1000C000001092001000C000C0000087E079
S1130A208093001000C000C000001092001000C0AD
S1130A3000C0000080E18093001040E050E070E0CE
S1130A4060E0A1E0B0E118C09C01240F351FE091E3
S1130A501701F0911801E20FF31F208100C000C0BC
S1130A6000002C9301968038910571F740585F4F30
S1130A70411584E0580719F0872F962FE5CF089584
S1130A801F920F920FB60F9211242F933F934F93FF
S1130A905F936F937F938F939F93AF93BF93EF93E2
S1130AA0FF930E94F004FF91EF91BF91AF919F914A
S1130AB08F917F916F915F914F913F912F910F9003
S1130AC00FBE0F901F9018950E94950380E00E941E
S1130AD0B0040E941A040E94F00408950E9449047C
S1130AE00E94F00480E090E008955D9BFECF8CB9F5
S1130AF080E090E008952091AD023091AE028091A3
S1130B00AB029091AC022817390711F18091AB0226
S1130B109091AC029C012F5F3F4F3093AC02209325
S1130B20AB02FC01ED5CFC4F80812091AB02309163
S1130B30AC022F773078332334F421503109206804
S1130B403F6F2F5F3F4F3093AC022093AB02089569
S1130B5080E008951F920F920FB60F9211242F93E5
S1130B603F934F938F939F93EF93FF93F8944CB1DC
S1130B708091AD029091AE022091AB023091AC0213
S1130B8001968F779078992324F4019780689F6F5A
S1130B90019682179307F9F08091AD029091AE020D
S1130BA09C012F5F3F4F3093AE022093AD02FC01B6
S1130BB0ED5CFC4F40838091AD029091AE028F7743
S1130BC09078992324F4019780689F6F01969093FD
S1130BD0AE028093AD027894FF91EF919F918F9133
S1130BE04F913F912F910F900FBE0F901F9018952A
S1130BF01F920F920FB60F9211240F900FBE0F90F9
S1130C001F9018958FE189B910BC8AB1886D8AB993
S1130C1080B58F7B80BD80B58F7E80BD80B5877F9A
S1130C2080BD0895CF93DF938230910510F482E064
S1130C3090E0E091B503F091B60320E030E0A0E04D
S1130C40B0E0309739F14081518148175907B8F025
S1130C504817590771F482819381109729F01396EC
S1130C609C938E9312972CC09093B6038093B503F4
S1130C7027C02115310531F04217530718F0A90197
S1130C80DB0101C0EF019A01BD01DF010280F381A4
S1130C90E02DD7CF21153105F9F0281B390B24306D
S1130CA0310580F48A819B816115710521F0FB0176
S1130CB09383828304C09093B6038093B503FE01AB
S1130CC0329644C0FE01E20FF31F819391932250A8
S1130CD03109398328833AC02091B3033091B40396
S1130CE0232B41F420910201309103013093B4038A
S1130CF02093B303209100013091010121153105A6
S1130D0041F42DB73EB74091040150910501241BD5
S1130D10350BE091B303F091B403E217F307A0F4A9
S1130D202E1B3F0B2817390778F0AC014E5F5F4F3D
S1130D302417350748F04E0F5F1F5093B4034093B8
S1130D40B3038193919302C0E0E0F0E0CF01DF911F
S1130D50CF910895CF93DF93009709F487C0FC01E6
S1130D60329713821282C091B503D091B6032097B3
S1130D7081F420813181280F391F8091B303909130
S1130D80B4038217930779F5F093B403E093B303A4
S1130D906DC0DE0120E030E0AE17BF0750F41296BC
S1130DA04D915C9113979D014115510509F1DA01AB
S1130DB0F3CFB383A28340815181840F951F8A1797
S1130DC09B0771F48D919C911197840F951F029646
S1130DD09183808312968D919C9113979383828340
S1130DE02115310529F4F093B603E093B5033EC011
S1130DF0D9011396FC93EE9312974D915D91A40F34
S1130E00B51FEA17FB0779F480819181840F951F40
S1130E100296D90111969C938E93828193811396A5
S1130E209C938E931297E0E0F0E08A819B81009777
S1130E3019F0FE01EC01F9CFCE0102962881398127
S1130E40820F931F2091B3033091B40328173907FD
S1130E5069F4309729F41092B6031092B50302C0D6
S1130E6013821282D093B403C093B303DF91CF9162
S1130E700895FB01DC014150504048F001900D926F
S1130E800020C9F701C01D9241505040E0F7089579
S1130E90A0E0B0E0EEE4F7E00C94430AAE01475F53
S1130EA05F4F6F8178858D819E810E94BB07E2E050
S1130EB00C945F0AA0E0B0E0E0E6F7E00C94390A95
S1130EC06B014A017901D90113962C9121FF1DC0B0
S1130ED0C0E0D0E0C815D905D9F08C015C01AC0C98
S1130EE0BD1CC8010A151B0571F00F5F1F4FD70108
S1130EF01896ED91FC911997B701DC018C91099535
S1130F00892B79F305C02196E5CF80E090E001C0FC
S1130F10CE01CDB7DEB7ECE00C94550A0F931F93C6
S1130F20CF93DF93E091B903F091BA03238121FFBA
S1130F301BC0EC0100E010E089916091B90370914D
S1130F40BA03DB011896ED91FC911997882331F0CF
S1130F500995892B89F30FEF1FEFEECF8AE00995EE
S1130F60892B11F4C80102C08FEF9FEFDF91CF915D
S1130F701F910F910895ACE0B0E0E1ECF7E00C9420
S1130F80330A7C016B018A01FC011782168283817A
S1130F9081FFBDC1CE0101964C01F7019381F60199
S1130FA093FD859193FF81916F01882309F4ABC16F
S1130FB0853239F493FD859193FF81916F018532D8
S1130FC029F4B70190E00E94A309E7CF512C312CFA
S1130FD020E02032A0F48B3269F030F4803259F0F2
S1130FE0833269F420612CC08D3239F0803339F4B6
S1130FF0216026C02260246023C0286021C027FD10
S113100027C030ED380F3A3078F426FF06C0FAE0F6
S11310105F9E300D1124532E13C08AE0389E300D8C
S11310201124332E20620CC08E3221F426FD6BC1B4
S1131030206406C08C3611F4206802C0883641F45E
S1131040F60193FD859193FF81916F018111C1CFC9
S1131050982F9F7D9554933028F40C5F1F4FFFE326
S1131060F9830DC0833631F0833771F0833509F08D
S11310705BC022C0F801808189830E5F1F4F442426
S11310804394512C540115C03801F2E06F0E711CC9
S1131090F801A080B18026FF03C0652D70E002C076
S11310A06FEF7FEFC5012C870E9498092C01830103
S11310B02C852F77222E17C03801F2E06F0E711C99
S11310C0F801A080B18026FF03C0652D70E002C046
S11310D06FEF7FEFC5012C870E948D092C012C85B1
S11310E02068222E830123FC1BC0832D90E0481628
S11310F05906B0F4B70180E290E00E94A3093A9443
S1131100F4CFF50127FC859127FE81915F01B7019A
S113111090E00E94A30931103A94F1E04F1A51086B
S11311204114510471F7E5C0843611F0893639F55C
S1131130F80127FF07C060817181828193810C5F70
S11311401F4F08C060817181882777FD8095982F93
S11311500E5F1F4F2F76B22E97FF09C09095809592
S1131160709561957F4F8F4F9F4F2068B22E2AE074
S113117030E0A4010E94D509A82EA81844C08537E0
S113118029F42F7EB22E2AE030E025C0F22FF97F19
S1131190BF2E8F36C1F018F4883579F0B4C080378B
S11311A019F0883721F0AFC02F2F2061B22EB4FE82
S11311B00DC08B2D8460B82E09C024FF0AC09F2F58
S11311C09660B92E06C028E030E005C020E130E08A
S11311D002C020E132E0F801B7FE07C060817181EE
S11311E0828193810C5F1F4F06C06081718180E012
S11311F090E00E5F1F4FA4010E94D509A82EA818E5
S1131200FB2DFF77BF2EB6FE0BC02B2D2E7FA51412
S113121050F4B4FE0AC0B2FC08C02B2D2E7E05C0CB
S11312207A2C2B2D03C07A2C01C0752C24FF0DC001
S1131230FE01EA0DF11D8081803311F4297E09C07D
S113124022FF06C07394739404C0822F867809F039
S1131250739423FD13C020FF06C05A2C731418F492
S1131260530C5718732C731468F4B70180E290E0A0
S11312702C870E94A30973942C85F5CF731410F462
S1131280371801C0312C24FF12C0B70180E390E06D
S11312902C870E94A3092C8522FF17C021FF03C0BD
S11312A088E590E002C088E790E0B7010CC0822F87
S11312B0867859F021FD02C080E201C08BE227FD4F
S11312C08DE2B70190E00E94A309A51438F4B70198
S11312D080E390E00E94A3095A94F7CFAA94F40102
S11312E0EA0DF11D8081B70190E00E94A309A110CD
S11312F0F5CF332009F451CEB70180E290E00E948B
S1131300A3093A94F6CFF7018681978102C08FEF43
S11313109FEF2C96E2E10C944F0AFC01059061507A
S113132070400110D8F7809590958E0F9F1F0895F7
S1131330FC016150704001900110D8F780959095A0
S11313408E0F9F1F08950F931F93CF93DF93182F32
S1131350092FEB018B8181FD03C08FEF9FEF20C02C
S113136082FF10C04E815F812C813D81421753075B
S11313707CF4E881F9819F012F5F3F4F39832883F3
S1131380108306C0E885F985812F0995892B29F7F3
S11313902E813F812F5F3F4F3F832E83812F902FDC
S11313A0DF91CF911F910F910895FA01AA27283058
S11313B051F1203181F1E8946F936E7F6E5F7F4F1E
S11313C08F4F9F4FAF4FB1E03ED0B4E03CD0670F9A
S11313D0781F891F9A1FA11D680F791F8A1F911DED
S11313E0A11D6A0F711D811D911DA11D20D009F43D
S11313F068943F912AE0269F11243019305D31937F
S1131400DEF6CF010895462F4770405D4193B3E067
S11314100FD0C9F7F6CF462F4F70405D4A3318F00E
S1131420495D31FD4052419302D0A9F7EACFB4E0BF
S1131430A6959795879577956795BA95C9F7009777
S11314406105710508959B01AC010A2E0694579518
S1131450479537952795BA95C9F7620F731F841F6F
S1131460951FA01D08952F923F924F925F926F9205
S11314707F928F929F92AF92BF92CF92DF92EF9220
S1131480FF920F931F93CF93DF93CDB7DEB7CA1BA1
S1131490DB0B0FB6F894DEBF0FBECDBF09942A88CC
S11314A0398848885F846E847D848C849B84AA8474
S11314B0B984C884DF80EE80FD800C811B81AA8101
S11314C0B981CE0FD11D0FB6F894DEBF0FBECDBFCC
S10B14D0ED010895F894FFCF2B
S11314D80000BD0320000500110000000200000008
S11314E8006E0500000000001470000000000100F8
S11314F800000000007B050000000000020000005E
S1131508007505000000005374617274696E6720E9
S11315185352414D20746573742E2E2E00577269F0
S11315287465207068617365206572726F723A2001
S11315386578745F72616D5B2534645D203D202598
S1131548303258202873686F756C642062652025D2
S1131558303258290A0052657472696576616C20C4
S11315687068617365206572726F723A2065787469
S11315785F72616D5B2534645D203D2025303258EF
S1131588202873686F756C64206265202530325892
S1131598290A005352414D207465737420636F6D9A
S11315A8706C6574656420776974680A25346420EE
S11315B86572726F727320696E2077726974652020
S11315C8706861736520616E640A253464206572ED
S11315D8726F727320696E207265747269657661C0
S11315E86C2070686173650A0A0052756E6E696EC4
S11315F86700456E746572696E67206C6F6F700062
S113160825730A002D3E002020004D61696E61613A
S113161861616161616161616161616161616161AE
S11316286100556E646572203200556E64657220DF
S1131638756E64657200556E646572203100556E6E
S1131648646572206100556E646572206200556E8F
S1131658646572206300556E646572206400556E7B
S113166864657220650025732065722076616C6755
S107167874210A00CB
S9030000FC
