S00D00004E6F6465322E737265635F
S1130000C2C00000DFC00000DDC00000DCC0000092
S1130010D9C00000D7C00000D5C00000D3C0000084
S1130020D1C00000CFC00000CDC00000CBC0000094
S1130030C9C00000C7C00000C5C00000C3C00000A4
S1130040C1C00000BFC00000BDC00000BBC00000B4
S1130050B9C00000B7C00000B5C00000FCC2000079
S1130060B1C0000085C40000ADC00000CDC40000D4
S1130070A9C00000A7C00000A5C00000A3C00000E4
S1130080A1C000009FC000009DC000009BC00000F4
S113009099C0000097C0000095C00000DCC30000B8
S11300A091C000008FC000008DC000008BC0000014
S11300B089C0000087C0000085C0000083C0000024
S11300C081C000007FC000007DC000007BC0000034
S11300D079C0000077C0000075C0000073C0000044
S11300E071C0000046049804980498049804980485
S11300F0980498044604980498049804980498046E
S1130100980498044804980498049804980498045B
S113011098049804980498049804980498049804FB
S1130120980498044804980498049804980498043B
S113013098049804980498049804980498049804DB
S113014098049804940498049804980498049804CF
S113015098049804710498049804980498049804E2
S113016098049804980498049804980498049804AB
S113017098049804650498049804980498049804CE
S113018098049804830411241FBECFEFD1E2DEBF8C
S1130190CDBF00E00CBF12E0A0E0B2E0E0EEFAE078
S11301A000E00BBF02C007900D92A837B107D9F742
S11301B023E0A8E7B2E001C01D92A73BB207E1F734
S11301C07FD18CC41DCF1F920F920FB60F921124B2
S11301D00BB60F92FF920F931F932F933F934F935E
S11301E05F936F937F938F939F93AF93BF93EF939B
S11301F0FF93CF93DF93CDB7DEB72E97DEBFCDBF8E
S1130200F894198280E68A8380E98B8381E08C8369
S113021021D181FF08C081E0898380E78A8384E952
S11302208B8382E08C83FE0135968AE0DF011D9288
S11302308A95E9F78A818566F0D08F708E83CED255
S11302408B81D7D280E0D5D28D83CAD2C7D28B819D
S11302508260CFD28E81882381F0F12C0F2D10E0A3
S113026080E0C7D2E7E0F0E0EC0FFD1FE00FF11FE4
S11302708083F3948E81F81688F3B2D22981E981C0
S1130280F0E0E658FD4F808190E0DC01AA0FBB1F2F
S1130290880F991F880F991F880F991FA80FB91FDE
S11302A080E5289FA00DB11D1124A458BD4F8AE0FC
S11302B0FE01359601900D928A95E1F7E981F0E00F
S11302C0A981B0E0A658BD4F8C9190E0019687704B
S11302D09078E658FD4F80836C8140E08CE2C5D075
S11302E078942E960FB6F894DEBF0FBECDBFDF9183
S11302F0CF91FF91EF91BF91AF919F918F917F919A
S11303006F915F914F913F912F911F910F91FF90AA
S11303100F900BBE0F900FBE0F901F901895B9D081
S113032043E063E08BE2A1D0EA9A50980895CF931A
S1130330DF932AE0FC0111922A95E9F770E0FB01B2
S1130340E658FD4F3081FB01E858FD4F20813217FC
S113035041F1EF01208130E0F901EE0FFF1F220F80
S1130360331F220F331F220F331FE20FF31F20E529
S1130370269FA001279F500D1124E40FF51FE45878
S1130380FD4F2AE0DC0101900D922A95E1F7FC0172
S11303904081288130E02F5F3F4F277030782883D9
S11303A001C040E0FC014083DF91CF9108958AB100
S11303B083608AB924C20895CF93DF9300D0CDB768
S11303C0DEB719821A821B8290E5998390E09C0122
S11303D0220F331F220F331F820F931F959587958A
S11303E08B8363E0CE01019614D20F900F900F908F
S11303F0DF91CF910895EAE7F0E080818760808300
S11304008081806880830895E9D180ECF2D1E8D1BD
S113041080E08F5F8038E9F70895CF93C82FDED14D
S113042083E0E7D18C2FE5D180E0E3D1C82FD8D188
S11304308C2FCF910895CF93DF93D82FC62FCED191
S113044082E0D7D18D2FD5D18C2FD3D1C9D1DF91D3
S1130450CF910895CF93C2D180EACBD180E0C9D1A6
S1130460C82FBED18C2FCF9108951F93CF93DF93C4
S1130470182FD62FC42FB2D185E0BBD1812FB9D18B
S11304808D2FB7D18C2FB5D1ABD1DF91CF911F91E7
S11304900895BADF61E08AE2CEDF61E189E2CBDF71
S11304A062E088E2C8DF40E660E680E6DEDF40E640
S11304B060E680E7DADF40E060EE8FE0D6CF0895B3
S11304C0CF93DF93CDB7DEB72A970FB6F894DEBF8C
S11304D00FBECDBFF894A2D221E032E044E150E057
S11304E061E070E08FE092E0B7D27CD118DF21E0C8
S11304F032E045E050E061E070E08CE392E0ACD2A1
S113050021E032E044E150E061E070E084E292E016
S1130510A3D235D121E032E048E050E061E070E060
S113052089E392E099D221E032E043E150E061E0D6
S113053070E082E492E090D25EDF21E032E045E0B8
S113054050E061E070E08CE392E086D221E032E09A
S113055046E150E061E070E086E592E07DD2E1D0D2
S113056021E032E045E050E061E070E08CE392E0AD
S113057073D278946C9A00E010E0CDD060E0CE01A4
S11305800196D5DE89818130D1F41B810C818E8165
S1130590882359F021E032E046E050E061E070E069
S11305A080E792E059D274980AC021E032E049E031
S11305B050E061E070E08DE692E04ED2749A10D083
S11305C0802F002314F481E0800F8595BBD0812F08
S11305D0112314F481E0810F85958E5DEAD0CDCF8F
S11305E0CF93DF931F921F92CDB7DEB7E2E0F1E025
S11305F080818F7D80838081877F80838AE68A954E
S1130600F1F700C08091060190E0982F88279A8323
S113061089838081886080838AE68A95F1F700C0A7
S11306202091060189819A81822B9A838983808112
S11306308F7B808385E08A95F1F700008081806458
S1130640808380818062808389819A810F900F905A
S1130650DF91CF9108951F920F920FB60F9211243C
S11306600BB60F920F931F932F933F934F935F9368
S11306706F937F938F939F93AF93BF93CF93DF93A6
S1130680EF93FF93F894C0E2D3E08881998102E26A
S113069013E0F80191838083A3DF998388832091F9
S11306A01E0330911F0368817981F80140815181D3
S11306B0C90199230CF4039695958795959587958B
S11306C09B01241B350B220F331F820F931FECE178
S11306D0F3E0918380834081518160E070E084E2A3
S11306E093E041D0A89A7894FF91EF91DF91CF9154
S11306F0BF91AF919F918F917F916F915F914F9136
S11307003F912F911F910F910F900BBE0F900FBE31
S11307100F901F901895E2E0F1E080818061808362
S1130720089545DEE1E0F1E080818A67808385B544
S1130730856085BDA89AEEE6F0E0808181608083C3
S1130740EACF0895882344F4E2E0F1E090819D7FAC
S11307509083819531CE0895E2E0F1E0908192603A
S113076090832ACE0895FC01641B750B7583648302
S113077086819781680F791F778366830895259A08
S113078080E49CE99093870080938600E1E8F0E0A0
S113079082E08083808188618083E0E8F0E080816A
S11307A08268808388EB9BE0909389008093880023
S11307B00895853690F490E09C01220F331F820F38
S11307C0931F880F991F880F991F880F991F885F9F
S11307D0984F909389008093880008952F980895E6
S11307E02F9A089584B1876884B923988FE58CBDC6
S11307F008958EBD0DB407FEFDCF8EB508958CE02F
S11308008093B8008FEF8093BB0084E08093BC009A
S11308100895ECEBF0E0208120FDFDCF60932E03E2
S1130820FC01208120932F0320FD0CC0623050F086
S1130830DC011196E0E3F3E081E09D9191938F5FF9
S11308408613FBCF10922D0388EF8093000285EA74
S11308508093BC0008951F920F920FB60F9211243B
S11308600BB60F922F933F938F939F93AF93BF93A6
S1130870EF93FF938091B90090E0FC013897E13544
S1130880F10508F055C0EE58FF4FE0C010922C035C
S1130890E0912C0380912E03E81770F481E08E0F11
S11308A080932C03F0E0E15DFC4F80818093BB00DA
S11308B085E88093BC0043C080912D0381608093C0
S11308C02D0384E98093BC003AC0E0912C0381E0BD
S11308D08E0F80932C038091BB00F0E0E15DFC4F10
S11308E0808320912C0330E080912E0390E00197C7
S11308F02817390724F485EC8093BC0020C085E8D0
S11309008093BC001CC08091BB00E0912C03F0E0FC
S1130910E15DFC4F808380912D03816080932D03E2
S113092084E98093BC000BC085EA8093BC0007C0B7
S11309308091B9008093000284E08093BC00FF9111
S1130940EF91BF91AF919F918F913F912F910F9014
S11309500BBE0F900FBE0F901F901895E0ECF0E0C7
S1130960908195FFFDCF8093C60080E090E00895CC
S11309701F920F920FB60F9211240BB60F922F9362
S11309803F934F938F939F93EF93FF93F8944091EA
S1130990C600809135039091360320913303309142
S11309A0340301968F779078992324F40197806813
S11309B09F6F019682179307C1F0E0913503F09180
S11309C03603E95CFC4F40838091350390913603F4
S11309D001968F779078992324F4019780689F6F0C
S11309E0019690933603809335037894FF91EF91A9
S11309F09F918F914F913F912F910F900BBE0F902C
S1130A000FBE0F901F9018951F920F920FB60F9262
S1130A1011240F900FBE0F901F901895F89487E63D
S1130A208093C4001092C500E1ECF0E08081886DF1
S1130A308083E2ECF0E080818F77808380818F7EF9
S1130A4080838081877F808378940895EE0FFF1FD1
S1130A500590F491E02D19948F929F92AF92BF92DA
S1130A60CF92DF92EF92FF920F931F93CF93DF9376
S1130A706B014A017901D90113962C9121FF1DC004
S1130A80C0E0D0E0C815D905D9F08C015C01AC0CEC
S1130A90BD1CC8010A151B0571F00F5F1F4FD7015C
S1130AA01896ED91FC911997B701DC018C91199579
S1130AB0892B79F305C02196E5CF80E090E001C051
S1130AC0CE01DF91CF911F910F91FF90EF90DF90B6
S1130AD0CF90BF90AF909F908F900895F894FFCFE0
S1130AE0F80000000200000000AE040000000063F3
S1130AF0616E20696E6974207374617274696E67C3
S1130B002E2E2E0070776D20696E697420737461C7
S1130B107274696E672E2E2E002E2E2E646F6E65F3
S1130B200A00697220696E69742073746172746951
S1130B306E672E2E2E006D6F746F7220696E69744D
S1130B40207374617274696E672E2E2E006E6F208E
S10B0B50636C69636B0A000089
S9030000FC
