S00D00004E6F6465322E737265635F
S1130000C2C00000DFC00000DDC00000DCC0000092
S1130010D9C00000D7C00000D5C00000D3C0000084
S1130020D1C00000CFC00000CDC00000CBC0000094
S1130030C9C00000C7C00000C5C00000C3C00000A4
S1130040C1C00000BFC00000BDC00000BBC00000B4
S1130050B9C00000B7C00000B5C0000011C3000063
S1130060B1C000009AC40000ADC00000E2C40000AA
S1130070A9C00000A7C00000A5C00000A3C00000E4
S1130080A1C000009FC000009DC000009BC00000F4
S113009099C0000097C0000095C00000F1C30000A3
S11300A091C000008FC000008DC000008BC0000014
S11300B089C0000087C0000085C0000083C0000024
S11300C081C000007FC000007DC000007BC0000034
S11300D079C0000077C0000075C0000073C0000044
S11300E071C000005B04AD04AD04AD04AD04AD0407
S11300F0AD04AD045B04AD04AD04AD04AD04AD04C6
S1130100AD04AD045D04AD04AD04AD04AD04AD04B3
S1130110AD04AD04AD04AD04AD04AD04AD04AD0453
S1130120AD04AD045D04AD04AD04AD04AD04AD0493
S1130130AD04AD04AD04AD04AD04AD04AD04AD0433
S1130140AD04AD04A904AD04AD04AD04AD04AD0427
S1130150AD04AD048604AD04AD04AD04AD04AD043A
S1130160AD04AD04AD04AD04AD04AD04AD04AD0403
S1130170AD04AD047A04AD04AD04AD04AD04AD0426
S1130180AD04AD04980411241FBECFEFD1E2DEBF4D
S1130190CDBF00E00CBF12E0A0E0B2E0E0E5F0E18A
S11301A000E00BBF02C007900D92A837B107D9F742
S11301B023E0A8E7B2E001C01D92A73BB207E1F734
S11301C093D144C71DCF1F920F920FB60F921124E3
S11301D00BB60F92FF920F931F932F933F934F935E
S11301E05F936F937F938F939F93AF93BF93EF939B
S11301F0FF93CF93DF93CDB7DEB72E97DEBFCDBF8E
S1130200F894198280E68A8380E98B8381E08C8369
S113021035D181FF08C081E0898380E78A8384E93E
S11302208B8382E08C83E981F0E0E658FD4F2081E6
S1130230E981F0E0E858FD4F808130E02F5F3F4FC7
S11302402770307890E02817390709F459C0FE0167
S113025035968AE0DF011D928A95E9F78A818566E1
S1130260F0D08F708E83CFD28B81D8D280E0D6D25B
S11302708D83CBD2C8D28B818260D0D28E818823E9
S113028081F0F12C0F2D10E080E0C8D2E7E0F0E01F
S1130290EC0FFD1FE00FF11F8083F3948E81F8169D
S11302A088F3B3D22981E981F0E0E658FD4F8081DB
S11302B090E0DC01AA0FBB1F880F991F880F991FBC
S11302C0880F991FA80FB91F80E5289FA00DB11DA5
S11302D01124A458BD4F8AE0FE01359601900D9279
S11302E08A95E1F7E981F0E0A981B0E0A658BD4F15
S11302F08C9190E0019687709078E658FD4F80834A
S11303006C8140E08CE2C5D078942E960FB6F894B8
S1130310DEBF0FBECDBFDF91CF91FF91EF91BF91B3
S1130320AF919F918F917F916F915F914F913F9189
S11303302F911F910F91FF900F900BBE0F900FBE46
S11303400F901F901895B9D043E063E08BE2A1D0E1
S1130350EA9A50980895CF93DF932AE0FC01119212
S11303602A95E9F770E0FB01E658FD4F3081FB0167
S1130370E858FD4F2081321741F1EF01208130E030
S1130380F901EE0FFF1F220F331F220F331F220F1D
S1130390331FE20FF31F20E5269FA001279F500D76
S11303A01124E40FF51FE458FD4F2AE0DC0101900D
S11303B00D922A95E1F7FC014081288130E02F5FFE
S11303C03F4F27703078288301C040E0FC01408310
S11303D0DF91CF9108958AB183608AB925C20895C7
S11303E0CF93DF9300D0CDB7DEB719821A821B8278
S11303F090E5998390E09C01220F331F220F331F55
S1130400820F931F959587958B8363E0CE010196A8
S113041015D20F900F900F90DF91CF910895EAE7D6
S1130420F0E0808187608083808180688083089584
S1130430EAD180ECF3D1E9D180E08F5F8038E9F72D
S11304400895CF93C82FDFD183E0E8D18C2FE6D174
S113045080E0E4D1C82FD9D18C2FCF910895CF93C8
S1130460DF93D82FC62FCFD182E0D8D18D2FD6D10C
S11304708C2FD4D1CAD1DF91CF910895CF93C3D11A
S113048080EACCD180E0CAD1C82FBFD18C2FCF91C4
S113049008951F93CF93DF93182FD62FC42FB3D172
S11304A085E0BCD1812FBAD18D2FB8D18C2FB6D194
S11304B0ACD1DF91CF911F910895BADF61E08AE258
S11304C0CEDF61E189E2CBDF62E088E2C8DF40E6AB
S11304D060E680E6DEDF40E660E680E7DADF40E003
S11304E060EE8FE0D6CF0895CF93DF93CDB7DEB71C
S11304F02A970FB6F894DEBF0FBECDBFF89487D10C
S1130500A2D221E032E044E150E061E070E08FE00B
S113051092E0F8D218DF21E032E045E050E061E0FB
S113052070E08CE392E0EED221E032E044E150E06E
S113053061E070E084E292E0E5D236D121E032E07D
S113054048E050E061E070E089E392E0DBD221E032
S113055032E043E150E061E070E082E492E0D2D224
S11305605EDF21E032E045E050E061E070E08CE3E2
S113057092E0C8D221E032E046E150E061E070E070
S113058086E592E0BFD2E2D021E032E045E050E0DF
S113059061E070E08CE392E0B5D27894A12CB12CA8
S11305A0C12CDD24D3940F2EFDE6EF2EF2E0FF2EB6
S11305B0F02D01E012E0C4D060E0CE010196CBDE64
S11305C08981813011F4BB80AC801FD08A2DAA2090
S11305D014F481E08A0D8595CAD08B2DBB2014F4C8
S11305E081E08B0D8595805EF9D0F60180811F92A4
S11305F08F93FF92EF921F930F9343D20F900F901C
S11306000F900F900F900F90D6CFCF93DF931F9240
S11306101F92CDB7DEB7E2E0F1E080818F7D808369
S11306208081877F80838AE68A95F1F700C0809174
S1130630060190E0982F88279A83898380818860B7
S113064080838AE68A95F1F700C0209106018981AA
S11306509A81822B9A83898380818F7B808385E032
S11306608A95F1F7000080818064808380818062B4
S1130670808389819A810F900F90DF91CF910895A3
S11306801F920F920FB60F9211240BB60F920F9375
S11306901F932F933F934F935F936F937F938F9306
S11306A09F93AF93BF93CF93DF93EF93FF93F8940C
S11306B0C0E2D3E08881998102E213E0F8019183DA
S11306C08083A3DF9983888320911E0330911F03C5
S11306D068817981F80140815181C90199230CF421
S11306E0039695958795959587959B01241B350BC6
S11306F0220F331F820F931FECE1F3E09183808379
S11307004081518160E070E084E293E041D0A89A96
S11307107894FF91EF91DF91CF91BF91AF919F9129
S11307208F917F916F915F914F913F912F911F9185
S11307300F910F900BBE0F900FBE0F901F90189546
S1130740E2E0F1E0808180618083089544DEE1E0AD
S1130750F1E080818A67808385B5856085BDA89A2C
S1130760EEE6F0E0808181608083EACF08958823FB
S113077044F4E2E0F1E090819D7F9083819530CE56
S11307800895E2E0F1E090819260908329CE08958B
S1130790FC01641B750B7583648386819781680FE4
S11307A0791F778366830895259A80E49CE9909362
S11307B0870080938600E1E8F0E082E08083808116
S11307C088618083E0E8F0E080818268808388EB40
S11307D09BE090938900809388000895853690F477
S11307E090E09C01220F331F820F931F880F991FE3
S11307F0880F991F880F991F885F984F90938900DD
S11308008093880008952F9808952F9A089584B1AD
S1130810876884B923988FE58CBD08958EBD0DB487
S113082007FEFDCF8EB508958CE08093B8008FEF5E
S11308308093BB0084E08093BC000895ECEBF0E06F
S1130840208120FDFDCF60932E03FC0120812093A5
S11308502F0320FD0CC0623050F0DC011196E0E360
S1130860F3E081E09D9191938F5F8613FBCF10920B
S11308702D0388EF8093000285EA8093BC000895DD
S11308801F920F920FB60F9211240BB60F922F9353
S11308903F938F939F93AF93BF93EF93FF93809175
S11308A0B90090E0FC013897E135F10508F055C036
S11308B0EE58FF4FE0C010922C03E0912C0380917E
S11308C02E03E81770F481E08E0F80932C03F0E080
S11308D0E15DFC4F80818093BB0085E88093BC0080
S11308E043C080912D03816080932D0384E980931C
S11308F0BC003AC0E0912C0381E08E0F80932C035E
S11309008091BB00F0E0E15DFC4F808320912C03DB
S113091030E080912E0390E001972817390724F4E2
S113092085EC8093BC0020C085E88093BC001CC08B
S11309308091BB00E0912C03F0E0E15DFC4F8083EB
S113094080912D03816080932D0384E98093BC0002
S11309500BC085EA8093BC0007C08091B9008093E6
S1130960000284E08093BC00FF91EF91BF91AF91AE
S11309709F918F913F912F910F900BBE0F900FBEBF
S11309800F901F901895E0ECF0E0908195FFFDCF5B
S11309908093C60080E090E008951F920F920FB6F6
S11309A00F9211240BB60F922F933F934F938F9373
S11309B09F93EF93FF93F8944091C6008091350381
S11309C090913603209133033091340301968F774D
S11309D09078992324F4019780689F6F0196821779
S11309E09307C1F0E0913503F0913603E95CFC4FC5
S11309F04083809135039091360301968F779078E8
S1130A00992324F4019780689F6F0196909336038D
S1130A10809335037894FF91EF919F918F914F913B
S1130A203F912F910F900BBE0F900FBE0F901F9010
S1130A3018951F920F920FB60F9211240F900FBEAC
S1130A400F901F901895F89487E68093C400109235
S1130A50C500E1ECF0E08081886D8083E2ECF0E099
S1130A6080818F77808380818F7E80838081877F60
S1130A70808378940895EE0FFF1F0590F491E02D84
S1130A801994CF93DF93CDB7DEB7AE01465F5F4FC6
S1130A90688579858E819F8177D0DF91CF91089584
S1130AA00F931F93CF93DF93182F092FEB018B81A3
S1130AB081FD03C08FEF9FEF20C082FF10C04E81E5
S1130AC05F812C813D81421753077CF4E881F981D1
S1130AD09F012F5F3F4F39832883108306C0E88529
S1130AE0F985812F1995892B29F72E813F812F5F55
S1130AF03F4F3F832E83812F902FDF91CF911F9102
S1130B000F9108958F929F92AF92BF92CF92DF92EE
S1130B10EF92FF920F931F93CF93DF936B014A01E0
S1130B207901D90113962C9121FF1DC0C0E0D0E0BA
S1130B30C815D905D9F08C015C01AC0CBD1CC801E9
S1130B400A151B0571F00F5F1F4FD7011896ED9121
S1130B50FC911997B701DC018C911995892B79F3D4
S1130B6005C02196E5CF80E090E001C0CE01DF9181
S1130B70CF911F910F91FF90EF90DF90CF90BF9096
S1130B80AF909F908F9008952F923F924F925F92D3
S1130B906F927F928F929F92AF92BF92CF92DF9289
S1130BA0EF92FF920F931F93CF93DF93CDB7DEB7EE
S1130BB02C970FB6F894DEBF0FBECDBF7C016B013E
S1130BC08A01FC0117821682838181FFB0C1CE01A4
S1130BD001964C01F7019381F60193FD859193FFF2
S1130BE081916F01882309F49EC1853239F493FD04
S1130BF0859193FF81916F01853221F4B70190E0D3
S1130C004FDFE8CF512C312C20E02032A0F48B327E
S1130C1069F030F4803259F0833269F420612CC0D9
S1130C208D3239F0803339F4216026C0226024608B
S1130C3023C0286021C027FD27C030ED380F3A308B
S1130C4078F426FF06C0FAE05F9E300D1124532E7F
S1130C5013C08AE0389E300D1124332E20620CC05C
S1130C608E3221F426FD5FC1206406C08C3611F457
S1130C70206802C0883641F4F60193FD859193FF04
S1130C8081916F018111C1CF982F9F7D955493302D
S1130C9028F40C5F1F4FFFE3F9830DC0833631F056
S1130CA0833771F0833509F057C021C0F801808182
S1130CB089830E5F1F4F44244394512C540114C064
S1130CC03801F2E06F0E711CF801A080B18026FF9C
S1130CD003C0652D70E002C06FEF7FEFC5012C8764
S1130CE04CD12C0183012C852F77222E16C038017C
S1130CF0F2E06F0E711CF801A080B18026FF03C0E2
S1130D00652D70E002C06FEF7FEFC5012C872AD1FB
S1130D102C012C852068222E830123FC19C0832DED
S1130D2090E048165906A0F4B70180E290E0B8DEDE
S1130D303A94F5CFF50127FC859127FE81915F0157
S1130D40B70190E0ADDE31103A94F1E04F1A51084A
S1130D504114510479F7DEC0843611F0893631F537
S1130D60F80127FF07C060817181828193810C5F44
S1130D701F4F08C060817181882777FD8095982F67
S1130D800E5F1F4F2F76B22E97FF09C09095809566
S1130D90709561957F4F8F4F9F4F2068B22E2AE048
S1130DA030E0A401F5D0A82EA81843C0853729F453
S1130DB02F7EB22E2AE030E025C0F22FF97FBF2E1D
S1130DC08F36C1F018F4883579F0ADC0803719F04A
S1130DD0883721F0A8C02F2F2061B22EB4FE0DC099
S1130DE08B2D8460B82E09C024FF0AC09F2F966003
S1130DF0B92E06C028E030E005C020E130E002C092
S1130E0020E132E0F801B7FE07C060817181828180
S1130E1093810C5F1F4F06C06081718180E090E078
S1130E200E5F1F4FA401B4D0A82EA818FB2DFF7786
S1130E30BF2EB6FE0BC02B2D2E7FA51450F4B4FE8E
S1130E400AC0B2FC08C02B2D2E7E05C07A2C2B2D97
S1130E5003C07A2C01C0752C24FF0DC0FE01EA0DDD
S1130E60F11D8081803311F4297E09C022FF06C060
S1130E707394739404C0822F867809F0739423FDCD
S1130E8012C020FF06C05A2C731418F4530C5718C0
S1130E90732C731460F4B70180E290E02C8700DEB9
S1130EA073942C85F6CF731410F4371801C0312CC9
S1130EB024FF11C0B70180E390E02C87F1DD2C857D
S1130EC022FF16C021FF03C088E590E002C088E736
S1130ED090E0B7010CC0822F867851F021FD02C04A
S1130EE080E201C08BE227FD8DE2B70190E0D8DDFE
S1130EF0A51430F4B70180E390E0D2DD5A94F8CF22
S1130F00AA94F401EA0DF11D8081B70190E0C8DDD7
S1130F10A110F6CF332009F45DCEB70180E290E052
S1130F20BFDD3A94F7CFF7018681978102C08FEF36
S1130F309FEF2C960FB6F894DEBF0FBECDBFDF91A6
S1130F40CF911F910F91FF90EF90DF90CF90BF90C2
S1130F50AF909F908F907F906F905F904F903F9055
S1130F602F900895FC010590615070400110D8F74E
S1130F70809590958E0F9F1F0895FC0161507040DD
S1130F8001900110D8F7809590958E0F9F1F0895BA
S1130F90FA01AA27283051F1203181F1E8946F93A6
S1130FA06E7F6E5F7F4F8F4F9F4FAF4FB1E03ED04C
S1130FB0B4E03CD0670F781F891F9A1FA11D680FEA
S1130FC0791F8A1F911DA11D6A0F711D811D911D1D
S1130FD0A11D20D009F468943F912AE0269F112492
S1130FE03019305D3193DEF6CF010895462F4770F6
S1130FF0405D4193B3E00FD0C9F7F6CF462F4F7051
S1131000405D4A3318F0495D31FD4052419302D0AE
S1131010A9F7EACFB4E0A695979587957795679554
S1131020BA95C9F700976105710508959B01AC0154
S11310300A2E06945795479537952795BA95C9F77B
S1131040620F731F841F951FA01D0895F894FFCF8E
S1131050F80000000200000000C304000000006368
S1131060616E20696E6974207374617274696E674D
S11310702E2E2E0070776D20696E69742073746152
S11310807274696E672E2E2E002E2E2E646F6E657E
S11310900A00697220696E697420737461727469DC
S11310A06E672E2E2E006D6F746F7220696E6974D8
S11310B0207374617274696E672E2E2E00504F5225
S10B10C054482025780A0000C1
S9030000FC
