S00D00004E6F6465322E737265635F
S1130000C2C00000E0C00000DEC00000DDC000008F
S1130010DAC00000D8C00000D6C00000D4C0000080
S1130020D2C00000D0C00000CEC00000CCC0000090
S1130030CAC00000C8C00000C6C00000C4C00000A0
S1130040C2C00000C0C00000BEC00000BCC00000B0
S1130050BAC00000B8C00000B6C00000B4C00000C0
S1130060B2C00000E3C70000AEC00000ACC0000096
S1130070AAC00000A8C00000A6C00000A4C00000E0
S11300806DC30000A0C000009EC000009CC0000022
S11300909AC0000098C0000096C000003AC7000053
S11300A092C0000090C000008EC000008CC0000010
S11300B08AC00000ECC4000086C00000A3C6000093
S11300C082C0000080C000007EC000007CC0000030
S11300D07AC0000078C0000076C0000074C0000040
S11300E072C00000A407F607F607F607F607F6073E
S11300F0F607F607A407F607F607F607F607F60766
S1130100F607F607A607F607F607F607F607F60753
S1130110F607F607F607F607F607F607F607F607F3
S1130120F607F607A607F607F607F607F607F60733
S1130130F607F607F607F607F607F607F607F607D3
S1130140F607F607F207F607F607F607F607F607C7
S1130150F607F607CF07F607F607F607F607F607DA
S1130160F607F607F607F607F607F607F607F607A3
S1130170F607F607C307F607F607F607F607F607C6
S1130180F607F607E10711241FBECFEFD1E2DEBF69
S1130190CDBF00E00CBF13E0A0E0B2E0E8EFF6E171
S11301A000E00BBF02C007900D92AC38B107D9F73D
S11301B024E0ACE8B3E001C01D92AE3CB207E1F725
S11301C087D30C947A0B1CCF1F920F920FB60F9209
S11301D011240BB60F92DF92EF92FF920F931F93AD
S11301E02F933F934F935F936F937F938F939F933B
S11301F0AF93BF93EF93FF93CF93DF93CDB7DEB766
S11302002E97DEBFCDBF198280E68A8380E98B8377
S113021081E08C8327D381FF08C081E0898380E754
S11302208A8384E98B8382E08C83FE0135968AE09D
S1130230DF011D928A95E9F78A818566E6D28F707F
S1130240E82E14D68B811DD680E01BD6D82E10D66E
S11302500DD68B81826015D6EE2061F08E01095F88
S11302601F4FF12C80E00DD6F80181938F01F39498
S1130270FE10F8CFFDD58981E981F0E0E257FC4F0B
S1130280208130E0DD82EE82D901AA0FBB1F220F4C
S1130290331F220F331F220F331FA20FB31FF0E5AA
S11302A08F9FA00DB11D1124A057BC4F8AE0FE0101
S11302B0359601900D928A95E1F7E981F0E0A981E4
S11302C0B0E0A257BC4F8C9190E001968770907873
S11302D0E257FC4F80836C8140E08CE2CED22E96B4
S11302E00FB6F894DEBF0FBECDBFDF91CF91FF9163
S11302F0EF91BF91AF919F918F917F916F915F919A
S11303004F913F912F911F910F91FF90EF90DF90AC
S11303100F900BBE0F900FBE0F901F901895C1D277
S113032043E063E08BE2A9D2EA9A50980895DF9201
S1130330EF92FF920F931F93CF93DF93CDB7DEB766
S11303402A970FB6F894DEBF0FBECDBF0983D12E16
S11303501A832B833C834D835E836F8378878987DD
S11303609A8781E0E81649F0E2E0EE1619F000E41D
S113037010E305C004E410E502C002E410E46D2DAE
S1130380812F856050D260E0812F82604CD26981D8
S1130390812F816048D26AD5802F816072D5DD209B
S11303A059F08E010D5F1F4FF12CF80181918F01DF
S11303B068D5F394FD10F9CF5BD58E2D43D22A96E0
S11303C00FB6F894DEBF0FBECDBFDF91CF911F9162
S11303D00F91FF90EF90DF900895CF93DF932AE081
S11303E0FC0111922A95E9F770E0FB01E257FC4FFA
S11303F03081FB01E457FC4F2081321741F1EF01BA
S1130400208130E0F901EE0FFF1F220F331F220F6E
S1130410331F220F331FE20FF31F20E5269FA00195
S1130420279F500D1124E40FF51FE057FC4F2AE0DD
S1130430DC0101900D922A95E1F7FC0140812881AD
S113044030E02F5F3F4F27703078288301C040E0B1
S1130450FC014083DF91CF9108958AB183608AB90A
S113046023E032E04CE050E061E070E081E192E0B2
S11304709DC60895CF93DF9300D0CDB7DEB7198220
S11304801A821B8290E5998388231CF48FEF8B8357
S113049002C0880F8B8363E0CE01019602D50F90D2
S11304A00F900F90DF91CF9108951F93CF93DF9317
S11304B0E0E9F0E0808180688083E1E9F0E0808118
S11304C08D60808388EE93E09093990080939800E8
S11304D0E1E7F0E08081826080831FEFC0E0D0E03C
S11304E079D1C80FD91F1150D9F7CD2FDD27C69563
S11304F0C0930002DD27DF93CF938EE192E09F93B8
S11305008F9383E092E09F938F930FD60F900F9079
S11305100F900F900F900F90DF91CF911F9108953E
S113052059D120913104211112C02091000230E0F0
S11305308217930760F423E032E04DE050E061E07D
S113054070E088E292E032D681E08093310408952D
S11305506F927F928F929F92AF92BF92CF92DF92CF
S1130560EF92FF920F931F93CF93DF93CDB7DEB734
S113057064970FB6F894DEBF0FBECDBFD1DF60E045
S1130580CE0101962ADF99813B811C814E81FE01B7
S11305903B968AE0DF011D928A95E9F7992309F4D5
S11305A0C8C00F2EFEE8AF2EF2E0BF2EF02D0F2EA6
S11305B0F3E0CF2EF2E0DF2EF02DF12C0F2EFEE72C
S11305C08F2EF2E09F2EF02D6894772471F80F2E71
S11305D0FAE06F2EF02D913009F094C03C3051F1C7
S11305E030F43A3051F03B3009F44CC07DC03F3018
S11305F0B1F0303109F457C077C07B867C866D86B4
S1130600309131043E87EF2C072D172D262D4F8571
S1130610588969897A898B899C8989DE80C0960189
S11306204FE050E061E070E086E392E0BFD51093C4
S1130630010275C080910102843159F4E42E012F26
S1130640112314F401E0010F05950E5C842F5CD294
S11306500FC0853159F4E42E012F112314F401E065
S1130660010F05950E5C842F4FD202C0EF2C0F2D85
S11306701F818E2D49D2802FB4D3112309F44FC08A
S1130680EED34DC096014BE050E061E070E086E4AB
S113069092E08CD5F09231048FE891E00197F1F764
S11306A000C000003CC0163119F0173179F037C092
S11306B061E070E082E090E0EAD2960144E150E02B
S11306C061E070E082E592E071D529C062E070E0FB
S11306D081E090E0DCD2960146E150E061E070E018
S11306E087E692E063D51BC01F923F939F928F923F
S11306F0DF92CF921AD50F900F900F900F900F901A
S11307000F900DC01F929F93BF92AF92DF92CF9232
S11307100CD50F900F900F900F900F900F906F2D9E
S1130720CE0101965ADE99813B811C814E81911143
S113073052CF64960FB6F894DEBF0FBECDBFDF91E3
S1130740CF911F910F91FF90EF90DF90CF90BF90CA
S1130750AF909F908F907F906F9008951F920F920B
S11307600FB60F9211240BB60F922F933F934F9312
S11307705F936F937F938F939F93AF93BF93EF9305
S1130780FF93809130048F5F80933004811105C002
S113079063E072E08EE290E0D7D4DADEFF91EF916D
S11307A0BF91AF919F918F917F916F915F914F9185
S11307B03F912F910F900BBE0F900FBE0F901F9083
S11307C01895EAE7F0E08081876080838081806803
S11307D080830895ECE7F0E0808180688083EAE715
S11307E0F0E0808180648083808186FDFDCF8091EC
S11307F0780090917900089539D380EC42D338D3AE
S113080080E08F5F8038E9F70895CF93C82F2ED307
S113081083E037D38C2F35D380E033D3C82F28D34C
S11308208C2FCF910895CF93DF93D82FC62F1ED34B
S113083082E027D38D2F25D38C2F23D319D3DF9197
S1130840CF910895CF93C82F11D321E030E0C9018F
S113085002C0880F991FCA95E2F7806812D308D3A3
S1130860CF910895CF9302D380EA0BD380E009D3CC
S1130870C82FFED28C2FCF9108951F93CF93DF936F
S1130880182FD62FC42FF2D285E0FBD2812FF9D2B4
S11308908D2FF7D28C2FF5D2EBD2DF91CF911F9110
S11308A00895AADF61E08AE2BEDF61E189E2BBDF8D
S11308B062E088E2B8DF40E660E680E6DEDF40E63C
S11308C060E680E7DADF40E060EE8FE0D6CF08959F
S11308D0F894F6D323E032E042E150E061E070E0C6
S11308E087EA92E063D423E032E044E150E061E03F
S11308F070E08AEB92E05AD4BDD211DD23E032E0FD
S113090045E050E061E070E087EE92E04FD423E0F0
S113091032E044E150E061E070E08FEC92E046D4D4
S113092045D223E032E048E050E061E070E084EE3C
S113093092E03CD423E032E043E150E061E070E037
S11309408DEE92E033D43DDF23E032E045E050E029
S113095061E070E087EE92E029D499D27EDD23E055
S113096032E046E150E061E070E081E093E01ED4C3
S1130970A1D123E032E045E050E061E070E087EE91
S113098092E014D423E032E049E150E061E070E009
S113099088E193E00BD450D223E032E045E050E00C
S11309A061E070E087EE92E001D423E032E045E1BB
S11309B050E061E070E082E393E0F8D376DD23E079
S11309C032E045E050E061E070E087EE92E0EED383
S11309D0789445D0DED080E897D023E032E045E13A
S11309E050E061E070E088E493E0E0D3FFCFCF9380
S11309F0DF931F921F92CDB7DEB7E2E0F1E0808172
S1130A008F7D80838081877F80838AE68A95F1F752
S1130A1000C08091060190E0982F88279A838983EB
S1130A208081886080838AE68A95F1F700C02091EE
S1130A30060189819A81822B9A83898385E38A9529
S1130A40F1F70000808180648083808180628083EC
S1130A5089819A810F900F90DF91CF910895E2E000
S1130A60F1E080818061808308957894882344F440
S1130A70E2E0F1E090819D7F90838195FBCC089525
S1130A80E2E0F1E0908192609083F4CC08951F92AB
S1130A900F920FB60F9211240BB60F922F933F9320
S1130AA04F935F936F937F938F939F93AF93BF9372
S1130AB0EF93FF939CDF909333048093320440912F
S1130AC0320450913304609134047091350486E407
S1130AD094E00AD18E3C0CF48EEC83330CF082E368
S1130AE0C4DFFF91EF91BF91AF919F918F917F915F
S1130AF06F915F914F913F912F910F900BBE0F908B
S1130B000FBE0F901F90189590913A04992311F1FC
S1130B10409138045091390460913604709137043F
S1130B20641B750B9B0112F421503F4F232F330F8D
S1130B30330B829FB001839F700D1124460F571F02
S1130B405093350440933404E2E7F0E080818160FF
S1130B508083C89A0895E2E7F0E080818E7F8083E5
S1130B60089580E8D1DF20913404309135048091D8
S1130B70320490913304281B390BC901992324F4BE
S1130B8088279927821B930B8536910564F7E3CF59
S1130B900895CF93DF9323E032E042E150E061E037
S1130BA070E08EE593E002D383ED5FDF20DFEC019C
S1130BB02FEF81EE94E0215080409040E1F700C097
S1130BC0000015DFC817D9077CF411DFEC012FEF03
S1130BD081EE94E0215080409040E1F700C0000095
S1130BE006DFC817D9078CF390933904809338042F
S1130BF09F938F9381E793E09F938F9383E092E099
S1130C009F938F9392D28DE230DFF1DEEC012FEFD0
S1130C1081EE94E0215080409040E1F700C0000054
S1130C20E6DE0F900F900F900F900F900F908C179F
S1130C309D077CF4DCDEEC012FEF81EE94E0215083
S1130C4080409040E1F700C00000D1DE8C179D0782
S1130C508CF390933704809336049F938F9381E8A9
S1130C6093E09F938F9383E092E09F938F935DD261
S1130C7080E0FBDE81E080933A0473DF0F900F90F5
S1130C800F900F900F900F90DF91CF9108950F93D5
S1130C901F93CF93DF93EC018B0186E494E080D023
S1130CA0A801BE0186E494E015D0DF91CF911F9195
S1130CB00F910895E1E0F1E080818A678083E1EAA1
S1130CC0F0E080818260808361E070E082E090E007
S1130CD0DECF0895FC0171836083538342831482C1
S1130CE01582168217820895CF92DF92EF92FF92B7
S1130CF00F931F93FC01CA01861B970BBC01AA2703
S1130D0097FDA095BA2FC480D580E680F7809C011A
S1130D10AD012C0D3D1D4E1D5F1D2483358346837F
S1130D20578380819181689F6001699FD00C789F6F
S1130D30D00C1124EE24D7FCE094FE2CA281B381C4
S1130D40EAD18B019C01992324F4015F1F4F2F4F9B
S1130D503F4FD901C801689413F8B595A7959795A5
S1130D6087951694D1F78C0D9D1DAE1DBF1DAC014A
S1130D70BD01BB2324F441585F4F6F4F7F4FDB010C
S1130D80CA01689416F8B595A79597958795169412
S1130D90D1F71F910F91FF90EF90DF90CF900895BE
S1130DA0FC0114821582168217820895259A80E424
S1130DB09CE99093870080938600E1E8F0E08081CD
S1130DC082608083808188618083E0E8F0E08081B4
S1130DD08268808386E89BE09093890080938800F2
S1130DE0089588230CF480E085360CF084E623E132
S1130DF08202C00111248053984F909389008093FC
S1130E00880008951F920F920FB60F9211240BB60B
S1130E100F928F93EF93FF93749AE3E7F0E080814E
S1130E208D7F8083FF91EF918F910F900BBE0F9078
S1130E300FBE0F901F901895E0E2F1E0808180686A
S1130E408083E1E2F1E080818D60808388E893E132
S1130E5090932901809328016C9A749A0895749848
S1130E60E3E7F0E080818260808308952F980895FD
S1130E702F9A089584B1876884B923988FE58CBD2F
S1130E8008958EBD0DB407FEFDCF8EB508958CE098
S1130E908093B8008FEF8093BB0084E08093BC0004
S1130EA00895FF920F931F93CF93DF938C01F62E37
S1130EB08091BC0080FF0AC0CCEBD0E063E072E01C
S1130EC08CE290E041D1888180FDF8CFF0923D041E
S1130ED0F801808180933E0480FD0DC0F1E0FF1590
S1130EE050F4D8011196EFE3F4E081E09D919193E1
S1130EF08F5F8F11FBCF10923C0488EF8093020226
S1130F0085EA8093BC00DF91CF911F910F91FF90F0
S1130F1008951F920F920FB60F9211240BB60F92E1
S1130F202F933F938F939F93AF93BF93EF93FF932D
S1130F308091B90090E0FC013897E135F10508F0A3
S1130F4055C0EE58FF4FD2C010923B04E0913B04D1
S1130F5080913D04E81770F481E08E0F80933B0488
S1130F60F0E0E25CFB4F80818093BB0085E88093D6
S1130F70BC0043C080913C04816080933C0484E9BC
S1130F808093BC003AC0E0913B0481E08E0F8093D3
S1130F903B048091BB00F0E0E25CFB4F8083209136
S1130FA03B0430E080913D0490E001972817390715
S1130FB024F485EC8093BC0020C085E88093BC00B9
S1130FC01CC08091BB00E0913B04F0E0E25CFB4F6D
S1130FD0808380913C04816080933C0484E9809305
S1130FE0BC000BC085EA8093BC0007C08091B900A7
S1130FF08093020284E08093BC00FF91EF91BF9143
S1131000AF919F918F913F912F910F900BBE0F90B5
S11310100FBE0F901F901895E0ECF0E0908195FFC3
S1131020FDCF8093C60080E090E008951F920F9258
S11310300FB60F9211240BB60F922F933F934F9339
S11310408F939F93EF93FF934091C6008091440444
S113105090914504209142043091430401968F7786
S11310609078992324F4019780689F6F01968217E2
S11310709307C1F0E0914404F0914504E25BFB4F17
S11310804083809144049091450401968F77907831
S1131090992324F4019780689F6F019690934504E7
S11310A080934404FF91EF919F918F914F913F91D1
S11310B02F910F900BBE0F900FBE0F901F9018959D
S11310C087E68093C4001092C500E1ECF0E08081D3
S11310D088688083E2ECF0E080818F778083808170
S11310E08F7E80838081877F80830895EE0FFF1F2A
S11310F00590F491E02D1994A29FB001B39FC00113
S1131100A39F700D811D1124911DB29F700D811D2F
S11311101124911D0895F0DFA59F900DB49F900DAB
S1131120A49F800D911D11240895CF93DF93CDB713
S1131130DEB7AE01465F5F4F688579858E819F81FA
S113114077D0DF91CF9108950F931F93CF93DF93BF
S1131150182F092FEB018B8181FD03C08FEF9FEFC7
S113116020C082FF10C04E815F812C813D814217D7
S113117053077CF4E881F9819F012F5F3F4F398346
S11311802883108306C0E885F985812F1995892B5A
S113119029F72E813F812F5F3F4F3F832E83812F7D
S11311A0902FDF91CF911F910F9108958F929F926D
S11311B0AF92BF92CF92DF92EF92FF920F931F9361
S11311C0CF93DF936B014A017901D90113962C91D6
S11311D021FF1DC0C0E0D0E0C815D905D9F08C01AD
S11311E05C01AC0CBD1CC8010A151B0571F00F5F36
S11311F01F4FD7011896ED91FC911997B701DC01A7
S11312008C911995892B79F305C02196E5CF80E05F
S113121090E001C0CE01DF91CF911F910F91FF901B
S1131220EF90DF90CF90BF90AF909F908F900895F4
S11312302F923F924F925F926F927F928F929F92E2
S1131240AF92BF92CF92DF92EF92FF920F931F93D0
S1131250CF93DF93CDB7DEB72C970FB6F894DEBFEC
S11312600FBECDBF7C016B018A01FC01178216827F
S1131270838181FFB0C1CE0101964C01F7019381B6
S1131280F60193FD859193FF81916F01882309F401
S11312909EC1853239F493FD859193FF81916F014D
S11312A0853221F4B70190E04FDFE8CF512C312C87
S11312B020E02032A0F48B3269F030F4803259F00F
S11312C0833269F420612CC08D3239F0803339F4D3
S11312D0216026C02260246023C0286021C027FD2D
S11312E027C030ED380F3A3078F426FF06C0FAE014
S11312F05F9E300D1124532E13C08AE0389E300DAA
S11313001124332E20620CC08E3221F426FD5FC1DD
S1131310206406C08C3611F4206802C0883641F47B
S1131320F60193FD859193FF81916F018111C1CFE6
S1131330982F9F7D9554933028F40C5F1F4FFFE343
S1131340F9830DC0833631F0833771F0833509F0AA
S113135057C021C0F801808189830E5F1F4F442448
S11313604394512C540114C03801F2E06F0E711CE7
S1131370F801A080B18026FF03C0652D70E002C093
S11313806FEF7FEFC5012C874CD12C0183012C8595
S11313902F77222E16C03801F2E06F0E711CF8016F
S11313A0A080B18026FF03C0652D70E002C06FEFFE
S11313B07FEFC5012C872AD12C012C852068222E91
S11313C0830123FC19C0832D90E048165906A0F42C
S11313D0B70180E290E0B8DE3A94F5CFF50127FC3E
S11313E0859127FE81915F01B70190E0ADDE311058
S11313F03A94F1E04F1A51084114510479F7DEC0D0
S1131400843611F0893631F5F80127FF07C0608171
S11314107181828193810C5F1F4F08C0608171814B
S1131420882777FD8095982F0E5F1F4F2F76B22E59
S113143097FF09C090958095709561957F4F8F4F68
S11314409F4F2068B22E2AE030E0A401F5D0A82EE8
S1131450A81843C0853729F42F7EB22E2AE030E045
S113146025C0F22FF97FBF2E8F36C1F018F48835CE
S113147079F0ADC0803719F0883721F0A8C02F2F3C
S11314802061B22EB4FE0DC08B2D8460B82E09C02D
S113149024FF0AC09F2F9660B92E06C028E030E0D2
S11314A005C020E130E002C020E132E0F801B7FEDF
S11314B007C060817181828193810C5F1F4F06C0D8
S11314C06081718180E090E00E5F1F4FA401B4D071
S11314D0A82EA818FB2DFF77BF2EB6FE0BC02B2D10
S11314E02E7FA51450F4B4FE0AC0B2FC08C02B2D04
S11314F02E7E05C07A2C2B2D03C07A2C01C0752CAE
S113150024FF0DC0FE01EA0DF11D8081803311F42A
S1131510297E09C022FF06C07394739404C0822FED
S1131520867809F0739423FD12C020FF06C05A2C5C
S1131530731418F4530C5718732C731460F4B70114
S113154080E290E02C8700DE73942C85F6CF731430
S113155010F4371801C0312C24FF11C0B70180E307
S113156090E02C87F1DD2C8522FF16C021FF03C0FB
S113157088E590E002C088E790E0B7010CC0822FB4
S1131580867851F021FD02C080E201C08BE227FD84
S11315908DE2B70190E0D8DDA51430F4B70180E303
S11315A090E0D2DD5A94F8CFAA94F401EA0DF11D2B
S11315B08081B70190E0C8DDA110F6CF332009F493
S11315C05DCEB70180E290E0BFDD3A94F7CFF7013A
S11315D08681978102C08FEF9FEF2C960FB6F89407
S11315E0DEBF0FBECDBFDF91CF911F910F91FF9052
S11315F0EF90DF90CF90BF90AF909F908F907F90AF
S11316006F905F904F903F902F900895FC0105904C
S1131610615070400110D8F7809590958E0F9F1FF0
S11316200895FC016150704001900110D8F7809535
S113163090958E0F9F1F0895FA01AA27283051F123
S1131640203181F1E8946F936E7F6E5F7F4F8F4FEF
S11316509F4FAF4FB1E03ED0B4E03CD0670F781F4E
S1131660891F9A1FA11D680F791F8A1F911DA11D33
S11316706A0F711D811D911DA11D20D009F468946C
S11316803F912AE0269F11243019305D3193DEF614
S1131690CF010895462F4770405D4193B3E00FD0CA
S11316A0C9F7F6CF462F4F70405D4A3318F0495DB5
S11316B031FD4052419302D0A9F7EACFB4E0A69598
S11316C09795879577956795BA95C9F700976105BA
S11316D0710508959B01AC010A2E06945795479510
S11316E037952795BA95C9F7620F731F841F951F05
S10B16F0A01D0895F894FFCF3A
S11316F82814F800000002000000000C0800000094
S1131708006932632E2E2E6461632E2E2E006472BD
S11317186F70282575290A0062616C6C2064726FE9
S1131728707065640A006368616E67652073657428
S113173874696E670A0067616D6520726573657404
S11317480A007374616E6461726420646966666910
S113175863756C74790A00696D706F737369626C70
S11317686520646966666963756C74790A006967DB
S11317786E6F72656420636D642025750A006E6F50
S11317886E2D636F6D6D616E642072656365697635
S113179865642025750A000A7561727420696E698A
S11317A87469616C697A65640A0063616E20696EA4
S11317B86974207374617274696E672E2E2E0070BA
S11317C8776D20696E6974207374617274696E67C9
S11317D82E2E2E002E2E2E646F6E650A006972203E
S11317E8696E6974207374617274696E672E2E2E23
S11317F8006D6F746F7220696E69742073746172FE
S113180874696E672E2E2E00736F6C656E6F696433
S113181820696E6974207374617274696E672E2E00
S11318282E0067616D6520696E6974207374617236
S113183874696E672E2E2E0073797374656D206932
S11318486E697420636F6D706C6574650A004D6F02
S1131858746F722063616C6962726174696F6E0A75
S113186800096C656674202569203C2D2D2D3E20C9
S10F18780025692072696768740A00008A
S9030000FC
