S00D00004E6F6465322E737265635F
S1130000C2C00000E0C00000DEC00000DDC000008F
S1130010DAC00000D8C00000D6C00000D4C0000080
S1130020D2C00000D0C00000CEC00000CCC0000090
S1130030CAC00000C8C00000C6C00000C4C00000A0
S1130040C2C00000C0C00000BEC00000BCC00000B0
S1130050BAC00000B8C00000B6C00000B4C00000C0
S1130060B2C000008EC70000AEC00000ACC00000EB
S1130070AAC00000A8C00000A6C00000A4C00000E0
S11300801DC30000A0C000009EC000009CC0000072
S11300909AC0000098C0000096C00000E5C60000A9
S11300A092C0000090C000008EC000008CC0000010
S11300B08AC00000A7C4000086C000004EC600002D
S11300C082C0000080C000007EC000007CC0000030
S11300D07AC0000078C0000076C0000074C0000040
S11300E072C000004F07A107A107A107A107A1073C
S11300F0A107A1074F07A107A107A107A107A1070E
S1130100A107A1075107A107A107A107A107A107FB
S1130110A107A107A107A107A107A107A107A1079B
S1130120A107A1075107A107A107A107A107A107DB
S1130130A107A107A107A107A107A107A107A1077B
S1130140A107A1079D07A107A107A107A107A1076F
S1130150A107A1077A07A107A107A107A107A10782
S1130160A107A107A107A107A107A107A107A1074B
S1130170A107A1076E07A107A107A107A107A1076E
S1130180A107A1078C0711241FBECFEFD1E2DEBF68
S1130190CDBF00E00CBF13E0A0E0B2E0EEE4F6E176
S11301A000E00BBF02C007900D92A435B107D9F748
S11301B024E0A4E5B3E001C01D92A839B207E1F739
S11301C030D30C94250B1CCF1F920F920FB60F92B5
S11301D011240BB60F92DF92EF92FF920F931F93AD
S11301E02F933F934F935F936F937F938F939F933B
S11301F0AF93BF93EF93FF93CF93DF93CDB7DEB766
S11302002E97DEBFCDBF198280E68A8380E98B8377
S113021081E08C83D0D281FF08C081E0898380E7AC
S11302208A8384E98B8382E08C83FE0135968AE09D
S1130230DF011D928A95E9F78A8185668FD28F70D6
S1130240E82EBFD58B81C8D580E0C6D5D82EBBD5C6
S1130250B8D58B818260C0D5EE2061F08E01095F34
S11302601F4FF12C80E0B8D5F80181938F01F394EE
S1130270FE10F8CFA8D58981E981F0E0EA5AFC4F55
S1130280208130E0DD82EE82D901AA0FBB1F220F4C
S1130290331F220F331F220F331FA20FB31FF0E5AA
S11302A08F9FA00DB11D1124A85ABC4F8AE0FE01F6
S11302B0359601900D928A95E1F7E981F0E0A981E4
S11302C0B0E0AA5ABC4F8C9190E001968770907868
S11302D0EA5AFC4F80836C8140E08CE277D22E9600
S11302E00FB6F894DEBF0FBECDBFDF91CF91FF9163
S11302F0EF91BF91AF919F918F917F916F915F919A
S11303004F913F912F911F910F91FF90EF90DF90AC
S11303100F900BBE0F900FBE0F901F9018956AD2CE
S113032043E063E08BE252D2EA9A50980895DF9258
S1130330EF92FF920F931F93CF93DF93CDB7DEB766
S11303402A970FB6F894DEBF0FBECDBF0983D12E16
S11303501A832B833C834D835E836F8378878987DD
S11303609A8781E0E81649F0E2E0EE1619F000E41D
S113037010E305C004E410E502C002E410E46D2DAE
S1130380812F8560F9D160E0812F8260F5D1698188
S1130390812F8160F1D115D5802F81601DD5DD209D
S11303A059F08E010D5F1F4FF12CF80181918F01DF
S11303B013D5F394FD10F9CF06D58E2DECD12A96E2
S11303C00FB6F894DEBF0FBECDBFDF91CF911F9162
S11303D00F91FF90EF90DF900895CF93DF932AE081
S11303E0FC0111922A95E9F770E0FB01EA5AFC4FEF
S11303F03081FB01EC5AFC4F2081321741F1EF01AF
S1130400208130E0F901EE0FFF1F220F331F220F6E
S1130410331F220F331FE20FF31F20E5269FA00195
S1130420279F500D1124E40FF51FE85AFC4F2AE0D2
S1130430DC0101900D922A95E1F7FC0140812881AD
S113044030E02F5F3F4F27703078288301C040E0B1
S1130450FC014083DF91CF9108958AB183608AB90A
S113046023E032E04CE050E061E070E081E192E0B2
S113047048C60895CF93DF9300D0CDB7DEB7198275
S11304801A821B8290E5998388231CF48FEF8B8357
S113049002C0880F8B8363E0CE010196ADD40F9028
S11304A00F900F90DF91CF910895E0E9F0E0808103
S11304B080688083E1E9F0E080818D60808388EE4C
S11304C093E09093990080939800E1E7F0E08081B5
S11304D082608083089527D12091FB0321110EC0EF
S11304E0449760F423E032E04DE050E061E070E0D6
S11304F08EE192E006D681E08093FB0308955F923B
S11305006F927F928F929F92AF92BF92CF92DF921F
S1130510EF92FF920F931F93CF93DF93CDB7DEB784
S113052064970FB6F894DEBF0FBECDBFD4DF60E092
S1130530CE01019652DF99812B811C813D818E81F0
S1130540FE013B964AE0DF011D924A95E9F79923A3
S113055009F49EC00F2EFCE4AF2EF2E0BF2EF02D66
S11305600F2EF3E0CF2EF2E0DF2EF02D0F2EF2E36C
S11305705F2EF02D0F2EFCE38F2EF2E09F2EF02D38
S11305800F2EF3E06F2EF02D0F2EFAE07F2EF02DBC
S11305906894FF24F1F8913009F062C02C30F1F036
S11305A02F3089F02A3009F04DC03091FB03E12C43
S11305B0062D1F2D272D4F85588969897A898B89A6
S11305C09C89B5DE5AC096014FE050E061E070E0CE
S11305D08CE292E096D5109301024FC090910102F3
S11305E0943119F0953181F024C08093F90330934C
S11305F0F803912F112314F491E0910F95959E5CCB
S11306009093000255D215C08093F9033093F803F8
S11306101058252D1203C0011124992314F4815874
S11306209F4F880F892F881F990BA52DA81BA09376
S113063000028091000280D38091F8038823E9F0BE
S1130640B9D31BC01F922F939F928F92DF92CF92A8
S113065017D50F900F900F900F900F900F900DC023
S11306601F929F93BF92AF92DF92CF9209D50F90C2
S11306700F900F900F900F900F9060E0CE010196B5
S1130680ACDE99812B811C813D818E81911183CFB8
S113069064960FB6F894DEBF0FBECDBFDF91CF9145
S11306A01F910F91FF90EF90DF90CF90BF90AF908C
S11306B09F908F907F906F905F9008951F920F92FC
S11306C00FB60F9211240BB60F922F933F934F93B3
S11306D05F936F937F938F939F93AF93BF93EF93A6
S11306E0FF938091FA038F5F8093FA0308DFFF91F1
S11306F0EF91BF91AF919F918F917F916F915F9196
S11307004F913F912F910F900BBE0F900FBE0F9002
S11307101F901895EAE7F0E08081876080838081EC
S1130720806880830895ECE7F0E0808180688083AE
S1130730EAE7F0E0808180648083808186FDFDCFDC
S1130740809178009091790008953BD380EC44D354
S11307503AD380E08F5F8038E9F70895CF93C82FAC
S113076030D383E039D38C2F37D380E035D3C82FEF
S11307702AD38C2FCF910895CF93DF93D82FC62FF0
S113078020D382E029D38D2F27D38C2F25D31BD3BD
S1130790DF91CF910895CF93C82F13D321E030E098
S11307A0C90102C0880F991FCA95E2F7806814D363
S11307B00AD3CF910895CF9304D380EA0DD380E078
S11307C00BD3C82F00D38C2FCF9108951F93CF93B1
S11307D0DF93182FD62FC42FF4D285E0FDD2812FBA
S11307E0FBD28D2FF9D28C2FF7D2EDD2DF91CF919E
S11307F01F910895AADF61E08AE2BEDF61E189E228
S1130800BBDF62E088E2B8DF40E660E680E6DEDF78
S113081040E660E680E7DADF40E060EE8FE0D6CFC6
S11308200895F894F8D323E032E042E150E061E027
S113083070E085E692E065D423E032E044E150E0E4
S113084061E070E088E792E05CD4BFD268DD23E029
S113085032E045E050E061E070E085EA92E051D496
S113086023E032E044E150E061E070E08DE892E0A2
S113087048D447D223E032E048E050E061E070E041
S113088082EA92E03ED423E032E043E150E061E0CA
S113089070E08BEA92E035D43DDF23E032E045E0BE
S11308A050E061E070E085EA92E02BD49BD2D5DD84
S11308B023E032E046E150E061E070E08FEB92E04B
S11308C020D476D023E032E045E050E061E070E0EF
S11308D085EA92E016D423E032E049E150E061E099
S11308E070E086ED92E00DD452D223E032E045E090
S11308F050E061E070E085EA92E003D423E032E066
S113090045E150E061E070E080EF92E0FAD3CDDDA4
S113091023E032E045E050E061E070E085EA92E0F7
S1130920F0D3789457D009D180E8C2D023E032E0E4
S113093045E150E061E070E086E093E0E2D3FFCF70
S1130940CF93DF931F921F92CDB7DEB7E2E0F1E0C1
S113095080818F7D80838081877F80838AE68A95EA
S1130960F1F700C08091060190E0982F88279A83C0
S113097089838081886080838AE68A95F1F700C044
S11309802091060189819A81822B9A83898385E348
S11309908A95F1F700008081806480838081806281
S11309A0808389819A810F900F90DF91CF91089570
S11309B0E1E0F1E080818A678083E1EAF0E0808110
S11309C08260808341E050E061E070E080E194E087
S11309D032C10895E2E0F1E080818061808308956E
S11309E07894882344F4E2E0F1E090819D7F908341
S11309F0819540CD0895E2E0F1E09081926090838A
S1130A0039CD08951F920F920FB60F9211240BB691
S1130A100F922F933F934F935F936F937F938F9393
S1130A209F93AF93BF93CF93EF93FF9389DF9093FB
S1130A30FD038093FC034091FC035091FD036091FE
S1130A40FE037091FF0380E194E0FFD08E3C0CF430
S1130A508EECC82F83330CF0C2E38C2FC1DF2C2F14
S1130A60332727FD30953F93CF938CE193E09F93F9
S1130A708F9383E092E09F938F9302D30F900F9014
S1130A800F900F900F900F90FF91EF91CF91BF9126
S1130A90AF919F918F917F916F915F914F913F9112
S1130AA02F910F900BBE0F900FBE0F901F901895B3
S1130AB090910404992311F140910204509103048C
S1130AC06091000470910104641B750B9B0112F486
S1130AD021503F4F232F330F330B829FB001839F4D
S1130AE0700D1124460F571F5093FF034093FE03CC
S1130AF0E2E7F0E0808181608083C89A0895E2E7AC
S1130B00F0E080818E7F8083089580E8D1DF20919A
S1130B10FE033091FF038091FC039091FD03281B99
S1130B20390BC901992324F488279927821B930B35
S1130B308536910564F7E3CF0895CF93DF9323E0DF
S1130B4032E042E150E061E070E087E293E0D9D224
S1130B5088ED46DFF5DEEC012FEF81EE94E02150C5
S1130B6080409040E1F700C00000EADEC817D907D2
S1130B707CF4E6DEEC012FEF81EE94E0215080401E
S1130B809040E1F700C00000DBDEC817D9078CF302
S1130B9090930304809302049F938F938AE393E0DA
S1130BA09F938F9383E092E09F938F9369D288E21F
S1130BB017DFC6DEEC012FEF81EE94E02150804078
S1130BC09040E1F700C00000BBDE0F900F900F9043
S1130BD00F900F900F908C179D077CF4B1DEEC0101
S1130BE02FEF81EE94E0215080409040E1F700C067
S1130BF00000A6DE8C179D078CF39093010480936C
S1130C0000049F938F938AE493E09F938F9383E0F0
S1130C1092E09F938F9334D280E0E2DE81E0809370
S1130C20040473DF0F900F900F900F900F900F90AC
S1130C30DF91CF910895FC017183608353834283D4
S1130C4014821582168217820895CF92DF92EF9252
S1130C50FF920F931F93FC01CA01861B970BBC01E3
S1130C60AA2797FDA095BA2FC480D580E680F78087
S1130C709C01AD012C0D3D1D4E1D5F1D248335834C
S1130C804683578380819181689F6001699FD00C5E
S1130C90789FD00C1124EE24D7FCE094FE2CA28182
S1130CA0B381E4D18B019C01992324F4015F1F4F8C
S1130CB02F4F3F4FD901C801689413F8B595A795F4
S1130CC0979587951694D1F78C0D9D1DAE1DBF1D6C
S1130CD0AC01BD01BB2324F441585F4F6F4F7F4FDC
S1130CE0DB01CA01689416F8B595A7959795879581
S1130CF01694D1F71F910F91FF90EF90DF90CF9052
S1130D000895259A80E49CE9909387008093860057
S1130D10E1E8F0E080818260808380818861808363
S1130D20E0E8F0E080818268808386E89BE090932D
S1130D30890080938800089588230CF480E0853628
S1130D400CF084E623E18202C00111248053984F01
S1130D50909389008093880008951F920F920FB694
S1130D600F9211240BB60F928F93EF93FF93749A03
S1130D70E3E7F0E080818D7F8083FF91EF918F9195
S1130D800F900BBE0F900FBE0F901F901895E0E2CE
S1130D90F1E0808180688083E1E2F1E080818D6010
S1130DA0808388E893E190932901809328016C9AC9
S1130DB0749A08957498E3E7F0E0808182608083F8
S1130DC008952F9808952F9A089584B1876884B957
S1130DD023988FE58CBD08958EBD0DB407FEFDCF1D
S1130DE08EB508958CE08093B8008FEF8093BB009C
S1130DF084E08093BC000895FF920F931F93CF93D8
S1130E00DF938C01F62E8091BC0080FF0AC0CCEBEE
S1130E10D0E063E072E08CE290E041D1888180FD13
S1130E20F8CFF0920704F80180818093080480FDD4
S1130E300DC0F1E0FF1550F4D8011196E9E0F4E09B
S1130E4081E09D9191938F5F8F11FBCF10920604E7
S1130E5088EF8093020285EA8093BC00DF91CF91F2
S1130E601F910F91FF9008951F920F920FB60F924A
S1130E7011240BB60F922F933F938F939F93AF93AD
S1130E80BF93EF93FF938091B90090E0FC013897F2
S1130E90E135F10508F055C0EE58FF4FD2C010926D
S1130EA00504E091050480910704E81770F481E0DB
S1130EB08E0F80930504F0E0E85FFB4F8081809300
S1130EC0BB0085E88093BC0043C080910604816028
S1130ED08093060484E98093BC003AC0E091050441
S1130EE081E08E0F809305048091BB00F0E0E85F01
S1130EF0FB4F80832091050430E08091070490E04B
S1130F0001972817390724F485EC8093BC0020C08E
S1130F1085E88093BC001CC08091BB00E09105046F
S1130F20F0E0E85FFB4F808380910604816080934A
S1130F30060484E98093BC000BC085EA8093BC005E
S1130F4007C08091B9008093020284E08093BC00C2
S1130F50FF91EF91BF91AF919F918F913F912F910D
S1130F600F900BBE0F900FBE0F901F901895E0ECE2
S1130F70F0E0908195FFFDCF8093C60080E090E083
S1130F8008951F920F920FB60F9211240BB60F9271
S1130F902F933F934F938F939F93EF93FF9340919E
S1130FA0C60080910E0490910F0420910C0430919E
S1130FB00D0401968F779078992324F40197806823
S1130FC09F6F019682179307C1F0E0910E04F09190
S1130FD00F04E85EFB4F408380910E0490910F0450
S1130FE001968F779078992324F4019780689F6FF6
S1130FF0019690930F0480930E04FF91EF919F91BB
S11310008F914F913F912F910F900BBE0F900FBE78
S11310100F901F90189587E68093C4001092C50026
S1131020E1ECF0E0808188688083E2ECF0E080818C
S11310308F77808380818F7E80838081877F808388
S11310400895EE0FFF1F0590F491E02D1994A29FCF
S1131050B001B39FC001A39F700D811D1124911D88
S1131060B29F700D811D1124911D0895F0DFA59F7D
S1131070900DB49F900DA49F800D911D112408958F
S1131080CF93DF93CDB7DEB7AE01465F5F4F688580
S113109079858E819F8177D0DF91CF9108950F93C9
S11310A01F93CF93DF93182F092FEB018B8181FDC1
S11310B003C08FEF9FEF20C082FF10C04E815F817D
S11310C02C813D81421753077CF4E881F9819F010B
S11310D02F5F3F4F39832883108306C0E885F98545
S11310E0812F1995892B29F72E813F812F5F3F4F3F
S11310F03F832E83812F902FDF91CF911F910F91EA
S113110008958F929F92AF92BF92CF92DF92EF9207
S1131110FF920F931F93CF93DF936B014A017901E1
S1131120D90113962C9121FF1DC0C0E0D0E0C81551
S1131130D905D9F08C015C01AC0CBD1CC8010A15A1
S11311401B0571F00F5F1F4FD7011896ED91FC91AD
S11311501997B701DC018C911995892B79F305C096
S11311602196E5CF80E090E001C0CE01DF91CF91E0
S11311701F910F91FF90EF90DF90CF90BF90AF90B1
S11311809F908F9008952F923F924F925F926F920B
S11311907F928F929F92AF92BF92CF92DF92EF9203
S11311A0FF920F931F93CF93DF93CDB7DEB72C97A6
S11311B00FB6F894DEBF0FBECDBF7C016B018A0170
S11311C0FC0117821682838181FFB0C1CE01019692
S11311D04C01F7019381F60193FD859193FF819171
S11311E06F01882309F49EC1853239F493FD8591FA
S11311F093FF81916F01853221F4B70190E04FDFB5
S1131200E8CF512C312C20E02032A0F48B3269F04D
S113121030F4803259F0833269F420612CC08D326D
S113122039F0803339F4216026C02260246023C061
S1131230286021C027FD27C030ED380F3A3078F4FC
S113124026FF06C0FAE05F9E300D1124532E13C012
S11312508AE0389E300D1124332E20620CC08E3269
S113126021F426FD5FC1206406C08C3611F4206889
S113127002C0883641F4F60193FD859193FF819174
S11312806F018111C1CF982F9F7D9554933028F41D
S11312900C5F1F4FFFE3F9830DC0833631F08337B2
S11312A071F0833509F057C021C0F801808189832A
S11312B00E5F1F4F44244394512C540114C0380131
S11312C0F2E06F0E711CF801A080B18026FF03C00C
S11312D0652D70E002C06FEF7FEFC5012C874CD104
S11312E02C0183012C852F77222E16C03801F2E0C1
S11312F06F0E711CF801A080B18026FF03C0652D1C
S113130070E002C06FEF7FEFC5012C872AD12C015A
S11313102C852068222E830123FC19C0832D90E0A4
S113132048165906A0F4B70180E290E0B8DE3A947A
S1131330F5CFF50127FC859127FE81915F01B70167
S113134090E0ADDE31103A94F1E04F1A51084114A7
S1131350510479F7DEC0843611F0893631F5F8018D
S113136027FF07C060817181828193810C5F1F4FC9
S113137008C060817181882777FD8095982F0E5F62
S11313801F4F2F76B22E97FF09C0909580957095C8
S113139061957F4F8F4F9F4F2068B22E2AE030E037
S11313A0A401F5D0A82EA81843C0853729F42F7EB0
S11313B0B22E2AE030E025C0F22FF97FBF2E8F36FF
S11313C0C1F018F4883579F0ADC0803719F088374A
S11313D021F0A8C02F2F2061B22EB4FE0DC08B2D9A
S11313E08460B82E09C024FF0AC09F2F9660B92ECE
S11313F006C028E030E005C020E130E002C020E172
S113140032E0F801B7FE07C0608171818281938167
S11314100C5F1F4F06C06081718180E090E00E5F19
S11314201F4FA401B4D0A82EA818FB2DFF77BF2E00
S1131430B6FE0BC02B2D2E7FA51450F4B4FE0AC0AB
S1131440B2FC08C02B2D2E7E05C07A2C2B2D03C098
S11314507A2C01C0752C24FF0DC0FE01EA0DF11D8C
S11314608081803311F4297E09C022FF06C0739461
S1131470739404C0822F867809F0739423FD12C0FC
S113148020FF06C05A2C731418F4530C5718732CED
S1131490731460F4B70180E290E02C8700DE73944B
S11314A02C85F6CF731410F4371801C0312C24FFA7
S11314B011C0B70180E390E02C87F1DD2C8522FF79
S11314C016C021FF03C088E590E002C088E790E0E1
S11314D0B7010CC0822F867851F021FD02C080E252
S11314E001C08BE227FD8DE2B70190E0D8DDA514A1
S11314F030F4B70180E390E0D2DD5A94F8CFAA9497
S1131500F401EA0DF11D8081B70190E0C8DDA1105E
S1131510F6CF332009F45DCEB70180E290E0BFDD61
S11315203A94F7CFF7018681978102C08FEF9FEF3E
S11315302C960FB6F894DEBF0FBECDBFDF91CF91CE
S11315401F910F91FF90EF90DF90CF90BF90AF90DD
S11315509F908F907F906F905F904F903F902F90CF
S11315600895FC010590615070400110D8F78095F2
S113157090958E0F9F1F0895FC016150704001905B
S11315800110D8F7809590958E0F9F1F0895FA014A
S1131590AA27283051F1203181F1E8946F936E7FAE
S11315A06E5F7F4F8F4F9F4FAF4FB1E03ED0B4E09F
S11315B03CD0670F781F891F9A1FA11D680F791FE0
S11315C08A1F911DA11D6A0F711D811D911DA11DF1
S11315D020D009F468943F912AE0269F1124301901
S11315E0305D3193DEF6CF010895462F4770405D9C
S11315F04193B3E00FD0C9F7F6CF462F4F70405D4B
S11316004A3318F0495D31FD4052419302D0A9F7A5
S1131610EACFB4E0A6959795879577956795BA959F
S1131620C9F700976105710508959B01AC010A2E65
S113163006945795479537952795BA95C9F7620F3C
S1111640731F841F951FA01D0895F894FFCFFB
S113164E3214F80000000200000000B7070000008A
S113165E006932632E2E2E6461632E2E2E0062617B
S113166E6C6C2064726F707065640A006368616EDE
S113167E67652073657474696E670A0069676E6FB7
S113168E72656420636D642025750A006E6F6E2D7D
S113169E636F6D6D616E64207265636569766564F2
S11316AE2025750A000A7561727420696E69746961
S11316BE616C697A65640A0063616E20696E69748F
S11316CE207374617274696E672E2E2E0070776D9E
S11316DE20696E6974207374617274696E672E2E3C
S11316EE2E002E2E2E646F6E650A00697220696EAE
S11316FE6974207374617274696E672E2E2E006D78
S113170E6F746F7220696E69742073746172746978
S113171E6E672E2E2E00736F6C656E6F6964206972
S113172E6E6974207374617274696E672E2E2E0046
S113173E67616D6520696E69742073746172746972
S113174E6E672E2E2E0073797374656D20696E6923
S113175E7420636F6D706C6574650A00666F7263D6
S113176E653A2025690A004D6F746F722063616CAF
S113177E6962726174696F6E0A00096C6566742021
S113178E2569203C2D2D2D3E200025692072696788
S107179E68740A005D
S9030000FC
