:1000000071C000008EC000008CC000008BC00000DA
:1000100088C0000086C0000084C0000082C00000CC
:1000200080C000007EC000007CC000007AC00000DC
:1000300078C0000076C0000074C0000072C00000EC
:1000400070C000006EC000006CC000006AC00000FC
:1000500068C0000066C0000064C0000062C000000C
:1000600060C00000C0C200005CC0000008C3000007
:1000700058C0000056C0000054C0000052C000002C
:1000800050C000004EC000004CC000004AC000003C
:1000900048C0000046C0000044C0000042C000004C
:1000A00040C000003EC000003CC000003AC000005C
:1000B00038C0000036C0000034C0000032C000006C
:1000C00030C000002EC000002CC000002AC000007C
:1000D00028C0000026C0000024C0000022C000008C
:1000E00020C0000011241FBECFEFD1E2DEBFCDBF84
:1000F00000E00CBF12E0A0E0B2E0E0E9FCE000E0CC
:100100000BBF02C007900D92AC37B107D9F724E0BE
:10011000ACE7B2E001C01D92A634B207E1F781D18D
:10012000B5C56ECF1F920F920FB60F9211240BB66A
:100130000F92FF920F931F932F933F934F935F93D1
:100140006F937F938F939F93AF93BF93EF93FF939F
:10015000CF93DF93CDB7DEB72E97DEBFCDBFF89438
:10016000198280E68A8380E98B8381E08C8323D1A6
:1001700081FF08C081E0898380E78A8384E98B83DB
:1001800082E08C83E981F0E0E258FD4F2081E98133
:10019000F0E0E458FD4F808130E02F5F3F4F2F703B
:1001A000307890E02817390709F45DC0FE013596D4
:1001B0008AE0DF011D928A95E9F78A818566DED0A3
:1001C0008F708E83F5D18B81FED180E0FCD18D8341
:1001D000F1D1EED18B818260F6D18E81882381F0BE
:1001E000F12C0F2D10E080E0EED1E7E0F0E0EC0F15
:1001F000FD1FE00FF11F8083F3948E81F81688F3C2
:10020000D9D16C8140E08CE2E1D02981E981F0E034
:10021000E258FD4F808190E0DC01AA0FBB1F880FE0
:10022000991F880F991F880F991FA80FB91F80EA7F
:10023000289FA00DB11D1124A058BD4F8AE0FE01DA
:10024000359601900D928A95E1F7E981F0E0A98158
:10025000B0E0A258BD4F8C9190E001968F709078DD
:10026000E258FD4F808378942E960FB6F894DEBF47
:100270000FBECDBFDF91CF91FF91EF91BF91AF91B5
:100280009F918F917F916F915F914F913F912F91AE
:100290001F910F91FF900F900BBE0F900FBE0F900C
:1002A0001F901895A7D043E063E08BE28FD0EA9AC5
:1002B00050980895CF93DF932AE0FC0111922A957C
:1002C000E9F770E0FB01E258FD4F3081FB01E45893
:1002D000FD4F2081321741F1EF01208130E0F9011B
:1002E000EE0FFF1F220F331F220F331F220F331F6A
:1002F000E20FF31F20EA269FA001279F500D112433
:10030000E40FF51FE058FD4F2AE0DC0101900D924B
:100310002A95E1F7FC014081288130E02F5F3F4FB3
:100320002F703078288301C040E0FC014083DF91CA
:10033000CF910895EAE7F0E0808187608083808133
:10034000806880830895ECE7F0E080818068808396
:10035000EAE7F0E0808180648083808186FDFDCFC4
:100360008091780090917900089522D180EC2BD172
:1003700021D180E08F5F8038E9F70895CF93C82FAF
:1003800017D183E020D18C2F1ED180E01CD1C82F43
:1003900011D18C2FCF910895CF93DF93D82FC62FF3
:1003A00007D182E010D18D2F0ED18C2F0CD102D12C
:1003B000DF91CF910895CF93FBD080EA04D180E004
:1003C00002D1C82FF7D08C2FCF9108951F93CF93D0
:1003D000DF93182FD62FC42FEBD085E0F4D0812FD8
:1003E000F2D08D2FF0D08C2FEED0E4D0DF91CF91D2
:1003F0001F910895BADF61E08AE2CEDF61E189E210
:10040000CBDF62E088E2C8DF40E660E680E6DEDF60
:1004100040E660E680E7DADF40E060EE8FE0D6CFCE
:100420000895CF93DF93CDB7DEB72A970FB6F89430
:10043000DEBF0FBECDBFF894BFD02BD120E032E09D
:1004400044E150E061E070E08EE092E07BD12ADF91
:1004500020E032E045E050E061E070E08BE392E0C4
:1004600071D120E032E044E150E061E070E083E2ED
:1004700092E068D16ED020E032E048E050E061E0E8
:1004800070E088E392E05ED120E032E043E150E0AA
:1004900061E070E081E492E055D14CDF20E032E091
:1004A00045E050E061E070E08BE392E04BD178945E
:1004B000C12C0F2EFEE5EF2EF2E0FF2EF02D0DE603
:1004C00012E060E0CE010196F5DE8981882321F0FB
:1004D000813059F4CB8009C020E032E048E050E0A0
:1004E00061E070E085E592E02DD12DDF8093C403BB
:1004F0009093C5039F938F93FF92EF9280E092E0D9
:100500009F938F93DED0DC2C0F900F900F900F9065
:100510000F900F90CC201CF4DD24D394DC0CD594E8
:100520002D2D332727FD3095205E3F4F3F932F938E
:100530001F930F9320E032E03F932F93C2D080E2CD
:100540008D0D21D00F900F900F900F900F900F9066
:10055000B8CF259A80E49CE9909387008093860029
:10056000E1E8F0E082E08083808188618083E0E8D8
:10057000F0E080818268808388EB9BE09093890023
:10058000809388000895853690F490E09C01220FB6
:10059000331F820F931F880F991F880F991F880F91
:1005A000991F885F984F90938900809388000895E1
:1005B0002F9808952F9A089584B1876884B9239855
:1005C0008FE58CBD08958EBD0DB407FEFDCF8EB5B1
:1005D0000895E0ECF0E0908195FFFDCF8093C60098
:1005E00080E090E008951F920F920FB60F921124B1
:1005F0000BB60F922F933F934F938F939F93EF934D
:10060000FF93F8944091C6008091C2039091C30378
:100610002091C0033091C10301968F779078992380
:1006200024F4019780689F6F019682179307C1F0A9
:10063000E091C203F091C303EA53FC4F40838091E1
:10064000C2039091C30301968F779078992324F485
:10065000019780689F6F01969093C3038093C203B4
:100660007894FF91EF919F918F914F913F912F91AE
:100670000F900BBE0F900FBE0F901F9018951F92FA
:100680000F920FB60F9211240F900FBE0F901F9074
:100690001895F89487E68093C4001092C500E1ECA9
:1006A000F0E08081886D8083E2ECF0E080818F77DC
:1006B000808380818F7E80838081877F8083789410
:1006C0000895CF93DF93CDB7DEB7AE01465F5F4F9E
:1006D000688579858E819F8177D0DF91CF9108954C
:1006E0000F931F93CF93DF93182F092FEB018B816B
:1006F00081FD03C08FEF9FEF20C082FF10C04E81AD
:100700005F812C813D81421753077CF4E881F98198
:100710009F012F5F3F4F39832883108306C0E885F0
:10072000F985812F1995892B29F72E813F812F5F1C
:100730003F4F3F832E83812F902FDF91CF911F91C9
:100740000F9108958F929F92AF92BF92CF92DF92B6
:10075000EF92FF920F931F93CF93DF936B014A01A8
:100760007901D90113962C9121FF1DC0C0E0D0E082
:10077000C815D905D9F08C015C01AC0CBD1CC801B1
:100780000A151B0571F00F5F1F4FD7011896ED91E9
:10079000FC911997B701DC018C911995892B79F39C
:1007A00005C02196E5CF80E090E001C0CE01DF9149
:1007B000CF911F910F91FF90EF90DF90CF90BF905E
:1007C000AF909F908F9008952F923F924F925F929B
:1007D0006F927F928F929F92AF92BF92CF92DF9251
:1007E000EF92FF920F931F93CF93DF93CDB7DEB7B6
:1007F0002C970FB6F894DEBF0FBECDBF7C016B0106
:100800008A01FC0117821682838181FFB0C1CE016B
:1008100001964C01F7019381F60193FD859193FFB9
:1008200081916F01882309F49EC1853239F493FDCB
:10083000859193FF81916F01853221F4B70190E09A
:100840004FDFE8CF512C312C20E02032A0F48B3246
:1008500069F030F4803259F0833269F420612CC0A1
:100860008D3239F0803339F4216026C02260246053
:1008700023C0286021C027FD27C030ED380F3A3053
:1008800078F426FF06C0FAE05F9E300D1124532E47
:1008900013C08AE0389E300D1124332E20620CC024
:1008A0008E3221F426FD5FC1206406C08C3611F41F
:1008B000206802C0883641F4F60193FD859193FFCC
:1008C00081916F018111C1CF982F9F7D95549330F5
:1008D00028F40C5F1F4FFFE3F9830DC0833631F01E
:1008E000833771F0833509F057C021C0F80180814A
:1008F00089830E5F1F4F44244394512C540114C02C
:100900003801F2E06F0E711CF801A080B18026FF63
:1009100003C0652D70E002C06FEF7FEFC5012C872B
:100920004CD12C0183012C852F77222E16C0380143
:10093000F2E06F0E711CF801A080B18026FF03C0A9
:10094000652D70E002C06FEF7FEFC5012C872AD1C3
:100950002C012C852068222E830123FC19C0832DB5
:1009600090E048165906A0F4B70180E290E0B8DEA6
:100970003A94F5CFF50127FC859127FE81915F011F
:10098000B70190E0ADDE31103A94F1E04F1A510812
:100990004114510479F7DEC0843611F0893631F5FF
:1009A000F80127FF07C060817181828193810C5F0C
:1009B0001F4F08C060817181882777FD8095982F2F
:1009C0000E5F1F4F2F76B22E97FF09C0909580952E
:1009D000709561957F4F8F4F9F4F2068B22E2AE010
:1009E00030E0A401F5D0A82EA81843C0853729F41B
:1009F0002F7EB22E2AE030E025C0F22FF97FBF2EE5
:100A00008F36C1F018F4883579F0ADC0803719F011
:100A1000883721F0A8C02F2F2061B22EB4FE0DC060
:100A20008B2D8460B82E09C024FF0AC09F2F9660CA
:100A3000B92E06C028E030E005C020E130E002C059
:100A400020E132E0F801B7FE07C060817181828148
:100A500093810C5F1F4F06C06081718180E090E040
:100A60000E5F1F4FA401B4D0A82EA818FB2DFF774E
:100A7000BF2EB6FE0BC02B2D2E7FA51450F4B4FE56
:100A80000AC0B2FC08C02B2D2E7E05C07A2C2B2D5F
:100A900003C07A2C01C0752C24FF0DC0FE01EA0DA5
:100AA000F11D8081803311F4297E09C022FF06C028
:100AB0007394739404C0822F867809F0739423FD95
:100AC00012C020FF06C05A2C731418F4530C571888
:100AD000732C731460F4B70180E290E02C8700DE81
:100AE00073942C85F6CF731410F4371801C0312C91
:100AF00024FF11C0B70180E390E02C87F1DD2C8545
:100B000022FF16C021FF03C088E590E002C088E7FD
:100B100090E0B7010CC0822F867851F021FD02C011
:100B200080E201C08BE227FD8DE2B70190E0D8DDC5
:100B3000A51430F4B70180E390E0D2DD5A94F8CFE9
:100B4000AA94F401EA0DF11D8081B70190E0C8DD9F
:100B5000A110F6CF332009F45DCEB70180E290E01A
:100B6000BFDD3A94F7CFF7018681978102C08FEFFE
:100B70009FEF2C960FB6F894DEBF0FBECDBFDF916E
:100B8000CF911F910F91FF90EF90DF90CF90BF908A
:100B9000AF909F908F907F906F905F904F903F901D
:100BA0002F900895FC010590615070400110D8F716
:100BB000809590958E0F9F1F0895FC0161507040A5
:100BC00001900110D8F7809590958E0F9F1F089582
:100BD000FA01AA27283051F1203181F1E8946F936E
:100BE0006E7F6E5F7F4F8F4F9F4FAF4FB1E03ED014
:100BF000B4E03CD0670F781F891F9A1FA11D680FB2
:100C0000791F8A1F911DA11D6A0F711D811D911DE4
:100C1000A11D20D009F468943F912AE0269F112459
:100C20003019305D3193DEF6CF010895462F4770BD
:100C3000405D4193B3E00FD0C9F7F6CF462F4F7018
:100C4000405D4A3318F0495D31FD4052419302D076
:100C5000A9F7EACFB4E0A69597958795779567951C
:100C6000BA95C9F700976105710508959B01AC011C
:100C70000A2E06945795479537952795BA95C9F743
:100C8000620F731F841F951FA01D0895F894FFCF56
:100C90000000000200000000E902000000006361A3
:100CA0006E20696E6974207374617274696E672E48
:100CB0002E2E0070776D20696E69742073746172D6
:100CC00074696E672E2E2E002E2E2E646F6E650AAE
:100CD00000697220696E6974207374617274696E40
:100CE000672E2E2E00496E76616C69640A0061647D
:100CF000632076616C75653A2025690A0070776D0E
:0C0D000020647574793A2025690A00000F
:00000001FF
