S00D00004E6F6465322E737265635F
S1130000C2C00000E0C00000DEC00000DDC000008F
S1130010DAC00000D8C00000D6C00000D4C0000080
S1130020D2C00000D0C00000CEC00000CCC0000090
S1130030CAC00000C8C00000C6C00000C4C00000A0
S1130040C2C00000C0C00000BEC00000BCC00000B0
S1130050BAC00000B8C00000B6C000002FC3000042
S1130060B2C000005BC50000AEC00000A3C5000024
S1130070AAC00000A8C00000A6C00000A4C00000E0
S1130080A2C00000A0C000009EC000009CC00000F0
S11300909AC0000098C0000096C00000B2C40000DE
S11300A092C0000090C000008EC000008CC0000010
S11300B08AC0000088C0000086C0000084C0000020
S11300C082C0000080C000007EC000007CC0000030
S11300D07AC0000078C0000076C0000074C0000040
S11300E072C000001C056E056E056E056E056E057A
S11300F06E056E051C056E056E056E056E056E05B6
S11301006E056E051E056E056E056E056E056E05A3
S11301106E056E056E056E056E056E056E056E0543
S11301206E056E051E056E056E056E056E056E0583
S11301306E056E056E056E056E056E056E056E0523
S11301406E056E056A056E056E056E056E056E0517
S11301506E056E0547056E056E056E056E056E052A
S11301606E056E056E056E056E056E056E056E05F3
S11301706E056E053B056E056E056E056E056E0516
S11301806E056E05590511241FBECFEFD1E2DEBF07
S1130190CDBF00E00CBF12E0A0E0B2E0E8EFF1E177
S11301A000E00BBF02C007900D92AE3AB107D9F739
S11301B023E0AEEAB2E001C01D92A43FB207E1F72A
S11301C089D10C94FA081CCF1F920F920FB60F928C
S11301D011240BB60F92FF920F931F932F933F930B
S11301E04F935F936F937F938F939F93AF93BF933B
S11301F0EF93FF93CF93DF93CDB7DEB72E97DEBF98
S1130200CDBFF894198280E68A8380E98B8381E0EC
S11302108C832AD181FF08C081E0898380E78A83A7
S113022084E98B8382E08C83FE0135968AE0DF01CA
S11302301D928A95E9F78A818566F9D08F708E833D
S1130240A3D38B81ACD380E0AAD38D839FD39CD3DB
S11302508B818260A4D38E81882381F0F12C0F2DB1
S113026010E080E09CD3E7E0F0E0EC0FFD1FE00F2E
S1130270F11F8083F3948E81F81688F387D3298144
S1130280E981F0E0E055FD4F808190E0DC01AA0FA8
S1130290BB1F880F991F880F991F880F991FA80FDC
S11302A0B91F80E5289FA00DB11D1124AE54BD4F88
S11302B08AE0FE01359601900D928A95E1F7E98175
S11302C0F0E0A981B0E0A055BD4F8C9190E001967B
S11302D087709078E055FD4F80836C8140E08CE21C
S11302E0CED078942E960FB6F894DEBF0FBECDBF55
S11302F0DF91CF91FF91EF91BF91AF919F918F913A
S11303007F916F915F914F913F912F911F910F9129
S1130310FF900F900BBE0F900FBE0F901F9018957B
S1130320C2D043E063E08BE2AAD0EA9A50980895E1
S1130330CF93DF932AE0FC0111922A95E9F770E04C
S1130340FB01E055FD4F3081FB01E255FD4F20815B
S1130350321741F1EF01208130E0F901EE0FFF1F68
S1130360220F331F220F331F220F331FE20FF31FFD
S113037020E5269FA001279F500D1124E40FF51FAF
S1130380EE54FD4F2AE0DC0101900D922A95E1F72D
S1130390FC014081288130E02F5F3F4F2770307887
S11303A0288301C040E0FC014083DF91CF91089590
S11303B08AB183608AB9F9C20895CF93DF9300D0DC
S11303C0CDB7DEB719821A821B8290E59983880F14
S11303D08B8363E0CE010196F2D20F900F900F90C1
S11303E0DF91CF910895EAE7F0E080818760808310
S11303F08081806880830895ECE7F0E080818068E4
S11304008083EAE7F0E0808180648083808186FDD8
S1130410FDCF80917800909179000895B5D280EC59
S1130420BED2B4D280E08F5F8038E9F70895CF93CD
S1130430C82FAAD283E0B3D28C2FB1D280E0AFD23E
S1130440C82FA4D28C2FCF910895CF93DF93D82FA8
S1130450C62F9AD282E0A3D28D2FA1D28C2F9FD205
S113046095D2DF91CF910895CF938ED280EA97D21F
S113047080E095D2C82F8AD28C2FCF9108951F93F4
S1130480CF93DF93182FD62FC42F7ED285E087D247
S1130490812F85D28D2F83D28C2F81D277D2DF9179
S11304A0CF911F910895BADF61E08AE2CEDF61E166
S11304B089E2CBDF62E088E2C8DF40E660E680E6FE
S11304C0DEDF40E660E680E7DADF40E060EE8FE002
S11304D0D6CF0895CF93DF93CDB7DEB72A970FB663
S11304E0F894DEBF0FBECDBFF8946ED321E032E0A6
S11304F044E150E061E070E08FE092E0D7D348D26D
S11305000FDF21E032E045E050E061E070E08CE391
S113051092E0CCD321E032E044E150E061E070E0CD
S113052084E292E0C3D305D221E032E048E050E017
S113053061E070E089E392E0B9D321E032E043E185
S113054050E061E070E082E492E0B0D34CDF21E05F
S113055032E045E050E061E070E08CE392E0A6D345
S113056021E032E046E150E061E070E086E592E0AF
S11305709DD37BD021E032E045E050E061E070E0C3
S11305808CE392E093D378946C9A69D0F3D0D12C15
S11305900F2EFDE6EF2EF2E0FF2EF02D01E012E02B
S11305A05ED060E0CE010196C3DE8B8199819130EB
S11305B019F0923019F003C0D82E01C052D11CDFBB
S11305C099279F938F93FF92EF921F930F932DD3AD
S11305D08D2DDD2014F481E08D0D85958E5DC3D1C4
S11305E00F900F900F900F900F900F90D9CFCF9343
S11305F0DF931F921F92CDB7DEB7E2E0F1E0808176
S11306008F7D80838081877F80838AE68A95F1F756
S113061000C08091060190E0982F88279A838983EF
S11306208081886080838AE68A95F1F700C02091F2
S1130630060189819A81822B9A83898385E38A952D
S1130640F1F70000808180648083808180628083F0
S113065089819A810F900F90DF91CF910895E2E004
S1130660F1E08081806180830895A2DEE1E0F1E021
S113067080818A67808385B5856085BDA89AEEE60A
S1130680F0E080818160808340E150E061E070E0CF
S11306908CE593E00FD1E3CF0895882344F4E2E09E
S11306A0F1E090819D7F9083819587CE0895E2E06B
S11306B0F1E090819260908380CE08951F920F9212
S11306C00FB60F9211240BB60F922F933F934F93B3
S11306D05F936F937F938F939F93AF93BF93CF93C6
S11306E0DF93EF93FF93F894C6E5D3E08881998173
S11306F090935903809358037ADF99838883809178
S11307006403882301F1C2E5D3E088819981909341
S113071055038093540340915603509157036091BD
S11307205A0370915B038CE593E0D7D09983888357
S113073088819981992314F481589F4F880F892FB8
S1130740881F990BAADFA89A7894FF91EF91DF9103
S1130750CF91BF91AF919F918F917F916F915F9155
S11307604F913F912F910F900BBE0F900FBE0F90A2
S11307701F901895CF93DF9388E28FDF38DFEC0169
S11307802FEF81EE94E0215080409040E1F700C0CB
S113079000002DDF8C179D077CF429DFEC012FEF7F
S11307A081EE94E0215080409040E1F700C00000C9
S11307B01EDF8C179D078CF390936603809365036B
S11307C0809168038F93809167038F938DE792E004
S11307D09F938F9381E092E09F938F9326D288ED2D
S11307E05CDF05DFEC012FEF81EE94E021508040C7
S11307F09040E1F700C00000FADE0F900F900F90D8
S11308000F900F900F90C817D9077CF4F0DEEC011D
S11308102FEF81EE94E0215080409040E1F700C03A
S11308200000E5DEC817D9078CF390936803809322
S11308306703809166038F93809165038F938DE89E
S113084092E09F938F9381E092E09F938F93EDD1F9
S11308500F900F900F900F900F900F90DF91CF910A
S113086008950F931F93E0916703F0916803A0919B
S11308706503B0916603AE1BBF0B282F30E0CFD1C8
S11308808B019C01992324F401501F4F2F4F3F4F9C
S1130890BB2737FDBA95A32F922F812F8E0F9F1F51
S11308A090935B0380935A0381E0809364031F91C8
S11308B00F910895FC0171836083538342831582F1
S11308C014821782168221E032E04FE050E061E0AA
S11308D070E08DE992E0EAC10895FC01461B570BD4
S11308E05583448366817781640F751F778366839C
S11308F020813181429FC001439F900D529F900DF2
S1130900112442815381649F9001659F300D749F2F
S1130910300D1124332314F4215F3F4F359527956F
S1130920359527953595279535952795820F931FEE
S11309300895259A80E49CE990938700809386002B
S1130940E1E8F0E082E08083808188618083E0E8F0
S1130950F0E080818268808386E89BE09093890040
S113096080938800089588230CF480E085360CF089
S113097084E623E18202C00111248053984F9093AE
S113098089008093880008952F9808952F9A0895D8
S113099084B1876884B923988FE58CBD08958EBD92
S11309A00DB407FEFDCF8EB508958CE08093B8009A
S11309B08FEF8093BB0084E08093BC000895ECEB40
S11309C0F0E0208120FDFDCF60936B03FC012081CA
S11309D020936C0320FD0CC0623050F0DC011196B2
S11309E0EDE6F3E081E09D9191938F5F8613FBCF59
S11309F010926A0388EF8093000285EA8093BC001A
S1130A0008951F920F920FB60F9211240BB60F92F6
S1130A102F933F938F939F93AF93BF93EF93FF9342
S1130A208091B90090E0FC013897E135F10508F0B8
S1130A3055C0EE58FF4FDEC010926903E091690380
S1130A4080916B03E81770F481E08E0F8093690343
S1130A50F0E0E459FC4F80818093BB0085E88093EB
S1130A60BC0043C080916A03816080936A0384E977
S1130A708093BC003AC0E091690381E08E0F8093BB
S1130A8069038091BB00F0E0E459FC4F808320911E
S1130A90690330E080916B0390E0019728173907D0
S1130AA024F485EC8093BC0020C085E88093BC00CE
S1130AB01CC08091BB00E0916903F0E0E459FC4F55
S1130AC0808380916A03816080936A0384E98093C0
S1130AD0BC000BC085EA8093BC0007C08091B900BC
S1130AE08093000284E08093BC00FF91EF91BF915A
S1130AF0AF919F918F913F912F910F900BBE0F90CB
S1130B000FBE0F901F901895E0ECF0E0908195FFD8
S1130B10FDCF8093C60080E090E008951F920F926D
S1130B200FB60F9211240BB60F922F933F934F934E
S1130B308F939F93EF93FF93F8944091C600809115
S1130B4072039091730320917003309171030196A5
S1130B508F779078992324F4019780689F6F01968A
S1130B6082179307C1F0E0917203F0917303EC587C
S1130B70FC4F4083809172039091730301968F77A9
S1130B809078992324F4019780689F6F019690933D
S1130B907303809372037894FF91EF919F918F91E7
S1130BA04F913F912F910F900BBE0F900FBE0F905E
S1130BB01F9018951F920F920FB60F9211240F9049
S1130BC00FBE0F901F90189587E68093C400109273
S1130BD0C500E1ECF0E08081886D8083E2ECF0E018
S1130BE080818F77808380818F7E80838081877FDF
S1130BF080830895EE0FFF1F0590F491E02D199462
S1130C00A29FB001B39FC001A39F700D811D112449
S1130C10911DB29F700D811D1124911D0895F0DF67
S1130C20B7FF0895821B930B0895CF93DF93CDB73D
S1130C30DEB7AE01465F5F4F688579858E819F81FF
S1130C4077D0DF91CF9108950F931F93CF93DF93C4
S1130C50182F092FEB018B8181FD03C08FEF9FEFCC
S1130C6020C082FF10C04E815F812C813D814217DC
S1130C7053077CF4E881F9819F012F5F3F4F39834B
S1130C802883108306C0E885F985812F1995892B5F
S1130C9029F72E813F812F5F3F4F3F832E83812F82
S1130CA0902FDF91CF911F910F9108958F929F9272
S1130CB0AF92BF92CF92DF92EF92FF920F931F9366
S1130CC0CF93DF936B014A017901D90113962C91DB
S1130CD021FF1DC0C0E0D0E0C815D905D9F08C01B2
S1130CE05C01AC0CBD1CC8010A151B0571F00F5F3B
S1130CF01F4FD7011896ED91FC911997B701DC01AC
S1130D008C911995892B79F305C02196E5CF80E064
S1130D1090E001C0CE01DF91CF911F910F91FF9020
S1130D20EF90DF90CF90BF90AF909F908F900895F9
S1130D302F923F924F925F926F927F928F929F92E7
S1130D40AF92BF92CF92DF92EF92FF920F931F93D5
S1130D50CF93DF93CDB7DEB72C970FB6F894DEBFF1
S1130D600FBECDBF7C016B018A01FC011782168284
S1130D70838181FFB0C1CE0101964C01F7019381BB
S1130D80F60193FD859193FF81916F01882309F406
S1130D909EC1853239F493FD859193FF81916F0152
S1130DA0853221F4B70190E04FDFE8CF512C312C8C
S1130DB020E02032A0F48B3269F030F4803259F014
S1130DC0833269F420612CC08D3239F0803339F4D8
S1130DD0216026C02260246023C0286021C027FD32
S1130DE027C030ED380F3A3078F426FF06C0FAE019
S1130DF05F9E300D1124532E13C08AE0389E300DAF
S1130E001124332E20620CC08E3221F426FD5FC1E2
S1130E10206406C08C3611F4206802C0883641F480
S1130E20F60193FD859193FF81916F018111C1CFEB
S1130E30982F9F7D9554933028F40C5F1F4FFFE348
S1130E40F9830DC0833631F0833771F0833509F0AF
S1130E5057C021C0F801808189830E5F1F4F44244D
S1130E604394512C540114C03801F2E06F0E711CEC
S1130E70F801A080B18026FF03C0652D70E002C098
S1130E806FEF7FEFC5012C874CD12C0183012C859A
S1130E902F77222E16C03801F2E06F0E711CF80174
S1130EA0A080B18026FF03C0652D70E002C06FEF03
S1130EB07FEFC5012C872AD12C012C852068222E96
S1130EC0830123FC19C0832D90E048165906A0F431
S1130ED0B70180E290E0B8DE3A94F5CFF50127FC43
S1130EE0859127FE81915F01B70190E0ADDE31105D
S1130EF03A94F1E04F1A51084114510479F7DEC0D5
S1130F00843611F0893631F5F80127FF07C0608176
S1130F107181828193810C5F1F4F08C06081718150
S1130F20882777FD8095982F0E5F1F4F2F76B22E5E
S1130F3097FF09C090958095709561957F4F8F4F6D
S1130F409F4F2068B22E2AE030E0A401F5D0A82EED
S1130F50A81843C0853729F42F7EB22E2AE030E04A
S1130F6025C0F22FF97FBF2E8F36C1F018F48835D3
S1130F7079F0ADC0803719F0883721F0A8C02F2F41
S1130F802061B22EB4FE0DC08B2D8460B82E09C032
S1130F9024FF0AC09F2F9660B92E06C028E030E0D7
S1130FA005C020E130E002C020E132E0F801B7FEE4
S1130FB007C060817181828193810C5F1F4F06C0DD
S1130FC06081718180E090E00E5F1F4FA401B4D076
S1130FD0A82EA818FB2DFF77BF2EB6FE0BC02B2D15
S1130FE02E7FA51450F4B4FE0AC0B2FC08C02B2D09
S1130FF02E7E05C07A2C2B2D03C07A2C01C0752CB3
S113100024FF0DC0FE01EA0DF11D8081803311F42F
S1131010297E09C022FF06C07394739404C0822FF2
S1131020867809F0739423FD12C020FF06C05A2C61
S1131030731418F4530C5718732C731460F4B70119
S113104080E290E02C8700DE73942C85F6CF731435
S113105010F4371801C0312C24FF11C0B70180E30C
S113106090E02C87F1DD2C8522FF16C021FF03C000
S113107088E590E002C088E790E0B7010CC0822FB9
S1131080867851F021FD02C080E201C08BE227FD89
S11310908DE2B70190E0D8DDA51430F4B70180E308
S11310A090E0D2DD5A94F8CFAA94F401EA0DF11D30
S11310B08081B70190E0C8DDA110F6CF332009F498
S11310C05DCEB70180E290E0BFDD3A94F7CFF7013F
S11310D08681978102C08FEF9FEF2C960FB6F8940C
S11310E0DEBF0FBECDBFDF91CF911F910F91FF9057
S11310F0EF90DF90CF90BF90AF909F908F907F90B4
S11311006F905F904F903F902F900895FC01059051
S1131110615070400110D8F7809590958E0F9F1FF5
S11311200895FC016150704001900110D8F780953A
S113113090958E0F9F1F0895FA01AA27283051F128
S1131140203181F1E8946F936E7F6E5F7F4F8F4FF4
S11311509F4FAF4FB1E03ED0B4E03CD0670F781F53
S1131160891F9A1FA11D680F791F8A1F911DA11D38
S11311706A0F711D811D911DA11D20D009F4689471
S11311803F912AE0269F11243019305D3193DEF619
S1131190CF010895462F4770405D4193B3E00FD0CF
S11311A0C9F7F6CF462F4F70405D4A3318F0495DBA
S11311B031FD4052419302D0A9F7EACFB4E0A6959D
S11311C09795879577956795BA95C9F700976105BF
S11311D0710508959B01AC010A2E06945795479515
S11311E037952795BA95C9F7620F731F841F951F0A
S10B11F0A01D0895F894FFCF3F
S11311F8F8000000020000000084050000000063FD
S1131208616E20696E6974207374617274696E67A3
S11312182E2E2E0070776D20696E697420737461A8
S11312287274696E672E2E2E002E2E2E646F6E65D4
S11312380A00697220696E69742073746172746932
S11312486E672E2E2E006D6F746F7220696E69742E
S1131258207374617274696E672E2E2E0061646344
S11312682076616C75653A202569090A00656E6304
S11312786F646572206D696E2025690A00656E6366
S11312886F646572206D61782025690A0070692091
S1111298696E697469616C697A65640A0000A4
S9030000FC
