S00D00004E6F6465322E737265635F
S1130000C2C00000E0C00000DEC00000DDC000008F
S1130010DAC00000D8C00000D6C00000D4C0000080
S1130020D2C00000D0C00000CEC00000CCC0000090
S1130030CAC00000C8C00000C6C00000C4C00000A0
S1130040C2C00000C0C00000BEC00000BCC00000B0
S1130050BAC00000B8C00000B6C0000071C3000000
S1130060B2C00000DEC50000AEC0000026C600001D
S1130070AAC00000A8C00000A6C00000A4C00000E0
S1130080A2C00000A0C000009EC000009CC00000F0
S11300909AC0000098C0000096C0000035C500005A
S11300A092C0000090C000008EC000008CC0000010
S11300B08AC0000088C0000086C0000084C0000020
S11300C082C0000080C000007EC000007CC0000030
S11300D07AC0000078C0000076C0000074C0000040
S11300E072C000009F05F105F105F105F105F10568
S11300F0F105F1059F05F105F105F105F105F1059E
S1130100F105F105A105F105F105F105F105F1058B
S1130110F105F105F105F105F105F105F105F1052B
S1130120F105F105A105F105F105F105F105F1056B
S1130130F105F105F105F105F105F105F105F1050B
S1130140F105F105ED05F105F105F105F105F105FF
S1130150F105F105CA05F105F105F105F105F10512
S1130160F105F105F105F105F105F105F105F105DB
S1130170F105F105BE05F105F105F105F105F105FE
S1130180F105F105DC0511241FBECFEFD1E2DEBF7E
S1130190CDBF00E00CBF13E0A0E0B2E0ECE0F6E17C
S11301A000E00BBF02C007900D92A631B107D9F74A
S11301B024E0A6E1B3E001C01D92A036B207E1F746
S11301C0A2D10C94040B1CCF1F920F920FB60F9266
S11301D011240BB60F92FF920F931F932F933F930B
S11301E04F935F936F937F938F939F93AF93BF933B
S11301F0EF93FF93CF93DF93CDB7DEB72E97DEBF98
S1130200CDBFF894198280E68A8380E98B8381E0EC
S11302108C8341D181FF08C081E0898380E78A8390
S113022084E98B8382E08C83FE0135968AE0DF01CA
S11302301D928A95E9F78A81856610D18F708E8325
S113024026D48B812FD480E02DD48D8322D41FD447
S11302508B81826027D48E81882381F0F12C0F2D2D
S113026010E080E01FD4E7E0F0E0EC0FFD1FE00FAA
S1130270F11F8083F3948E81F81688F30AD42981C0
S1130280E981F0E0E85EFC4F808190E0DC01AA0F98
S1130290BB1F880F991F880F991F880F991FA80FDC
S11302A0B91F80E5289FA00DB11D1124A65EBC4F87
S11302B08AE0FE01359601900D928A95E1F7E98175
S11302C0F0E0A981B0E0A85EBC4F8C9190E001966B
S11302D087709078E85EFC4F80836C8140E08CE20C
S11302E0E5D078942E960FB6F894DEBF0FBECDBF3E
S11302F0DF91CF91FF91EF91BF91AF919F918F913A
S11303007F916F915F914F913F912F911F910F9129
S1130310FF900F900BBE0F900FBE0F901F9018957B
S1130320D9D043E063E08BE2C1D0EA9A50980895B3
S1130330CF93DF932AE0FC0111922A95E9F770E04C
S1130340FB01E85EFC4F3081FB01EA5EFC4F20813B
S1130350321741F1EF01208130E0F901EE0FFF1F68
S1130360220F331F220F331F220F331FE20FF31FFD
S113037020E5269FA001279F500D1124E40FF51FAF
S1130380E65EFC4F2AE0DC0101900D922A95E1F72C
S1130390FC014081288130E02F5F3F4F2770307887
S11303A0288301C040E0FC014083DF91CF91089590
S11303B08AB183608AB97CC30895CF93DF9300D058
S11303C0CDB7DEB719821A821B8290E59983882300
S11303D01CF48FEF8B8302C0880F8B838B811F9259
S11303E08F938FE092E09F938F9381E092E09F93AD
S11303F08F9325D663E0CE01019664D30F900F90BE
S11304000F900F900F900F900F900F900F90DF911F
S1130410CF910895EAE7F0E080818760808380814E
S1130420806880830895ECE7F0E0808180688083B1
S1130430EAE7F0E0808180648083808186FDFDCFDF
S11304408091780090917900089521D380EC2AD38B
S113045020D380E08F5F8038E9F70895CF93C82FC9
S113046016D383E01FD38C2F1DD380E01BD3C82F5A
S113047010D38C2FCF910895CF93DF93D82FC62F0D
S113048006D382E00FD38D2F0DD38C2F0BD301D342
S1130490DF91CF910895CF93FAD280EA03D380E01D
S11304A001D3C82FF6D28C2FCF9108951F93CF93E9
S11304B0DF93182FD62FC42FEAD285E0F3D2812FF1
S11304C0F1D28D2FEFD28C2FEDD2E3D2DF91CF91E9
S11304D01F910895BADF61E08AE2CEDF61E189E22B
S11304E0CBDF62E088E2C8DF40E660E680E6DEDF7C
S11304F040E660E680E7DADF40E060EE8FE0D6CFEA
S113050008956C9A0895CF93DF93CDB7DEB72A97F9
S11305100FB6F894DEBF0FBECDBFF894D8D321E058
S113052032E041E150E061E070E088E292E0C8D559
S113053021E032E044E150E061E070E08AE392E0DF
S1130540BFD5A9D2EDDE21E032E045E050E061E024
S113055070E087E692E0B4D521E032E044E150E077
S113056061E070E08FE492E0ABD566D221E032E046
S113057048E050E061E070E084E692E0A1D521E03B
S113058032E043E150E061E070E08DE692E098D51E
S113059041DF21E032E045E050E061E070E087E6D1
S11305A092E08ED521E032E046E150E061E070E077
S11305B081E892E085D593D021E032E045E050E037
S11305C061E070E087E692E07BD521E032E049E12A
S11305D050E061E070E088E992E072D592DF21E0BA
S11305E032E045E050E061E070E087E692E068D5F3
S11305F078946FD01BD100E010E0F12C6AD060E059
S1130600CE01019695DE8B819981923031F0943040
S113061031F0913069F4F82E0BC07FD109C021E08C
S113062032E04BE150E061E070E082EB92E048D5CB
S1130630FADE0F5F1F4F1F700115110549F421E009
S113064032E047E150E061E070E08EEC92E038D5B2
S11306508F2DFF2014F481E08F0D85958E5D06D2D9
S1130660CDCFCF93DF931F921F92CDB7DEB7E2E0D9
S1130670F1E080818F7D80838081877F80838AE61B
S11306808A95F1F700C08091060190E0982F8827A1
S11306909A8389838081886080838AE68A95F1F7CA
S11306A000C02091060189819A81822B9A838983D3
S11306B085E38A95F1F700008081806480838081DE
S11306C08062808389819A810F900F90DF91CF910E
S11306D00895E2E0F1E080818061808308950F93C2
S11306E01F9366DEE1E0F1E080818A67808385B54F
S11306F0856085BDA89AEEE6F0E080818160808304
S11307000DEC1CEC2CEC3DE340E050E060E87FE3B2
S113071080EC93E02BD1DDDF1F910F9108958823A6
S113072044F4E2E0F1E090819D7F9083819545CE91
S11307300895E2E0F1E09081926090833ECE0895C6
S11307401F920F920FB60F9211240BB60F92CF92F5
S1130750DF92EF92FF920F931F932F933F934F9348
S11307605F936F937F938F939F93AF93BF93CF9335
S1130770DF93EF93FF93F8948091BA039091BB03B6
S1130780ECEBF3E091838083C081D1816ADF9E0129
S1130790DD2314F42D5F3F4F359527953595279527
S11307A0280F391F3093BB032093BA038091D003E1
S11307B08823F9F06091BA037091BB03C091BE0322
S11307C0D091BF03882777FD8095982F2ED36B0196
S11307D07C01BE01882777FD8095982F26D3AB0135
S11307E0BC019701860180EC93E0DFD0EBD2862F29
S11307F096DFA89A7894FF91EF91DF91CF91BF9102
S1130800AF919F918F917F916F915F914F913F91A4
S11308102F911F910F91FF90EF90DF90CF900F9049
S11308200BBE0F900FBE0F901F901895CF93DF93C0
S113083088E275DF16DFEC012FEF81EE94E02150A2
S113084080409040E1F700C000000BDF8C179D074B
S11308507CF407DFEC012FEF81EE94E0215080401F
S11308609040E1F700C00000FCDE8C179D078CF37C
S11308709093D2038093D1038091D4038F9380917A
S1130880D3038F9386EE92E09F938F9381E092E05F
S11308909F938F93D4D388ED42DFE3DEEC012FEFF7
S11308A081EE94E0215080409040E1F700C00000C8
S11308B0D8DE0F900F900F900F900F900F90C817E5
S11308C0D9077CF4CEDEEC012FEF81EE94E02150C9
S11308D080409040E1F700C00000C3DEC817D9078C
S11308E08CF39093D4038093D3038091D2038F939A
S11308F08091D1038F9386EF92E09F938F9381E051
S113090092E09F938F939BD30F900F900F900F9033
S11309100F900F90DF91CF9108950F931F93E09163
S1130920D303F091D403A091D103B091D203AE1BB1
S1130930BF0B282F30E07DD38B019C01992324F435
S113094001501F4F2F4F3F4FBB2737FDBA95A32FA1
S1130950922F812F8E0F9F1F9093BF038093BE030E
S113096081E08093D0031F910F9108950F931F93FB
S1130970FC0140835183628373830483158326833C
S1130980378310861186128613861486158616867A
S1130990178621E032E04FE050E061E070E086E04D
S11309A093E08ED31F910F9108958F929F92AF92EF
S11309B0BF92CF92DF92EF92FF920F931F93CF9348
S11309C0DF93EC016A017B01C901B801A70196011B
S11309D094D16B017C01688779878A879B872C85F2
S11309E03D854E855F858AD14B015C016C877D878F
S11309F08E879F87288139814A815B81C701B6012F
S1130A00A0D26B017C012C813D814E815F81C501A7
S1130A10B40197D29B01AC01C701B6016FD1DF913C
S1130A20CF911F910F91FF90EF90DF90CF90BF90E7
S1130A30AF909F908F900895259A80E49CE99093BD
S1130A40870080938600E1E8F0E082E08083808183
S1130A5088618083E0E8F0E080818268808386E8B2
S1130A609BE09093890080938800089588230CF478
S1130A7080E085360CF084E623E18202C001112473
S1130A808053984F909389008093880008952F98FD
S1130A9008952F9A089584B1876884B923988FE5BF
S1130AA08CBD08958EBD0DB407FEFDCF8EB508959F
S1130AB08CE08093B8008FEF8093BB0084E0809338
S1130AC0BC000895ECEBF0E0208120FDFDCF6093A5
S1130AD0D703FC0120812093D80320FD0CC0623091
S1130AE050F0DC011196E9EDF3E081E09D919193E2
S1130AF08F5F8613FBCF1092D60388EF809300029A
S1130B0085EA8093BC0008951F920F920FB60F924E
S1130B1011240BB60F922F933F938F939F93AF9310
S1130B20BF93EF93FF938091B90090E0FC01389755
S1130B30E135F10508F055C0EE58FF4F65C210923B
S1130B40D503E091D5038091D703E81770F481E0D1
S1130B508E0F8093D503F0E0E852FC4F80818093A0
S1130B60BB0085E88093BC0043C08091D6038160BC
S1130B708093D60384E98093BC003AC0E091D50306
S1130B8081E08E0F8093D5038091BB00F0E0E852A2
S1130B90FC4F80832091D50330E08091D70390E00F
S1130BA001972817390724F485EC8093BC0020C0F2
S1130BB085E88093BC001CC08091BB00E091D50304
S1130BC0F0E0E852FC4F80838091D60381608093EB
S1130BD0D60384E98093BC000BC085EA8093BC00F3
S1130BE007C08091B9008093000284E08093BC0028
S1130BF0FF91EF91BF91AF919F918F913F912F9171
S1130C000F900BBE0F900FBE0F901F901895E0EC45
S1130C10F0E0908195FFFDCF8093C60080E090E0E6
S1130C2008951F920F920FB60F9211240BB60F92D4
S1130C302F933F934F938F939F93EF93FF93F89446
S1130C404091C6008091DE039091DF032091DC0384
S1130C503091DD0301968F779078992324F40197DE
S1130C6080689F6F019682179307C1F0E091DE03BD
S1130C70F091DF03E052FC4F40838091DE039091BA
S1130C80DF0301968F779078992324F40197806885
S1130C909F6F01969093DF038093DE037894FF9116
S1130CA0EF919F918F914F913F912F910F900BBE98
S1130CB00F900FBE0F901F9018951F920F920FB6B2
S1130CC00F9211240F900FBE0F901F90189587E676
S1130CD08093C4001092C500E1ECF0E08081886D3F
S1130CE08083E2ECF0E080818F77808380818F7E47
S1130CF080838081877F808308955058BB27AA27EB
S1130D000ED0E5C0D6D030F0DBD020F031F49F3FD8
S1130D1011F41EF4CBC00EF4E095E7FBC1C0E92F3B
S1130D20E7D080F3BA17620773078407950718F0B2
S1130D3071F49EF5FFC00EF4E0950B2EBA2FA02D92
S1130D400B01B90190010C01CA01A0011124FF2774
S1130D50591B99F0593F50F4503E68F11A16F0406F
S1130D60A22F232F342F4427585FF3CF469537956E
S1130D702795A795F0405395C9F77EF41F16BA0B33
S1130D80620B730B840BBAF09150A1F0FF0FBB1FE1
S1130D90661F771F881FC2F70EC0BA0F621F731F2A
S1130DA0841F48F4879577956795B795F7959E3F87
S1130DB008F0B3CF9395880F08F09927EE0F979515
S1130DC08795089504D06894B111B5C0089598D05A
S1130DD088F09F5790F0B92F9927B751A0F0D1F020
S1130DE0660F771F881F991F1AF0BA95C9F712C0AA
S1130DF0B13081F09FD0B1E008959CC0672F782F67
S1130E008827B85F39F0B93FCCF386957795679515
S1130E10B395D9F73EF490958095709561957F4F81
S1130E208F4F9F4F0895E89409C097FB3EF4909527
S1130E308095709561957F4F8F4F9F4F9923A9F0AF
S1130E40F92F96E9BB279395F6958795779567953E
S1130E50B795F111F8CFFAF4BB0F11F460FF1BC082
S1130E606F5F7F4F8F4F9F4F16C0882311F096E915
S1130E7011C0772321F09EE8872F762F05C06623C3
S1130E8071F096E8862F70E060E02AF09A95660F7C
S1130E90771F881FDAF7880F9695879597F9089535
S1130EA097F99F6780E870E060E008959FEF80EC19
S1130EB0089500240A9416161706180609060895BC
S1130EC000240A9412161306140605060895092E22
S1130ED00394000C11F4882352F0BB0F40F4BF2B91
S1130EE011F460FF04C06F5F7F4F8F4F9F4F0895D1
S1130EF057FD9058440F551F59F05F3F71F04795C7
S1130F00880F97FB991F61F09F3F79F087950895AB
S1130F10121613061406551FF2CF4695F1DF08C0CA
S1130F20161617061806991FF1CF869571056105E7
S1130F3008940895E894BB2766277727CB0197F98F
S1130F4008950BD0C4CFB5DF28F0BADF18F095238D
S1130F5009F0A6CFABCF1124EECFCADFA0F3959F43
S1130F60D1F3950F50E0551F629FF001729FBB278C
S1130F70F00DB11D639FAA27F00DB11DAA1F649F38
S1130F806627B00DA11D661F829F2227B00DA11DEB
S1130F90621F739FB00DA11D621F839FA00D611D71
S1130FA0221F749F3327A00D611D231F849F600D92
S1130FB0211D822F762F6A2F11249F5750408AF0CB
S1130FC0E1F088234AF0EE0FFF1FBB1F661F771F57
S1130FD0881F91505040A9F79E3F510570F060CF93
S1130FE0AACF5F3FECF3983EDCF38695779567953F
S1130FF0B795F795E7959F5FC1F7FE2B880F911D75
S11310009695879597F90895EE0FFF1F0590F49133
S1131010E02D1994A29FB001B39FC001A39F700D4E
S1131020811D1124911DB29F700D811D1124911DEC
S11310300895F0DFB7FF0895821B930B0895CF93B3
S1131040DF93CDB7DEB7AE01465F5F4F6885798524
S11310508E819F8177D0DF91CF9108950F931F9355
S1131060CF93DF93182F092FEB018B8181FD03C0F0
S11310708FEF9FEF20C082FF10C04E815F812C81D3
S11310803D81421753077CF4E881F9819F012F5F6A
S11310903F4F39832883108306C0E885F985812F63
S11310A01995892B29F72E813F812F5F3F4F3F836D
S11310B02E83812F902FDF91CF911F910F9108954F
S11310C08F929F92AF92BF92CF92DF92EF92FF9254
S11310D00F931F93CF93DF936B014A017901D901D9
S11310E013962C9121FF1DC0C0E0D0E0C815D9058E
S11310F0D9F08C015C01AC0CBD1CC8010A151B05A0
S113110071F00F5F1F4FD7011896ED91FC9119975D
S1131110B701DC018C911995892B79F305C02196CF
S1131120E5CF80E090E001C0CE01DF91CF911F9127
S11311300F91FF90EF90DF90CF90BF90AF909F9072
S11311408F9008952F923F924F925F926F927F9269
S11311508F929F92AF92BF92CF92DF92EF92FF92C3
S11311600F931F93CF93DF93CDB7DEB72C970FB6B2
S1131170F894DEBF0FBECDBF7C016B018A01FC0178
S113118017821682838181FFB0C1CE0101964C0182
S1131190F7019381F60193FD859193FF81916F018E
S11311A0882309F49EC1853239F493FD859193FF18
S11311B081916F01853221F4B70190E04FDFE8CFD0
S11311C0512C312C20E02032A0F48B3269F030F421
S11311D0803259F0833269F420612CC08D3239F0A9
S11311E0803339F4216026C02260246023C0286043
S11311F021C027FD27C030ED380F3A3078F426FFA0
S113120006C0FAE05F9E300D1124532E13C08AE00D
S1131210389E300D1124332E20620CC08E3221F4FE
S113122026FD5FC1206406C08C3611F4206802C01C
S1131230883641F4F60193FD859193FF81916F0106
S11312408111C1CF982F9F7D9554933028F40C5F62
S11312501F4FFFE3F9830DC0833631F0833771F0FC
S1131260833509F057C021C0F801808189830E5F5E
S11312701F4F44244394512C540114C03801F2E00C
S11312806F0E711CF801A080B18026FF03C0652D8C
S113129070E002C06FEF7FEFC5012C874CD12C01A9
S11312A083012C852F77222E16C03801F2E06F0EB1
S11312B0711CF801A080B18026FF03C0652D70E089
S11312C002C06FEF7FEFC5012C872AD12C012C853A
S11312D02068222E830123FC19C0832D90E0481638
S11312E05906A0F4B70180E290E0B8DE3A94F5CF55
S11312F0F50127FC859127FE81915F01B70190E0FC
S1131300ADDE31103A94F1E04F1A51084114510402
S113131079F7DEC0843611F0893631F5F80127FFFC
S113132007C060817181828193810C5F1F4F08C067
S113133060817181882777FD8095982F0E5F1F4FFC
S11313402F76B22E97FF09C0909580957095619580
S11313507F4F8F4F9F4F2068B22E2AE030E0A401C8
S1131360F5D0A82EA81843C0853729F42F7EB22EB5
S11313702AE030E025C0F22FF97FBF2E8F36C1F06E
S113138018F4883579F0ADC0803719F0883721F02A
S1131390A8C02F2F2061B22EB4FE0DC08B2D846007
S11313A0B82E09C024FF0AC09F2F9660B92E06C02C
S11313B028E030E005C020E130E002C020E132E066
S11313C0F801B7FE07C060817181828193810C5F4F
S11313D01F4F06C06081718180E090E00E5F1F4F57
S11313E0A401B4D0A82EA818FB2DFF77BF2EB6FEFB
S11313F00BC02B2D2E7FA51450F4B4FE0AC0B2FCF2
S113140008C02B2D2E7E05C07A2C2B2D03C07A2CE0
S113141001C0752C24FF0DC0FE01EA0DF11D808171
S1131420803311F4297E09C022FF06C0739473949B
S113143004C0822F867809F0739423FD12C020FF24
S113144006C05A2C731418F4530C5718732C7314C5
S113145060F4B70180E290E02C8700DE73942C8561
S1131460F6CF731410F4371801C0312C24FF11C0C7
S1131470B70180E390E02C87F1DD2C8522FF16C0B4
S113148021FF03C088E590E002C088E790E0B7013F
S11314900CC0822F867851F021FD02C080E201C089
S11314A08BE227FD8DE2B70190E0D8DDA51430F47E
S11314B0B70180E390E0D2DD5A94F8CFAA94F40106
S11314C0EA0DF11D8081B70190E0C8DDA110F6CFCF
S11314D0332009F45DCEB70180E290E0BFDD3A9499
S11314E0F7CFF7018681978102C08FEF9FEF2C968B
S11314F00FB6F894DEBF0FBECDBFDF91CF911F9121
S11315000F91FF90EF90DF90CF90BF90AF909F909E
S11315108F907F906F905F904F903F902F900895A1
S1131520FC010590615070400110D8F780959095AA
S11315308E0F9F1F0895FC016150704001900110AF
S1131540D8F7809590958E0F9F1F0895FA01AA27CA
S1131550283051F1203181F1E8946F936E7F6E5FF2
S11315607F4F8F4F9F4FAF4FB1E03ED0B4E03CD0A0
S1131570670F781F891F9A1FA11D680F791F8A1F83
S1131580911DA11D6A0F711D811D911DA11D20D0EA
S113159009F468943F912AE0269F11243019305DA4
S11315A03193DEF6CF010895462F4770405D419395
S11315B0B3E00FD0C9F7F6CF462F4F70405D4A33E2
S11315C018F0495D31FD4052419302D0A9F7EACFAA
S11315D0B4E0A6959795879577956795BA95C9F7D9
S11315E000976105710508959B01AC010A2E0694CC
S11315F05795479537952795BA95C9F7620F731F85
S10F1600841F951FA01D0895F894FFCFCF
S113160CF80000000200000000070600000000764D
S113161C6F6C74616765206F7574205B302D323587
S113162C355D3A2025690A007561727420696E690A
S113163C7469616C697A65640A0063616E20696E11
S113164C6974207374617274696E672E2E2E007027
S113165C776D20696E6974207374617274696E6736
S113166C2E2E2E002E2E2E646F6E650A00697220AB
S113167C696E6974207374617274696E672E2E2E90
S113168C006D6F746F7220696E697420737461726B
S113169C74696E672E2E2E00736F6C656E6F6964A1
S11316AC20696E6974207374617274696E672E2E6E
S11316BC2E0047616D6520696E666F206D657373CE
S11316CC6167652072656369657665640A006E6F8F
S11316DC64652074776F207374696C6C2072756EFA
S11316EC6E696E670A00656E636F646572206D695E
S11316FC6E2025690A00656E636F646572206D61E6
S113170C782025690A00706920696E697469616CB6
S109171C697A65640A000D
S9030000FC
