:1000000037C0000051C000005BC000004DC00000C0
:100010004BC0000049C0000047C0000045C00000C0
:1000200043C0000041C000003FC000003DC00000D0
:100030003BC0000039C0000037C0000035C00000E0
:1000400033C000003EC400002FC00000A2C4000066
:100050002BC0000029C0000027C00000E1C4000040
:1000600023C0000021C000001FC000001DC0000010
:1000700011241FBECFEFD4E0DEBFCDBF11E0A0E062
:10008000B1E0E0E3F5E102C005900D92AE35B107B5
:10009000D9F722E0AEE5B1E001C01D92A639B20762
:1000A000E1F7DCD10C94960AABCF8A98929A089526
:1000B0008460809300118299FECF80910011089591
:1000C0001F920F920FB60F921124FF920F931F935E
:1000D0002F933F934F935F936F937F938F939F9350
:1000E000AF93BF93EF93FF93CF93DF93CDB7DEB77B
:1000F0002E97DEBFCDBFF894198280E68A8380E90F
:100100008B8381E08C8308D281FF08C081E08983E2
:1001100080E78A8384E98B8382E08C83E981F0E045
:10012000E05AFE4F2081E981F0E0E25AFE4F8081E3
:1001300030E02F5F3F4F2770307890E02817390765
:1001400009F459C0FE0135968AE0DF011D928A95B7
:10015000E9F78A818566B3D18F708E83D5D38B8181
:10016000DED380E0DCD38D83D1D3CED38B8182608C
:10017000D6D38E81882381F0F12C0F2D10E080E002
:10018000CED3E7E0F0E0EC0FFD1FE00FF11F80831E
:10019000F3948E81F81688F3B9D32981E981F0E0D0
:1001A000E05AFE4F808190E0DC01AA0FBB1F880F50
:1001B000991F880F991F880F991FA80FB91F80E5F5
:1001C000289FA00DB11D1124AE59BE4F8AE0FE013B
:1001D000359601900D928A95E1F7E981F0E0A981C9
:1001E000B0E0A05ABE4F8C9190E001968770907855
:1001F000E05AFE4F80836C8140E08CE298D1789485
:100200002E960FB6F894DEBF0FBECDBFDF91CF9113
:10021000FF91EF91BF91AF919F918F917F916F91DE
:100220005F914F913F912F911F910F91FF900F90F0
:100230000FBE0F901F9018958ED143E063E08BE2C4
:1002400076D18BB780688BBF0895DF92EF92FF92D3
:100250000F931F93CF93DF93CDB7DEB72A970FB6D7
:10026000F894DEBF0FBECDBF0983D12E1A832B8336
:100270003C834D835E836F83788789879A8781E08B
:10028000E81649F0E2E0EE1619F000E410E305C0CC
:1002900004E410E502C002E410E46D2D812F8560B6
:1002A0001CD160E0812F826018D16981812F81602B
:1002B00014D12AD3802F816032D3DD2059F08E01F2
:1002C0000D5F1F4FF12CF80181918F0128D3F3941A
:1002D000FD10F9CF1BD38E2D0FD12A960FB6F894AF
:1002E000DEBF0FBECDBFDF91CF911F910F91FF9069
:1002F000EF90DF900895682F70E080E090E040D4A8
:100300002DEC38EC48E45FE3C9D420E030E048EC61
:1003100052E4A0D304D4862F0895282F30E0285625
:1003200031092133310538F4262F30E028563109C0
:100330002133310510F190E08058910970E0605848
:1003400071099B01772324F422273327261B370BBF
:1003500028173907A4F031952195310982179307A1
:1003600084F09C01992324F422273327281B390B7E
:100370002617370744F482E0089584E0089581E069
:10038000089580E0089583E00895EF92FF920F931F
:100390001F93CF93DF93CDB7DEB72A970FB6F894AC
:1003A000DEBF0FBECDBF81E083DE182F80E080DE90
:1003B000F82E682F812FB1DF082F812F9CDF182F97
:1003C0008F2D99DF95B121E092279170FE01319632
:1003D0003AE0DF011D923A95E9F729831B838C836C
:1003E0000D839E8324E02A831F929F931F920F9375
:1003F000282F332727FD30953F938F93212F3327C5
:1004000027FD30953F931F9384E291E09F938F9354
:1004100086E191E09F938F93DAD5E12C09811A81CF
:100420002B813C814D815E816F81788589859A859C
:100430000CDF0FB6F894DEBF0FBECDBF2A960FB605
:10044000F894DEBF0FBECDBFDF91CF911F910F910A
:10045000FF90EF900895389A30980895F89485B7F2
:10046000806885BF80B7806280BFE4D280E098E179
:10047000909303018093020180E090E29093010148
:100480008093000112DE45D1D4D042D2D5DE7894DB
:1004900086E191E0909393028093920288E091E04C
:1004A000909391028093900270DFFECF2DD280EC6A
:1004B00036D22CD280E08F5F8038E9F70895CF9351
:1004C000C82F22D283E02BD28C2F29D280E027D2D2
:1004D000C82F1CD28C2FCF910895CF93DF93D82FA4
:1004E000C62F12D282E01BD28D2F19D28C2F17D299
:1004F0000DD2DF91CF910895CF93C82F05D221E07F
:1005000030E0C90102C0880F991FCA95E2F78068E0
:1005100006D2FCD1CF910895CF93F6D180EAFFD1D6
:1005200080E0FDD1C82FF2D18C2FCF9108951F9379
:10053000CF93DF93182FD62FC42FE6D185E0EFD1CC
:10054000812FEDD18D2FEBD18C2FE9D1DFD1DF9130
:10055000CF911F910895AADF61E08AE2BEDF61E1D9
:1005600089E2BBDF62E088E2B8DF40E660E680E671
:10057000DEDF40E660E680E7DADF40E060EE8FE055
:10058000D6CF08950895CF92DF92EF92FF920F9306
:100590001F93CF93DF936C01EB017A0189E290E026
:1005A000E0D38C01FC0188E111928150E9F747E129
:1005B00050E0B601C801FCD4F80180E0108E178A23
:1005C0008F5F32968730D1F7209741F4F80116A358
:1005D00005A3F0A6E7A2802F912F22C0F801D6A391
:1005E000C5A38F89988D892B41F0FE0121E030E071
:1005F000818D928D892B61F402C020E030E0220FC2
:10060000331FC20FD31F188F0F8B802F912F08C05D
:100610002F5F3F4F32962730310551F780E090E051
:10062000DF91CF911F910F91FF90EF90DF90CF90CE
:100630000895CF93DF930FDF40E050E060E070E07B
:100640008BE391E0A0DFEC0190930502809304021C
:1006500042EC52E0BC0183E491E095DF42EC52E0D1
:10066000BE018BE491E08FDFD0930302C0930202BE
:10067000DF91CF91089589B7826089BF83B7856084
:1006800083BF87E281BF089510920702109206028D
:10069000089500C000C0000091E29093001000C0D7
:1006A00000C000001092001000C000C000009FE7D2
:1006B0009093001000C000C0000092E290930010E0
:1006C00000C000C000001092001000C000C0000078
:1006D00097E09093001060E070E0A0E090E015C01B
:1006E000A901460F571FE0910601F0910701E40FA1
:1006F000F51F80832F5F3F4F2038310589F7605801
:100700007F4F611524E0720719F02A2F392FE8CFA7
:100710000895F89400C000C000008EEA8093001095
:1007200000C000C0000081EA8093001000C000C03B
:1007300000008AED8093001000C000C0000082E13C
:100740008093001000C000C0000088EC809300106F
:1007500000C000C0000088EA8093001000C000C004
:1007600000008FE38093001000C000C0000085ED02
:100770008093001000C000C0000080E8809300104B
:1007800000C000C0000081E88093001000C000C0DD
:10079000000080E58093001000C000C0000089EDDB
:1007A0008093001000C000C0000081E28093001020
:1007B00000C000C0000080E28093001000C000C0B4
:1007C00000001092001000C000C000008BED80936C
:1007D000001000C000C0000080E38093001000C043
:1007E00000C000008DEA8093001000C000C000002F
:1007F0001092001000C000C0000084EA8093001036
:1008000000C000C0000086EA8093001000C000C055
:1008100000008FEA8093001080E03BDF35DF2BCFB4
:10082000089500C000C0000081E28093001000C065
:1008300000C000001092001000C000C000008FE750
:100840008093001000C000C0000082E2809300107E
:1008500000C000C000001092001000C000C00000E6
:1008600087E08093001000C000C0000010920010CC
:1008700000C000C0000080E18093001040E050E024
:1008800070E060E0A1E0B0E118C09C01240F351FCA
:10089000E0910601F0910701E20FF31F208100C0F3
:1008A00000C000002C9301968038910571F74058E4
:1008B0005F4F411584E0580719F0872F962FE5CF39
:1008C00008951F920F920FB60F9211242F933F930A
:1008D0004F935F936F937F938F939F93AF93BF9348
:1008E000EF93FF939EDFFF91EF91BF91AF919F91A7
:1008F0008F917F916F915F914F913F912F910F90C9
:100900000FBE0F901F901895C4980895C49A08952B
:1009100087B3806B87BBBE988DE58DB908958FB97D
:10092000779BFECF8FB108955D9BFECF8CB980E0A1
:1009300090E0089520910A0230910B028091080204
:10094000909109022817390711F1809108029091BE
:1009500009029C012F5F3F4F309309022093080248
:10096000FC01E45FFD4F8081209108023091090273
:100970002F773078332334F42150310920683F6FCA
:100980002F5F3F4F3093090220930802089580E0C3
:1009900008951F920F920FB60F9211242F933F9339
:1009A0004F938F939F93EF93FF93F8944CB1809163
:1009B0000A0290910B0220910802309109020196DF
:1009C0008F779078992324F4019780689F6F019620
:1009D00082179307C1F0E0910A02F0910B02E45FE5
:1009E000FD4F408380910A0290910B0201968F7710
:1009F0009078992324F4019780689F6F01969093D3
:100A00000B0280930A027894FF91EF919F918F914E
:100A10004F913F912F910F900FBE0F901F901895FF
:100A20001F920F920FB60F9211240F900FBE0F90CE
:100A30001F9018958FE189B910BC8AB1886D8AB969
:100A400080B58F7B80BD80B58F7E80BD80B5877F70
:100A500080BD08955058BB27AA270ED0E5C0D6D038
:100A600030F0DBD020F031F49F3F11F41EF4CBC006
:100A70000EF4E095E7FBC1C0E92FE7D080F3BA1789
:100A8000620773078407950718F071F49EF5FFC09D
:100A90000EF4E0950B2EBA2FA02D0B01B901900199
:100AA0000C01CA01A0011124FF27591B99F0593FDD
:100AB00050F4503E68F11A16F040A22F232F342F25
:100AC0004427585FF3CF469537952795A795F04073
:100AD0005395C9F77EF41F16BA0B620B730B840B88
:100AE000BAF09150A1F0FF0FBB1F661F771F881F40
:100AF000C2F70EC0BA0F621F731F841F48F4879598
:100B000077956795B795F7959E3F08F0B3CF939586
:100B1000880F08F09927EE0F97958795089504D0D0
:100B20006894B111B5C0089598D088F09F5790F09F
:100B3000B92F9927B751A0F0D1F0660F771F881F02
:100B4000991F1AF0BA95C9F712C0B13081F09FD041
:100B5000B1E008959CC0672F782F8827B85F39F0DF
:100B6000B93FCCF3869577956795B395D9F73EF461
:100B700090958095709561957F4F8F4F9F4F089509
:100B8000E89409C097FB3EF4909580957095619527
:100B90007F4F8F4F9F4F9923A9F0F92F96E9BB27DD
:100BA0009395F695879577956795B795F111F8CF59
:100BB000FAF4BB0F11F460FF1BC06F5F7F4F8F4FC4
:100BC0009F4F16C0882311F096E911C0772321F0BA
:100BD0009EE8872F762F05C0662371F096E8862F52
:100BE00070E060E02AF09A95660F771F881FDAF7A9
:100BF000880F9695879597F9089597F99F6780E8EC
:100C000070E060E008959FEF80EC089500240A945E
:100C10001616170618060906089500240A941216D7
:100C20001306140605060895092E0394000C11F40A
:100C3000882352F0BB0F40F4BF2B11F460FF04C0B7
:100C40006F5F7F4F8F4F9F4F089557FD9058440F10
:100C5000551F59F05F3F71F04795880F97FB991F1B
:100C600061F09F3F79F087950895121613061406D8
:100C7000551FF2CF4695F1DF08C016161706180665
:100C8000991FF1CF86957105610508940895E89440
:100C9000BB2766277727CB0197F908950BD0C4CFE0
:100CA000B5DF28F0BADF18F0952309F0A6CFABCF57
:100CB0001124EECFCADFA0F3959FD1F3950F50E03A
:100CC000551F629FF001729FBB27F00DB11D639FFE
:100CD000AA27F00DB11DAA1F649F6627B00DA11DA4
:100CE000661F829F2227B00DA11D621F739FB00D4A
:100CF000A11D621F839FA00D611D221F749F3327BA
:100D0000A00D611D231F849F600D211D822F762F52
:100D10006A2F11249F5750408AF0E1F088234AF04F
:100D2000EE0FFF1FBB1F661F771F881F915050409B
:100D3000A9F79E3F510570F060CFAACF5F3FECF35B
:100D4000983EDCF3869577956795B795F795E79587
:100D50009F5FC1F7FE2B880F911D9695879597F998
:100D60000895CF93DF938230910510F482E090E0F4
:100D7000E0918E02F0918F0220E030E0A0E0B0E040
:100D8000309739F14081518148175907B8F0481719
:100D9000590771F482819381109729F013969C93DF
:100DA0008E9312972CC090938F0280938E0227C04F
:100DB0002115310531F04217530718F0A901DB0165
:100DC00001C0EF019A01BD01DF010280F381E02D36
:100DD000D7CF21153105F9F0281B390B2430310507
:100DE00080F48A819B816115710521F0FB01938359
:100DF000828304C090938F0280938E02FE0132960C
:100E000044C0FE01E20FF31F8193919322503109F8
:100E1000398328833AC020918C0230918D02232B94
:100E200041F4209102013091030130938D0220930F
:100E30008C0220910001309101012115310541F40E
:100E40002DB73EB74091040150910501241B350B8D
:100E5000E0918C02F0918D02E217F307A0F42E1BB3
:100E60003F0B2817390778F0AC014E5F5F4F24170E
:100E7000350748F04E0F5F1F50938D0240938C0250
:100E80008193919302C0E0E0F0E0CF01DF91CF9138
:100E90000895CF93DF93009709F487C0FC01329740
:100EA00013821282C0918E02D0918F02209781F41A
:100EB00020813181280F391F80918C0290918D0201
:100EC0008217930779F5F0938D02E0938C026DC041
:100ED000DE0120E030E0AE17BF0750F412964D91CE
:100EE0005C9113979D014115510509F1DA01F3CF8A
:100EF000B383A28340815181840F951F8A179B077A
:100F000071F48D919C911197840F951F0296918396
:100F1000808312968D919C911397938382832115E0
:100F2000310529F4F0938F02E0938E023EC0D9017F
:100F30001396FC93EE9312974D915D91A40FB51FFC
:100F4000EA17FB0779F480819181840F951F02963F
:100F5000D90111969C938E938281938113969C93D1
:100F60008E931297E0E0F0E08A819B81009719F060
:100F7000FE01EC01F9CFCE01029628813981820F62
:100F8000931F20918C0230918D022817390769F444
:100F9000309729F410928F0210928E0202C01382B1
:100FA0001282D0938D02C0938C02DF91CF9108956D
:100FB000FB01DC014150504048F001900D920020AF
:100FC000C9F701C01D9241505040E0F70895A0E0DC
:100FD000B0E0ECEEF7E083C2AE01475F5F4F6F8198
:100FE00078858D819E8134D0E2E095C20F931F9366
:100FF000CF93DF93182F092FEB018B8181FD03C065
:101000008FEF9FEF20C082FF10C04E815F812C8147
:101010003D81421753077CF4E881F9819F012F5FDE
:101020003F4F39832883108306C0E885F985812FD7
:101030000995892B29F72E813F812F5F3F4F3F83F1
:101040002E83812F902FDF91CF911F910F910895C3
:10105000ACE0B0E0EDE2F8E032C27C016B018A0165
:10106000FC0117821682838181FFB0C1CE010196F7
:101070004C01F7019381F60193FD859193FF8191D6
:101080006F01882309F49EC1853239F493FD85915F
:1010900093FF81916F01853221F4B70190E0A6DFC3
:1010A000E8CF512C312C20E02032A0F48B3269F0B3
:1010B00030F4803259F0833269F420612CC08D32D3
:1010C00039F0803339F4216026C02260246023C0C7
:1010D000286021C027FD27C030ED380F3A3078F462
:1010E00026FF06C0FAE05F9E300D1124532E13C078
:1010F0008AE0389E300D1124332E20620CC08E32CF
:1011000021F426FD5FC1206406C08C3611F42068EE
:1011100002C0883641F4F60193FD859193FF8191D9
:101120006F018111C1CF982F9F7D9554933028F482
:101130000C5F1F4FFFE3F9830DC0833631F0833717
:1011400071F0833509F057C021C0F801808189838F
:101150000E5F1F4F44244394512C540114C0380196
:10116000F2E06F0E711CF801A080B18026FF03C071
:10117000652D70E002C06FEF7FEFC5012C8736D17F
:101180002C0183012C852F77222E16C03801F2E026
:101190006F0E711CF801A080B18026FF03C0652D81
:1011A00070E002C06FEF7FEFC5012C8714D12C01D6
:1011B0002C852068222E830123FC19C0832D90E00A
:1011C00048165906A0F4B70180E290E00FDF3A9488
:1011D000F5CFF50127FC859127FE81915F01B701CD
:1011E00090E004DF31103A94F1E04F1A51084114B5
:1011F000510479F7DEC0843611F0893631F5F801F3
:1012000027FF07C060817181828193810C5F1F4F2E
:1012100008C060817181882777FD8095982F0E5FC7
:101220001F4F2F76B22E97FF09C09095809570952D
:1012300061957F4F8F4F9F4F2068B22E2AE030E09C
:10124000A401DFD0A82EA81843C0853729F42F7E2B
:10125000B22E2AE030E025C0F22FF97FBF2E8F3664
:10126000C1F018F4883579F0ADC0803719F08837AF
:1012700021F0A8C02F2F2061B22EB4FE0DC08B2DFF
:101280008460B82E09C024FF0AC09F2F9660B92E33
:1012900006C028E030E005C020E130E002C020E1D7
:1012A00032E0F801B7FE07C06081718182819381CD
:1012B0000C5F1F4F06C06081718180E090E00E5F7F
:1012C0001F4FA4019ED0A82EA818FB2DFF77BF2E7C
:1012D000B6FE0BC02B2D2E7FA51450F4B4FE0AC011
:1012E000B2FC08C02B2D2E7E05C07A2C2B2D03C0FE
:1012F0007A2C01C0752C24FF0DC0FE01EA0DF11DF2
:101300008081803311F4297E09C022FF06C07394C6
:10131000739404C0822F867809F0739423FD12C061
:1013200020FF06C05A2C731418F4530C5718732C52
:10133000731460F4B70180E290E02C8757DE739459
:101340002C85F6CF731410F4371801C0312C24FF0C
:1013500011C0B70180E390E02C8748DE2C8522FF86
:1013600016C021FF03C088E590E002C088E790E046
:10137000B7010CC0822F867851F021FD02C080E2B7
:1013800001C08BE227FD8DE2B70190E02FDEA514AE
:1013900030F4B70180E390E029DE5A94F8CFAA94A4
:1013A000F401EA0DF11D8081B70190E01FDEA1106C
:1013B000F6CF332009F45DCEB70180E290E016DE6F
:1013C0003A94F7CFF7018681978102C08FEF9FEFA4
:1013D0002C96E2E190C0FC01059061507040011034
:1013E000D8F7809590958E0F9F1F0895FC0161504E
:1013F000704001900110D8F7809590958E0F9F1F37
:101400000895FA01AA27283051F1203181F1E8949A
:101410006F936E7F6E5F7F4F8F4F9F4FAF4FB1E0E7
:101420003ED0B4E03CD0670F781F891F9A1FA11DE2
:10143000680F791F8A1F911DA11D6A0F711D811DE3
:10144000911DA11D20D009F468943F912AE0269FA8
:1014500011243019305D3193DEF6CF010895462F07
:101460004770405D4193B3E00FD0C9F7F6CF462FE8
:101470004F70405D4A3318F0495D31FD4052419351
:1014800002D0A9F7EACFB4E0A6959795879577950E
:101490006795BA95C9F700976105710508959B0195
:1014A000AC010A2E06945795479537952795BA951E
:1014B000C9F7620F731F841F951FA01D08952F92F7
:1014C0003F924F925F926F927F928F929F92AF92D4
:1014D000BF92CF92DF92EF92FF920F931F93CF9321
:1014E000DF93CDB7DEB7CA1BDB0B0FB6F894DEBFB8
:1014F0000FBECDBF09942A88398848885F846E84DE
:101500007D848C849B84AA84B984C884DF80EE8027
:10151000FD800C811B81AA81B981CE0FD11D0FB630
:10152000F894DEBF0FBECDBFED010895F894FFCF54
:1015300000009602200000140000000100000000DE
:1015400000009A0400000000000200000000940463
:10155000000000006A6F792073656E743A20256977
:101560000925690925690925690A004D61696E61C6
:10157000616100556E646572203100556E6465725C
:0E15800020320025730A002D3E0020200000BE
:00000001FF
