:10000000F5C000000FC1000019C100000BC10000C5
:1000100009C1000007C1000005C1000003C10000C4
:1000200001C10000FFC00000FDC00000FBC00000D7
:10003000F9C00000F7C00000F5C00000F3C00000E8
:10004000F1C00000D8C50000EDC000003CC60000B3
:10005000E9C00000E7C00000E5C000007BC600006A
:10006000E1C00000DFC00000DDC00000DBC0000018
:1000700000000000005C00000C000C007C287C28C4
:1000800058DC68002410480028542840000C000068
:10009000007884008478000054385400107C1000EC
:1000A00080400000101010000040000060100C00A4
:1000B00038543800487C40004864580044542C00B0
:1000C0001C107C005C5424003854240064140C0080
:1000D00068542C0048543800004800008048000054
:1000E0001028440028282800442810000454080040
:1000F00038445C00781478007C5428003844280088
:100100007C4438007C5444007C140400384474005F
:100110007C107C00447C440020403C007C106C003F
:100120007C4040007C187C0078103C00384438004B
:100130007C1408003844B8007C146800485424003B
:10014000047C04007C407C003C603C007C307C00F3
:100150006C106C000C700C0064544C00007C44006B
:100160000C106000447C00000804080080808000BF
:1001700000040800304878007C48300030484800CF
:1001800030487C00306850001078140090A8780047
:100190007C08700050744000808074007C106800FF
:1001A000447C4000781078007808700030483000B7
:1001B000F82810003048F80078100800505828003F
:1001C000083C4800384078003840380078207800F3
:1001D0004830480098A0780048685800107884009B
:1001E000007C0000847810000804080411241FBE5D
:1001F000CFEFD4E0DEBFCDBF11E0A0E0B1E0E8E09A
:10020000F6E102C005900D92AA3DB107D9F723E0AF
:10021000AAEDB1E001C01D92A431B207E1F744D1CB
:100220000C94020BEDCE8A98929A08958460809384
:1002300000118299FECF8091001108951F920F92B4
:100240000FB60F921124FF920F931F932F933F939A
:100250004F935F936F937F938F939F93AF93BF93CE
:10026000EF93FF93CF93DF93CDB7DEB72E97DEBF2B
:10027000CDBFF894198280E68A8380E98B8381E080
:100280008C837DD181FF08C081E0898380E78A83E8
:1002900084E98B8382E08C83E981F0E0E452FE4FB5
:1002A0002081E981F0E0E652FE4F808130E02F5F4F
:1002B0003F4F2770307890E02817390709F459C06C
:1002C000FE0135968AE0DF011D928A95E9F78A8161
:1002D000856638D18F708E83B1D48B81BAD480E09B
:1002E000B8D48D83ADD4AAD48B818260B2D48E81F0
:1002F000882381F0F12C0F2D10E080E0AAD4E7E0F4
:10030000F0E0EC0FFD1FE00FF11F8083F3948E816E
:10031000F81688F395D42981E981F0E0E452FE4F84
:10032000808190E0DC01AA0FBB1F880F991F880F06
:10033000991F880F991FA80FB91F80E5289FA00D4E
:10034000B11D1124A252BE4F8AE0FE0135960190E4
:100350000D928A95E1F7E981F0E0A981B0E0A4521D
:10036000BE4F8C9190E0019687709078E452FE4FDA
:1003700080836C8140E08CE20DD178942E960FB68C
:10038000F894DEBF0FBECDBFDF91CF91FF91EF910B
:10039000BF91AF919F918F917F916F915F914F919D
:1003A0003F912F911F910F91FF900F900FBE0F90D3
:1003B0001F90189503D143E063E08BE2EBD08BB73D
:1003C00080688BBF089580E029C20895FCDF81E03A
:1003D00080937E02089528E231E04EE050E061E033
:1003E00070E086E391E06EC60895CF93DF93A4D1C9
:1003F0004AD0C72FD72F882341F080910701882347
:1004000021F01092070127D235C081E080930701C7
:10041000809106011F928F931F92CF9385E491E004
:100420009F938F9388E291E09F938F930AD68DB725
:100430009EB708960FB6F8949EBF0FBE8DBFD036FC
:1004400048F480910601882329F01092060181E08A
:10045000E5D10AC0D13A40F080910601882321F00D
:10046000109206018FEFDAD1C156CF3318F481E034
:1004700080930601DF91CF91089580917E028130B3
:1004800009F4B3CF0895CF9381E0D0DEC82F80E088
:10049000CDDE95B190956C2F782F892F8170CF91FB
:1004A0000895389A30980895F89485B7806885BF84
:1004B00080B7806280BF58D480E098E190930301B8
:1004C0008093020180E090E290930101809300010B
:1004D000AADEB9D2EAD0B6D36DDF789488E291E093
:1004E00090931103809310038AE191E090930F039E
:1004F00080930E03D2D16ADF28E231E04EE050E073
:1005000061E070E08BE591E0DDD528E231E045E087
:1005100050E061E070E08AE691E0D4D5AEDF2FEFE5
:100520008FEB93E0215080409040E1F700C0000045
:10053000ECCF84D380EC8DD383D380E08F5F803881
:10054000E9F70895CF93C82F79D383E082D38C2F16
:1005500080D380E07ED3C82F73D38C2FCF910895A2
:10056000CF93DF93D82FC62F69D382E072D38D2F1C
:1005700070D38C2F6ED364D3DF91CF910895CF9336
:100580005DD380EA66D380E064D3C82F59D38C2F23
:10059000CF9108951F93CF93DF93182FD62FC42F99
:1005A0004DD385E056D3812F54D38D2F52D38C2F2A
:1005B00050D346D3DF91CF911F910895BADF61E008
:1005C0008AE2CEDF61E189E2CBDF62E088E2C8DF68
:1005D00040E660E680E6DEDF40E660E680E7DADF00
:1005E00040E060EE8FE0D6CF089528E231E048E0A9
:1005F00050E061E070E080E791E064C50895CF923B
:10060000DF92EF92FF920F931F93CF93DF936C01D2
:10061000EB017A0189E290E0DED38C01FC0188E1F4
:1006200011928150E9F747E150E0B601C801FAD4D0
:10063000F80180E0108E178A8F5F32968730D1F7ED
:10064000209741F4F80116A305A3F0A6E7A2802F96
:10065000912F22C0F801D6A3C5A38F89988D892B2D
:1006600041F0FE0121E030E0818D928D892B61F413
:1006700002C020E030E0220F331FC20FD31F188FBB
:100680000F8B802F912F08C02F5F3F4F329627305E
:10069000310551F780E090E0DF91CF911F910F91EC
:1006A000FF90EF90DF90CF9008950F931F93CF931B
:1006B000DF93F7DE609182027091830245EF52E092
:1006C00089E791E09CDFEC019093830280938202A2
:1006D0004BEE51E0BC018EE791E091DF45EF52E037
:1006E000BE0184E891E08BDF45EF52E0BE018FE868
:1006F00091E085DF8C0145EF52E0BC0185E991E096
:100700007EDF45EF52E0B80187EA91E078DF45EF00
:1007100052E0B80184EB91E072DF45EF52E0B8019E
:100720008FEB91E06CDFD0938102C0938002DF9168
:10073000CF911F910F910895CF92DF92EF92FF9288
:100740000F931F93CF93DF93A8D0809181028F9353
:10075000809180028F9380ED91E09F938F9388E04A
:1007600091E09F938F936DD40F900F900F900F9007
:100770000F900F90C0E0D0E00F2EF0EDEF2EF1E0E3
:10078000FF2EF02D08E011E06E01A0918002B091E3
:100790008102CE01880F991FA80FB91F57968D911E
:1007A0009C915897892B61F180917F02C81309C0F1
:1007B000980142E050E061E070E084ED91E082D485
:1007C00008C0980142E050E061E070E087ED91E000
:1007D00079D4E0918002F0918102CC0CDD1CEC0D0B
:1007E000FD1D808D8F9387898F93FF92EF921F93CA
:1007F0000F9327D40F900F900F900F900F900F90A2
:100800002196C730D10509F0BFCFDF91CF911F915D
:100810000F91FF90EF90DF90CF90089520917F028D
:10082000992787FD9095820F911D27FD9A9567E086
:1008300070E0AAD22091800230918102FC01FF2752
:10084000EE0FFF1FE20FF31F2789308D232B11F0CE
:1008500080937F0208958091800290918102E091BF
:100860007F02F0E0EE0FFF1FE80FF91F0788F08D01
:10087000E02DF0938102E093800207A0F0A5E02D27
:10088000099510927F02089589B7826089BF83B766
:10089000856083BF87E281BF089510928502109220
:1008A00084020895109285028091840290E001965E
:1008B000877090788093840208952091850230E0BB
:1008C0002F5F3F4F2F7730782093850280918402ED
:1008D00090E041E050E0222311F040E050E0840F2E
:1008E000951F87709078992324F40197886F9F6FE4
:1008F00001968093840208950F931F93CF93DF9303
:10090000082F803290F120918502222374F180918A
:100910008402883050F530E02C5F3F4F203831059D
:100920006CF1C0DF2BC080918402A0918502B0E001
:1009300090E8899FA00DB11D11248091160190911E
:100940001701A80FB91FCE01800F911FE091180168
:10095000F0911901E80FF91F859194918C93ADDF07
:100960002196C430D105F9F613C00A3011F49ADF8C
:1009700021C00D30F9F4109285021CC010E0005225
:100980001109000F111F000F111FC0E0D0E0CBCFE5
:1009900080918402E0918502F0E090E8899FE00D6B
:1009A000F11D11248091160190911701E80FF91F94
:1009B000108283DFDF91CF911F910F9108959CDF0B
:1009C00080E090E0089500C000C0000091E29093A4
:1009D000001000C000C000001092001000C000C055
:1009E00000009FE79093001000C000C0000092E25A
:1009F0009093001000C000C000001092001000C0D2
:100A000000C0000097E09093001060E070E0A0E06C
:100A100090E015C0A901460F571FE0911601F09113
:100A20001701E40FF51F80832F5F3F4F20383105FA
:100A300089F760587F4F611524E0720719F02A2F5B
:100A4000392FE8CF0895F89400C000C000008EEA66
:100A50008093001000C000C0000081EA8093001065
:100A600000C000C000008AED8093001000C000C0EC
:100A7000000082E18093001000C000C0000088ECFC
:100A80008093001000C000C0000088EA809300102E
:100A900000C000C000008FE38093001000C000C0C1
:100AA000000085ED8093001000C000C0000080E8C9
:100AB0008093001000C000C0000081E88093001007
:100AC00000C000C0000080E58093001000C000C09E
:100AD000000089ED8093001000C000C0000081E29A
:100AE0008093001000C000C0000080E280930010DE
:100AF00000C000C000001092001000C000C0000044
:100B00008BED8093001000C000C0000080E3809354
:100B1000001000C000C000008DEA8093001000C0EB
:100B200000C000001092001000C000C0000084EA65
:100B30008093001000C000C0000086EA809300107F
:100B400000C000C000008FEA8093001080E03BDF0F
:100B5000A4DE9ACE089500C000C0000081E2809318
:100B6000001000C000C000001092001000C000C0C3
:100B700000008FE78093001000C000C0000082E2F8
:100B80008093001000C000C000001092001000C050
:100B900000C0000087E08093001000C000C000008B
:100BA0001092001000C000C0000080E1809300108F
:100BB00040E050E070E060E0A1E0B0E118C09C01CE
:100BC000240F351FE0911601F0911701E20FF31F7A
:100BD000208100C000C000002C9301968038910550
:100BE00071F740585F4F411584E0580719F0872F7F
:100BF000962FE5CF08951F920F920FB60F921124F2
:100C00002F933F934F935F936F937F938F939F9314
:100C1000AF93BF93EF93FF939EDFFF91EF91BF914F
:100C2000AF919F918F917F916F915F914F913F9184
:100C30002F910F900FBE0F901F901895C498089594
:100C4000C49A089587B3806B87BBBE988DE58DB934
:100C500008958FB9779BFECF8FB108955D9BFECF2E
:100C60008CB980E090E0089520918802309189024B
:100C700080918602909187022817390711F180919F
:100C80008602909187029C012F5F3F4F309387022D
:100C900020938602FC01E657FD4F80812091860259
:100CA000309187022F773078332334F42150310983
:100CB00020683F6F2F5F3F4F30938702209386025B
:100CC000089580E008951F920F920FB60F9211249D
:100CD0002F933F934F938F939F93EF93FF93F894AA
:100CE0004CB18091880290918902209186023091C6
:100CF000870201968F779078992324F40197806872
:100D00009F6F019682179307C1F0E0918802F091DE
:100D10008902E657FD4F40838091880290918902B5
:100D200001968F779078992324F4019780689F6FBC
:100D3000019690938902809388027894FF91EF91B5
:100D40009F918F914F913F912F910F900FBE0F90D8
:100D50001F9018951F920F920FB60F9211240F90AB
:100D60000FBE0F901F9018958FE189B910BC8AB102
:100D7000886D8AB980B58F7B80BD80B58F7E80BD40
:100D800080B5877F80BD089597FB072E16F40094E9
:100D900006D077FD08D00BD007FC05D03EF4909527
:100DA00081959F4F0895709561957F4F0895AA1B77
:100DB000BB1B51E107C0AA1FBB1FA617B70710F046
:100DC000A61BB70B881F991F5A95A9F78095909578
:100DD000BC01CD010895CF93DF938230910510F4CB
:100DE00082E090E0E0910C03F0910D0320E030E010
:100DF000A0E0B0E0309739F14081518148175907A0
:100E0000B8F04817590771F482819381109729F03F
:100E100013969C938E9312972CC090930D038093FE
:100E20000C0327C02115310531F04217530718F084
:100E3000A901DB0101C0EF019A01BD01DF010280C0
:100E4000F381E02DD7CF21153105F9F0281B390B9F
:100E50002430310580F48A819B816115710521F070
:100E6000FB019383828304C090930D0380930C0352
:100E7000FE01329644C0FE01E20FF31F819391936D
:100E800022503109398328833AC020910A033091D6
:100E90000B03232B41F42091020130910301309385
:100EA0000B0320930A0320910001309101012115C9
:100EB000310541F42DB73EB7409104015091050131
:100EC000241B350BE0910A03F0910B03E217F307A3
:100ED000A0F42E1B3F0B2817390778F0AC014E5FAA
:100EE0005F4F2417350748F04E0F5F1F50930B03D9
:100EF00040930A038193919302C0E0E0F0E0CF01B8
:100F0000DF91CF910895CF93DF93009709F487C0C5
:100F1000FC01329713821282C0910C03D0910D0311
:100F2000209781F420813181280F391F80910A0395
:100F300090910B038217930779F5F0930B03E093DD
:100F40000A036DC0DE0120E030E0AE17BF0750F4A9
:100F500012964D915C9113979D014115510509F130
:100F6000DA01F3CFB383A28340815181840F951FAF
:100F70008A179B0771F48D919C911197840F951F8F
:100F800002969183808312968D919C9113979383FF
:100F900082832115310529F4F0930D03E0930C03AE
:100FA0003EC0D9011396FC93EE9312974D915D913B
:100FB000A40FB51FEA17FB0779F480819181840F94
:100FC000951F0296D90111969C938E9382819381ED
:100FD00013969C938E931297E0E0F0E08A819B81B8
:100FE000009719F0FE01EC01F9CFCE01029628819D
:100FF0003981820F931F20910A0330910B03281728
:10100000390769F4309729F410920D0310920C03FC
:1010100002C013821282D0930B03C0930A03DF91A4
:10102000CF910895FB01DC014150504048F0019000
:101030000D920020C9F701C01D9241505040E0F7C9
:101040000895A0E0B0E0E6E2F8E0B5C2AE01475F87
:101050005F4F6F8178858D819E8166D0E2E0C7C247
:101060000F931F93CF93DF93182F092FEB018B81E1
:1010700081FD03C08FEF9FEF20C082FF10C04E8123
:101080005F812C813D81421753077CF4E881F9810F
:101090009F012F5F3F4F39832883108306C0E88567
:1010A000F985812F0995892B29F72E813F812F5FA3
:1010B0003F4F3F832E83812F902FDF91CF911F9140
:1010C0000F910895A0E0B0E0E7E6F8E06AC26B0196
:1010D0004A017901D90113962C9121FF1DC0C0E06E
:1010E000D0E0C815D905D9F08C015C01AC0CBD1C51
:1010F000C8010A151B0571F00F5F1F4FD701189625
:10110000ED91FC911997B701DC018C910995892B20
:1011100079F305C02196E5CF80E090E001C0CE01D3
:10112000CDB7DEB7ECE059C2ACE0B0E0E9E9F8E0F9
:1011300032C27C016B018A01FC0117821682838115
:1011400081FFB0C1CE0101964C01F7019381F601F8
:1011500093FD859193FF81916F01882309F49EC1CE
:10116000853239F493FD859193FF81916F0185322A
:1011700021F4B70190E074DFE8CF512C312C20E04E
:101180002032A0F48B3269F030F4803259F083328F
:1011900069F420612CC08D3239F0803339F421603C
:1011A00026C02260246023C0286021C027FD27C0FC
:1011B00030ED380F3A3078F426FF06C0FAE05F9E33
:1011C000300D1124532E13C08AE0389E300D1124A7
:1011D000332E20620CC08E3221F426FD5FC12064C4
:1011E00006C08C3611F4206802C0883641F4F6013E
:1011F00093FD859193FF81916F018111C1CF982F4C
:101200009F7D9554933028F40C5F1F4FFFE3F983C3
:101210000DC0833631F0833771F0833509F057C044
:1012200021C0F801808189830E5F1F4F44244394BD
:10123000512C540114C03801F2E06F0E711CF801FA
:10124000A080B18026FF03C0652D70E002C06FEF63
:101250007FEFC5012C8736D12C0183012C852F7798
:10126000222E16C03801F2E06F0E711CF801A0802A
:10127000B18026FF03C0652D70E002C06FEF7FEFE5
:10128000C5012C8714D12C012C852068222E8301C6
:1012900023FC19C0832D90E048165906A0F4B7012D
:1012A00080E290E0DDDE3A94F5CFF50127FC8591F0
:1012B00027FE81915F01B70190E0D2DE31103A94B0
:1012C000F1E04F1A51084114510479F7DEC0843619
:1012D00011F0893631F5F80127FF07C0608171816F
:1012E000828193810C5F1F4F08C0608171818827C4
:1012F00077FD8095982F0E5F1F4F2F76B22E97FFA8
:1013000009C090958095709561957F4F8F4F9F4F45
:101310002068B22E2AE030E0A401DFD0A82EA81861
:1013200043C0853729F42F7EB22E2AE030E025C055
:10133000F22FF97FBF2E8F36C1F018F4883579F07F
:10134000ADC0803719F0883721F0A8C02F2F206159
:10135000B22EB4FE0DC08B2D8460B82E09C024FFC0
:101360000AC09F2F9660B92E06C028E030E005C065
:1013700020E130E002C020E132E0F801B7FE07C012
:1013800060817181828193810C5F1F4F06C06081F3
:10139000718180E090E00E5F1F4FA4019ED0A82EC7
:1013A000A818FB2DFF77BF2EB6FE0BC02B2D2E7F6E
:1013B000A51450F4B4FE0AC0B2FC08C02B2D2E7E3A
:1013C00005C07A2C2B2D03C07A2C01C0752C24FF6C
:1013D0000DC0FE01EA0DF11D8081803311F4297EDC
:1013E00009C022FF06C07394739404C0822F8678CC
:1013F00009F0739423FD12C020FF06C05A2C731409
:1014000018F4530C5718732C731460F4B70180E26E
:1014100090E02C8725DE73942C85F6CF731410F49E
:10142000371801C0312C24FF11C0B70180E390E0D0
:101430002C8716DE2C8522FF16C021FF03C088E50D
:1014400090E002C088E790E0B7010CC0822F867858
:1014500051F021FD02C080E201C08BE227FD8DE248
:10146000B70190E0FDDDA51430F4B70180E390E012
:10147000F7DD5A94F8CFAA94F401EA0DF11D8081AA
:10148000B70190E0EDDDA110F6CF332009F45DCE79
:10149000B70180E290E0E4DD3A94F7CFF70186816E
:1014A000978102C08FEF9FEF2C96E2E190C0FC0184
:1014B0000590615070400110D8F7809590958E0F7F
:1014C0009F1F0895FC016150704001900110D8F7F2
:1014D000809590958E0F9F1F0895FA01AA272830B6
:1014E00051F1203181F1E8946F936E7F6E5F7F4FF1
:1014F0008F4F9F4FAF4FB1E03ED0B4E03CD0670F6D
:10150000781F891F9A1FA11D680F791F8A1F911DBF
:10151000A11D6A0F711D811D911DA11D20D009F40F
:1015200068943F912AE0269F11243019305D319351
:10153000DEF6CF010895462F4770405D4193B3E03A
:101540000FD0C9F7F6CF462F4F70405D4A3318F0E1
:10155000495D31FD4052419302D0A9F7EACFB4E092
:10156000A6959795879577956795BA95C9F700974A
:101570006105710508959B01AC010A2E06945795EB
:10158000479537952795BA95C9F7620F731F841F42
:10159000951FA01D08952F923F924F925F926F92D8
:1015A0007F928F929F92AF92BF92CF92DF92EF92F3
:1015B000FF920F931F93CF93DF93CDB7DEB7CA1B74
:1015C000DB0B0FB6F894DEBF0FBECDBF09942A889F
:1015D000398848885F846E847D848C849B84AA8447
:1015E000B984C884DF80EE80FD800C811B81AA81D4
:1015F000B981CE0FD11D0FB6F894DEBF0FBECDBF9F
:08160000ED010895F894FFCFFD
:101608000000140320000101000000020000000097
:10161800DF0400000000001470000000000100005A
:101628000000000034060000000000020000000076
:101638002E060000000067616D6520737461727486
:10164800696E672100096A6F793A202575096A6F02
:10165800795F72656C3A2025750900656E7465724C
:10166800696E67206C6F6F700A007469636B0A009B
:101678006E6F7468696E670A004D61696E00537415
:1016880061727400446966666963756C7479004CAC
:101698006567616C0054544B34313135202D20423C
:1016A80079676765726E0052656E64656C6C20437D
:1016B800616C650057696C6C69616D204B6500460B
:1016C800726F646520766F6E204D656572656E0079
:0A16D80025730A002D3E00202000BB
:00000001FF
