:10000000F5C000000FC1000019C100000BC10000C5
:1000100009C1000007C1000005C1000056C300006F
:1000200001C10000FFC00000FDC00000FBC00000D7
:10003000F9C00000F7C00000F5C00000F3C00000E8
:10004000F1C000000C947F08EDC000000C94E108A2
:10005000E9C00000E7C00000E5C000000C942609DC
:10006000E1C00000DFC00000DDC00000DBC0000018
:1000700000000000005C00000C000C007C287C28C4
:1000800058DC68002410480028542840000C000068
:10009000007884008478000054385400107C1000EC
:1000A00080400000101010000040000060100C00A4
:1000B00038543800487C40004864580044542C00B0
:1000C0001C107C005C5424003854240064140C0080
:1000D00068542C0048543800004800008048000054
:1000E0001028440028282800442810000454080040
:1000F00038445C00781478007C5428003844280088
:100100007C4438007C5444007C140400384474005F
:100110007C107C00447C440020403C007C106C003F
:100120007C4040007C187C0078103C00384438004B
:100130007C1408003844B8007C146800485424003B
:10014000047C04007C407C003C603C007C307C00F3
:100150006C106C000C700C0064544C00007C44006B
:100160000C106000447C00000804080080808000BF
:1001700000040800304878007C48300030484800CF
:1001800030487C00306850001078140090A8780047
:100190007C08700050744000808074007C106800FF
:1001A000447C4000781078007808700030483000B7
:1001B000F82810003048F80078100800505828003F
:1001C000083C4800384078003840380078207800F3
:1001D0004830480098A0780048685800107884009B
:1001E000007C0000847810000804080411241FBE5D
:1001F000CFEFD4E0DEBFCDBF12E0A0E0B1E0ECEE87
:10020000FAE102C005900D92A233B107D9F723E0BD
:10021000A2E3B2E001C01D92AF36B207E1F790D37E
:100220000C94740DEDCE8A98929A08958460809310
:1002300000118299FECF8091001108951F920F92B4
:100240000FB60F921124DF92EF92FF920F931F933C
:100250002F933F934F935F936F937F938F939F93CE
:10026000AF93BF93EF93FF93CF93DF93CDB7DEB7F9
:100270002E97DEBFCDBF1E8680E68D8780E98C87F6
:1002800011E01B87CAD381FF07C01E8780E78D87D7
:1002900084E98C8782E08B878E010F5F1F4F8AE095
:1002A000F80111928A95E9F78D85856676D38F706E
:1002B0008A8348D78C8551D780E04FD7898344D72C
:1002C00041D78C85826049D7D12C8A81D81668F4B1
:1002D000ED2CF12C80E041D7E3E0F0E0EC0FFD1FC6
:1002E000EE0DFF1D8083D394F0CF2ED72E85AE85E3
:1002F000B0E0AC5CBD4F9C918AE0F0E52F9FD0014F
:100300001124899FA00DB11D1124AA5CBD4FF801D5
:1003100001900D928A95E1F7EE85F0E0AE85B0E0B0
:10032000AC5CBD4F8C9190E0019687709927EC5C96
:10033000FD4F80836B8540E08CE280D32E960FB614
:10034000F894DEBF0FBECDBFDF91CF91FF91EF914B
:10035000BF91AF919F918F917F916F915F914F91DD
:100360003F912F911F910F91FF90EF90DF900F9091
:100370000FBE0F901F9018957BD343E063E08BE294
:100380005DD38BB780688BBF0895CF92DF92EF92D9
:10039000FF920F931F93CF93DF93CDB7DEB72A97CA
:1003A0000FB6F894DEBF0FBECDBF0983F12E1A83BE
:1003B0002B833C834D835E836F83788789879A87FD
:1003C00081E0E81631F0E2E0EE1206C014E400E548
:1003D00005C012E400E402C010E400E36F2D802F9A
:1003E0008560F1D260E0802F8260EDD26981802F3C
:1003F0008160E9D2A7D6812F8160AFD66E01F3E08C
:10040000CF0ED11C8601802F8C198F1528F4F8018E
:1004100081918F01A2D6F7CF97D68E2DE9D22A9659
:100420000FB6F894DEBF0FBECDBFDF91CF911F9105
:100430000F91FF90EF90DF90CF900895CF93DF93CF
:100440002AE0FC01322F11923A95E9F770E0FB01A6
:10045000EC5CFD4F4081EB01CE5CDD4F38814317F2
:10046000C9F0388140E5469FF001479FF00D112407
:10047000239FE00DF11D1124EA5CFD4FDC0101908A
:100480000D922A95E1F7288130E02F5F3F4F2770CA
:1004900033272883DF91CF91089581E08093D9029B
:1004A000EBE8F0E0808180688083EAE8F0E080811A
:1004B0008C60808382E890E0909387008093860030
:1004C000EDE7F0E08081806180830895EF920F93E3
:1004D0001F93CF93DF93CDB7DEB72A970FB6F8946B
:1004E000DEBF0FBECDBF8091D702811109C081E070
:1004F0008093D70268E271E086E391E00E94DE0A11
:1005000015D2913FB0F0FE0131968AE0DF011D92D5
:100510008A95E9F7E12C01E011E02BE03C814D8167
:100520005E816F81788589859A852FDF82E080934F
:10053000D9022A960FB6F894DEBF0FBECDBFDF9169
:10054000CF911F910F91EF900895CF92DF92EF928C
:100550000F931F93CF93DF93CDB7DEB765970FB699
:10056000F894DEBF0FBECDBF8091D6028F5F80931F
:10057000D6029E012F5F3F4F69018823A9F08AE0D0
:10058000D901E82F1D92EA95E9F791E099838B83D1
:10059000E12C01E011E02AE03C814D815E816F8118
:1005A000788589859A85F1DEACD1162FBFD1082FC9
:1005B000FE013B968AE0DF011D928A95E9F781E012
:1005C0008B8784E08C878CE08D8780910601843155
:1005D00019F0853189F02CC0088B812F9D8B53D168
:1005E0008E8781E09D89913F08F480E08F871F927C
:1005F0000F938DE491E00FC0188B802F9D8B43D11A
:100600008E8781E09D89913F08F480E08F871F925B
:100610001F938BE591E09F938F9388E291E09F93E6
:100620008F938BD70F900F900F900F900F900F908C
:10063000E12C0B851C852D853E854F855889698960
:100640007A898B899C89A1DE60E0C601F7DE898109
:1006500013E08823F1F0823051F08330A9F081302B
:1006600099F068E271E089E791E0A8D70DC08B812D
:100670008A3051F48C81882339F068E271E08BE68E
:1006800091E09CD71093D90260E0C601D7DE898142
:10069000E0CF65960FB6F894DEBF0FBECDBFDF91F9
:1006A000CF911F910F91EF90DF90CF9008958CD252
:1006B00045C38091D902823029F0833021F0813006
:1006C00019F4F5CF42CF02CF08951F920F920FB6C3
:1006D0000F9211242F933F934F935F936F937F93C8
:1006E0008F939F93AF93BF93EF93FF938091D80223
:1006F0008F5F8093D802811113C08091D9021F921D
:100700008F938EEA91E09F938F9388E291E09F937D
:100710008F9313D70F900F900F900F900F900F9013
:10072000C8DFFF91EF91BF91AF919F918F917F9122
:100730006F915F914F913F912F910F900FBE0F904E
:100740001F901895EF920F931F93CF93DF93CDB720
:10075000DEB72A970FB6F894DEBF0FBECDBFFE01FD
:1007600031968AE0DF011D928A95E9F781E089835D
:100770009BE09B838A83E12C01E011E02BE03C812C
:100780004D815E816F81788589859A85FEDDBFEF19
:100790002FEF8EE0B15020408040E1F700C0000014
:1007A00082E08093D90268E271E085EB91E02A96BD
:1007B0000FB6F894DEBF0FBECDBFDF91CF911F9172
:1007C0000F91EF90FBC6EF920F931F93CF93DF93A0
:1007D000CDB7DEB72A970FB6F894DEBF0FBECDBFF8
:1007E00060E087E010D368E071E084EC91E0E6D649
:1007F000E12C01E012E02FE034E14D815E816F8158
:10080000788589859A85C1DD84E1809306012A96E1
:100810000FB6F894DEBF0FBECDBFDF91CF911F9111
:100820000F91EF900895EF920F931F93CF93DF9363
:10083000CDB7DEB72A970FB6F894DEBF0FBECDBF97
:1008400060E087E0E0D268E071E085ED91E0B6D647
:10085000E12C01E012E02FE035E14D815E816F81F6
:10086000788589859A8591DD85E1809306012A96B0
:100870000FB6F894DEBF0FBECDBFDF91CF911F91B1
:100880000F91EF90089528EC829FC00111246FEF23
:1008900070E0F6D48CE9860F089598E9980F9133AB
:1008A00020F498E9960F913320F1482F50E0CA01C7
:1008B0008058910970E0605871099B0177FF04C06E
:1008C00022273327261B370B28173907A4F04F5749
:1008D00051093195219531092417350774F497FF93
:1008E00003C09195819591098617970744F482E09A
:1008F000089584E0089581E0089580E0089583E0FC
:100900000895CF93DF931F92CDB7DEB781E08EDCE1
:10091000682F80E069838ADC95B190956981782F92
:10092000892F81700F90DF91CF910895CF9382E04E
:100930007DDCC82F83E07ADC982F8C2FCF9108952F
:10094000F89485B7806885BF80B7806280BF88D4FF
:1009500080E098E1909303018093020180E090E2AF
:1009600090930101809300015EDCF8D223D2ECD099
:10097000EDD302DD92DD789488E291E090936C03F0
:1009800080936B038AE191E090936A0380936903FB
:10099000FFCFD8D380ECE1D3D7C31F93CF93DF939E
:1009A0001F92CDB7DEB7182FCDD383E0D6D3812FDA
:1009B000D4D380E0D2D38983C7D389810F90DF91CC
:1009C000CF911F9108951F93CF93DF931F92CDB7BF
:1009D000DEB7182F6983B6D382E0BFD3812FBDD392
:1009E0006981862FBAD30F90DF91CF911F91ACC34D
:1009F000CF93DF931F92CDB7DEB78983A3D321E0D6
:100A000030E0898101C0220F8A95EAF7822F806841
:100A1000A4D30F90DF91CF9197C3CF93DF931F9211
:100A2000CDB7DEB78FD380EA98D380E096D38983A1
:100A30008BD389810F90DF91CF9108951F93CF932E
:100A4000DF9300D0CDB7DEB7182F4A8369837AD3FE
:100A500085E083D3812F81D36981862F7ED34A811C
:100A6000842F7BD30F900F90DF91CF911F916CC398
:100A700090DF61E08AE2A7DF61E189E2A4DF62E062
:100A800088E2A1DF40E660E680E6D8DF40E660E687
:100A900080E7D4DF40E060EE8FE0D0CF089531DF13
:100AA000862F672FFADE8111FACF0895CF92DF9259
:100AB000EF92FF920F931F93CF93DF936C018B0103
:100AC0007A018AE290E003D4EC01FC0188E1119202
:100AD0008150E9F747E150E0B601CE011FD580E033
:100AE00090E0FE01E80FF91F118E108E02968E30F5
:100AF0009105B9F70115110519F4DFA3CEA318C0AC
:100B00001FA30EA3D801E0E0F0E058968D919C91D0
:100B10005997892B41F43C96EE0FFF1FE00FF11F10
:100B2000D183C08305C031961296E730F10569F78D
:100B3000F9A6E8A6CE01DF91CF911F910F91FF900A
:100B4000EF90DF90CF9008950F931F93CF93DF9393
:100B50006091DD027091DE024EE455E089EE91E095
:100B6000A5DFEC019093DE028093DD0242EA53E0C0
:100B7000BC018EEE91E09ADF4EE455E0BE0184EFB9
:100B800091E094DF4EE455E0BE018FEF91E08EDFFF
:100B90008C014FE455E0BE0188E092E087DF43EE30
:100BA00053E0B80182E192E081DF43E154E0B80113
:100BB0008BE192E07BDFD093DC02C093DB02DF911C
:100BC000CF911F910F910895CF92DF92EF92FF92F4
:100BD0000F931F93CF93DF93EDD08091DC028F931F
:100BE0008091DB028F9387E292E09F938F9388E05E
:100BF00091E09F938F93A1D40F900F900F900F903F
:100C00000F900F90C0E0D0E007E212E048E0E42E41
:100C100041E0F42EE091DB02F091DC026E018CE009
:100C2000C80ED11CC601880F991FE80FF91F8081DB
:100C30009181892B19F18091DA0268E071E0C81383
:100C400003C08BE292E002C08EE292E0B7D4E09162
:100C5000DB02F091DC02CC0CDD1CEC0DFD1D818172
:100C60008F9380818F931F930F93FF92EF9265D4A0
:100C70000F900F900F900F900F900F902196C7300C
:100C8000D10541F6DF91CF911F910F91FF90EF9029
:100C9000DF90CF9008959091DA02980F2091DB02B7
:100CA0008091DC02E22FF82FE90FF11DE90FF11D11
:100CB000208D318D232B21F0973010F49093DA02A0
:100CC000089580E00FD12091DB029091DC028091A9
:100CD000DA02E22FF92FE80FF11DE80FF11D008C69
:100CE000F18DE02D309751F0808D918D892B31F071
:100CF000F093DC02E093DB021092DA022091DB0237
:100D00009091DC028091DA02E22FF92FE80FF11DB9
:100D1000E80FF11D008CF18DE02D00A4F1A5E02D70
:100D2000099480E0DFD0E091DB02F091DC0286A143
:100D300097A19093DC028093DB020895E2DD862F79
:100D4000672FABDD823059F028F48823F9F0813029
:100D5000B1F00895833059F08430F9F0089580910E
:100D600007018823E9F0109207018FEF07C08091F7
:100D700007018823A9F01092070181E08CCF8091B0
:100D80000701882369F0109207019BCF809107012A
:100D9000882331F010920701C4CF81E080930701CE
:100DA000089589B7826089BF83B7856083BF87E272
:100DB00081BF08951092E0021092DF020895109210
:100DC000E0028091DF0290E001968770992780937E
:100DD000DF0208958091E00290E001968F779927D5
:100DE0008093E0024091DF0250E021E030E0892B67
:100DF00011F020E030E0CA01820F931F877099271D
:100E00008093DF0208958093DF026093E0020895EB
:100E10000F931F93CF93DF93C82F803208F44EC0F7
:100E20002091E00227FD55C08091DF02883008F054
:100E300050C030E02C3731050CF0C1DFD0E0A09776
:100E4000CC0FDD1FCC0FDD1F00E010E02091DF0292
:100E50008091E00290E030E8239F800D911D1124E5
:100E6000A0911601B0911701A80FB91FC8018C0FEE
:100E70009D1FE0911801F0911901E80FF91F85916C
:100E800094918C93A7DF0F5F1F4F04301105F1F68B
:100E90002091DF028091E00290E030E8239F800DF6
:100EA000911D1124E0911601F0911701E80FF91F2F
:100EB0001082DF91CF911F910F918CCF8A3029F44E
:100EC000DF91CF911F910F917ACF8D3011F4109255
:100ED000E002DF91CF911F910F91089599DF80E09B
:100EE00090E0089500C000C0000091E290930010CF
:100EF00000C000C000001092001000C000C0000040
:100F00009FE79093001000C000C0000092E2909311
:100F1000001000C000C000001092001000C000C00F
:100F2000000097E09093001040E050E020E030E0B7
:100F3000B901640F751FE0911601F0911701E60FDA
:100F4000F71F80832F5F3F4F2038310589F74058C6
:100F50005F4F411594E0590749F7089500C000C05C
:100F600000008EEA8093001000C000C0000081EAFB
:100F70008093001000C000C000008AED8093001034
:100F800000C000C0000082E18093001000C000C0DB
:100F9000000088EC8093001000C000C0000088EAC8
:100FA0008093001000C000C000008FE38093001009
:100FB00000C000C0000085ED8093001000C000C09C
:100FC000000080E88093001000C000C0000081E8AD
:100FD0008093001000C000C0000080E580930010E6
:100FE00000C000C0000089ED8093001000C000C068
:100FF000000081E28093001000C000C0000080E289
:101000008093001000C000C000001092001000C0CB
:1010100000C000008BED8093001000C000C00000F5
:1010200080E38093001000C000C000008DEA809330
:10103000001000C000C000001092001000C000C0EE
:10104000000084EA8093001000C000C0000086EA1F
:101050008093001000C000C000008FEA8093001051
:1010600080E040DFA7DE9DCE00C000C0000081E22E
:101070008093001000C000C000001092001000C05B
:1010800000C000008FE78093001000C000C0000087
:1010900082E28093001000C000C000001092001097
:1010A00000C000C0000087E08093001000C000C0B6
:1010B00000001092001000C000C0000080E180938A
:1010C000001020E030E080E090E0AC01420F531FC0
:1010D000E0911601F0911701E40FF51F408100C067
:1010E00000C000004093011001968038910569F717
:1010F00020583F4F211584E0380729F708951F92A3
:101100000F920FB60F9211242F933F934F935F933B
:101110006F937F938F939F93AF93BF93EF93FF93BF
:10112000A3DFFF91EF91BF91AF919F918F917F913D
:101130006F915F914F913F912F910F900FBE0F9044
:101140001F901895C4980895C49A089587B3806B2A
:1011500087BBBE988DE58DB908958FB9779BFECF7B
:101160008FB108955D9BFECF8CB980E090E008952B
:101170002091E3023091E4028091E1029091E20239
:1011800028173907D9F08091E1029091E2029C0181
:101190002F5F3F4F3093E2022093E102FC01EB51BD
:1011A000FD4F20818091E1029091E20260E870E0C1
:1011B00067D09093E2028093E10201C020E0822F89
:1011C00008951F920F920FB60F9211242F933F9301
:1011D0004F935F936F937F938F939F93AF93BF933F
:1011E000EF93FF934CB18091E3029091E402E09180
:1011F000E102F091E202019620E830E0B90140D02E
:101200008E179F0791F0E091E302F091E402EB5119
:10121000FD4F40838091E3029091E4020196B90171
:101220002FD09093E4028093E302FF91EF91BF915E
:10123000AF919F918F917F916F915F914F913F916E
:101240002F910F900FBE0F901F9018951F920F9225
:101250000FB60F9211240F900FBE0F901F9018958C
:101260008FE189B910BC8AB1886D8AB980B58F7B4E
:1012700080BD80B58F7E80BD80B5877F80BD08959D
:1012800097FB072E16F4009406D077FD08D00BD0FC
:1012900007FC05D03EF4909581959F4F0895709579
:1012A00061957F4F0895AA1BBB1B51E107C0AA1F80
:1012B000BB1FA617B70710F0A61BB70B881F991FF7
:1012C0005A95A9F780959095BC01CD010895CF93CB
:1012D000DF938230910510F482E090E0E0916703A3
:1012E000F091680320E030E0A0E0B0E0309739F101
:1012F0004081518148175907B8F04817590771F4D0
:1013000082819381109729F013969C938E93129764
:101310002CC0909368038093670327C02115310583
:1013200031F04217530718F0A901DB0101C0EF01AA
:101330009A01BD01DF010280F381E02DD7CF211595
:101340003105F9F0281B390B2430310580F48A81EE
:101350009B816115710521F0FB019383828304C099
:101360009093680380936703FE01329644C0FE01A8
:10137000E20FF31F8193919322503109398328831F
:101380003AC02091650330916603232B41F42091EC
:10139000020130910301309366032093650320918D
:1013A0000001309101012115310541F42DB73EB7FF
:1013B0004091040150910501241B350BE091650318
:1013C000F0916603E217F307A0F42E1B3F0B2817DA
:1013D000390778F0AC014E5F5F4F2417350748F0AE
:1013E0004E0F5F1F50936603409365038193919363
:1013F00002C0E0E0F0E0CF01DF91CF910895CF93FC
:10140000DF93009709F487C0FC01329713821282A0
:10141000C0916703D0916803209781F420813181C6
:10142000280F391F809165039091660382179307F7
:1014300079F5F0936603E09365036DC0DE0120E06B
:1014400030E0AE17BF0750F412964D915C911397A0
:101450009D014115510509F1DA01F3CFB383A28350
:1014600040815181840F951F8A179B0771F48D91DC
:101470009C911197840F951F0296918380831296F9
:101480008D919C911397938382832115310529F4C3
:10149000F0936803E09367033EC0D9011396FC9371
:1014A000EE9312974D915D91A40FB51FEA17FB07BC
:1014B00079F480819181840F951F0296D90111964C
:1014C0009C938E938281938113969C938E93129713
:1014D000E0E0F0E08A819B81009719F0FE01EC01C9
:1014E000F9CFCE01029628813981820F931F209176
:1014F0006503309166032817390769F4309729F49A
:10150000109268031092670302C013821282D09374
:101510006603C0936503DF91CF910895FB01DC0161
:101520004150504048F001900D920020C9F701C091
:101530001D9241505040E0F70895A0E0B0E0E2EA8B
:10154000FAE0ABC2AE01475F5F4F6F8178858D8156
:101550009E815CD0E2E0BDC20F931F93CF93DF93D7
:10156000182F092FEB018B8181FD03C08FEF9FEFB7
:1015700020C082FF10C04E815F812C813D814217C7
:1015800053077CF4E881F9819F012F5F3F4F398336
:101590002883108306C0E885F985812F0995892B5A
:1015A00029F72E813F812F5F3F4F3F832E83812F6D
:1015B000902FDF91CF911F910F910895EF92FF929D
:1015C0000F931F93CF93DF938B01DB0113962C9125
:1015D00021FF16C0EC01E12CF12C8991882371F0D8
:1015E000D8011896ED91FC911997B8010995892BAE
:1015F000A1F3EE24EA94FF24FA94EFCFC70102C0CE
:101600008FEF9FEFCDB7DEB7E6E05FC2ACE0B0E0B2
:10161000EBE0FBE032C27C016B018A01FC01178226
:101620001682838181FFB0C1CE0101964C01F70182
:101630009381F60193FD859193FF81916F0188233A
:1016400009F49EC1853239F493FD859193FF819110
:101650006F01853221F4B70190E07EDFE8CF512C95
:10166000312C20E02032A0F48B3269F030F480324B
:1016700059F0833269F420612CC08D3239F0803307
:1016800039F4216026C02260246023C0286021C074
:1016900027FD27C030ED380F3A3078F426FF06C01A
:1016A000FAE05F9E300D1124532E13C08AE0389E5D
:1016B000300D1124332E20620CC08E3221F426FD11
:1016C0005FC1206406C08C3611F4206802C08836E1
:1016D00041F4F60193FD859193FF81916F01811192
:1016E000C1CF982F9F7D9554933028F40C5F1F4FE6
:1016F000FFE3F9830DC0833631F0833771F0833512
:1017000009F057C021C0F801808189830E5F1F4F07
:1017100044244394512C540114C03801F2E06F0E5C
:10172000711CF801A080B18026FF03C0652D70E018
:1017300002C06FEF7FEFC5012C8736D12C018301EA
:101740002C852F77222E16C03801F2E06F0E711C07
:10175000F801A080B18026FF03C0652D70E002C0B3
:101760006FEF7FEFC5012C8714D12C012C852068E9
:10177000222E830123FC19C0832D90E048165906C0
:10178000A0F4B70180E290E0E7DE3A94F5CFF501EE
:1017900027FC859127FE81915F01B70190E0DCDE97
:1017A00031103A94F1E04F1A51084114510479F77D
:1017B000DEC0843611F0893631F5F80127FF07C005
:1017C00060817181828193810C5F1F4F08C06081AD
:1017D0007181882777FD8095982F0E5F1F4F2F7698
:1017E000B22E97FF09C090958095709561957F4FB7
:1017F0008F4F9F4F2068B22E2AE030E0A401DFD047
:10180000A82EA81843C0853729F42F7EB22E2AE0CF
:1018100030E025C0F22FF97FBF2E8F36C1F018F4CB
:10182000883579F0ADC0803719F0883721F0A8C02D
:101830002F2F2061B22EB4FE0DC08B2D8460B82EE8
:1018400009C024FF0AC09F2F9660B92E06C028E069
:1018500030E005C020E130E002C020E132E0F801D4
:10186000B7FE07C060817181828193810C5F1F4F39
:1018700006C06081718180E090E00E5F1F4FA4017F
:101880009ED0A82EA818FB2DFF77BF2EB6FE0BC04A
:101890002B2D2E7FA51450F4B4FE0AC0B2FC08C054
:1018A0002B2D2E7E05C07A2C2B2D03C07A2C01C047
:1018B000752C24FF0DC0FE01EA0DF11D80818033DF
:1018C00011F4297E09C022FF06C07394739404C0EA
:1018D000822F867809F0739423FD12C020FF06C082
:1018E0005A2C731418F4530C5718732C731460F497
:1018F000B70180E290E02C872FDE73942C85F6CF21
:10190000731410F4371801C0312C24FF11C0B70133
:1019100080E390E02C8720DE2C8522FF16C021FF7B
:1019200003C088E590E002C088E790E0B7010CC0F2
:10193000822F867851F021FD02C080E201C08BE247
:1019400027FD8DE2B70190E007DEA51430F4B70162
:1019500080E390E001DE5A94F8CFAA94F401EA0DF6
:10196000F11D8081B70190E0F7DDA110F6CF3320A3
:1019700009F45DCEB70180E290E0EEDD3A94F7CF56
:10198000F7018681978102C08FEF9FEF2C96E2E1ED
:1019900090C0FC010590615070400110D8F780950F
:1019A00090958E0F9F1F0895FC016150704001902B
:1019B0000110D8F7809590958E0F9F1F0895FA011A
:1019C000AA27283051F1203181F1E8946F936E7F7E
:1019D0006E5F7F4F8F4F9F4FAF4FB1E03ED0B4E06F
:1019E0003CD0670F781F891F9A1FA11D680F791FB0
:1019F0008A1F911DA11D6A0F711D811D911DA11DC1
:101A000020D009F468943F912AE0269F11243019D0
:101A1000305D3193DEF6CF010895462F4770405D6B
:101A20004193B3E00FD0C9F7F6CF462F4F70405D1A
:101A30004A3318F0495D31FD4052419302D0A9F775
:101A4000EACFB4E0A6959795879577956795BA956F
:101A5000C9F700976105710508959B01AC010A2E35
:101A600006945795479537952795BA95C9F7620F0C
:101A7000731F841F951FA01D08952F923F924F92B0
:101A80005F926F927F928F929F92AF92BF92CF920E
:101A9000DF92EF92FF920F931F93CF93DF93CDB717
:101AA000DEB7CA1BDB0B0FB6F894DEBF0FBECDBF8F
:101AB00009942A88398848885F846E847D848C8460
:101AC0009B84AA84B984C884DF80EE80FD800C8169
:101AD0001B81AA81B981CE0FD11D0FB6F894DEBF4C
:0C1AE0000FBECDBFED010895F894FFCFBC
:101AEC0000006F0320001401000000020000000041
:101AFC006E070000000000147000000000010000E0
:101B0C0000000000B8080000000000020000000007
:101B1C00B208000000005072657373206275747413
:101B2C006F6E20746F2072657472790A006D6F7419
:101B3C006F7220706F732025750A006D6F746F7251
:101B4C002073706565642025750A0062616C6C20D9
:101B5C0064726F707065640A004552524F523A209D
:101B6C004E6F64652031207265636965766564200B
:101B7C006E6F6E2D67616D652072656C6174656446
:101B8C002063616E206D6573736167650A003A208E
:101B9C002575203A0067616D6520737461727469F4
:101BAC006E670A006163746976653A207374616EBE
:101BBC0064617264006163746976653A20616C7467
:101BCC0065726E6174697665004D61696E0053745F
:101BDC0061727400446966666963756C747900534C
:101BEC00657474696E6773004869676873636F72B4
:101BFC0065005374616E6461726400416C7465724B
:101C0C006E61746976650025730A002D3E002020F4
:021C1C000000C6
:00000001FF
