:1000000037C0000051C0000063C000004DC00000B8
:100010004BC0000049C0000047C0000045C00000C0
:1000200043C0000041C000003FC000003DC00000D0
:100030003BC0000039C0000037C0000035C00000E0
:1000400033C000003EC400002FC00000A2C4000066
:100050002BC0000029C0000027C00000E1C4000040
:1000600023C0000021C000001FC000001DC0000010
:1000700011241FBECFEFD4E0DEBFCDBF11E0A0E062
:10008000B1E0EEE3F5E102C005900D92AC35B107A9
:10009000D9F723E0ACE5B1E001C01D92A431B2076D
:1000A000E1F7C2D20C949D0AABCFF8948A98929A49
:1000B00078940895E0910601F091070184608083AF
:1000C0008299FECFE0910601F091070180810895A9
:1000D0001F920F920FB60F921124FF920F931F934E
:1000E0002F933F934F935F936F937F938F939F9340
:1000F000AF93BF93EF93FF93CF93DF93CDB7DEB76B
:100100002E97DEBFCDBFF894198280E68A8380E9FE
:100110008B8381E08C83D8D181FF08C081E0898303
:1001200080E78A8384E98B8382E08C83E981F0E035
:10013000E25AFE4F2081E981F0E0E45AFE4F8081CF
:1001400030E02F5F3F4F2770307890E02817390755
:1001500011F478945EC0FE0135968AE0DF011D92AD
:100160008A95E9F78A81856682D18F708E83CCD398
:100170008B81D5D380E0D3D38D83C8D3C5D38B8176
:100180008260CDD38E81882381F0F12C0F2D10E079
:1001900080E0C5D3E7E0F0E0EC0FFD1FE00FF11FBA
:1001A0008083F3948E81F81688F3B0D36C8140E09D
:1001B0008CE295D12981E981F0E0E25AFE4F8081FD
:1001C00090E0DC01AA0FBB1F880F991F880F991FB1
:1001D000880F991FA80FB91F80E5289FA00DB11D9A
:1001E0001124A05ABE4F8AE0FE01359601900D926F
:1001F0008A95E1F7E981F0E0A981B0E0A25ABE4F0B
:100200008C9190E0019687709078E25AFE4F80833F
:1002100078942E960FB6F894DEBF0FBECDBFDF9157
:10022000CF91FF91EF91BF91AF919F918F917F916E
:100230006F915F914F913F912F911F910F91FF907F
:100240000F900FBE0F901F9018955DD143E063E0B3
:100250008BE245D18BB780688BBF0895DF92EF9218
:10026000FF920F931F93CF93DF93CDB7DEB72A97FB
:100270000FB6F894DEBF0FBECDBF0983D12E1A830F
:100280002B833C834D835E836F83788789879A872E
:1002900081E0E81649F0E2E0EE1619F000E410E320
:1002A00005C004E410E502C002E410E46D2D812FC6
:1002B0008560EBD060E0812F8260E7D06981812F7B
:1002C0008160E3D021D3802F816029D3DD2059F0D4
:1002D0008E010D5F1F4FF12CF80181918F011FD30B
:1002E000F394FD10F9CF12D38E2DDED02A960FB6DF
:1002F000F894DEBF0FBECDBFDF91CF911F910F915C
:10030000FF90EF90DF900895682F70E080E090E01C
:100310003ED42DEC38EC48E45FE3C7D420E030E075
:1003200048EC52E49ED302D4862F0895282F30E063
:10033000285631092133310538F4262F30E028566C
:1003400031092133310510F190E08058910970E0B6
:10035000605871099B01772324F422273327261B39
:10036000370B28173907A4F03195219531098217E9
:10037000930784F09C01992324F422273327281B18
:10038000390B2617370744F482E0089584E0089576
:1003900081E0089580E0089583E00895EF92FF9250
:1003A0000F931F93CF93DF93CDB7DEB72A970FB686
:1003B000F894DEBF0FBECDBF81E07CDE182F80E059
:1003C00079DEF82E682F812FB1DF082F812F9CDF77
:1003D000182F8F2D99DFFE0131969AE0DF011D92D3
:1003E0009A95E9F791E099831B838C830D8393E0C1
:1003F0009A831F920F93282F332727FD30953F9321
:100400008F93212F332727FD30953F931F9386E24B
:1004100091E09F938F9388E191E09F938F93DED536
:10042000E12C09811A812B813C814D815E816F8194
:10043000788589859A8512DF0FB6F894DEBF0FBEE6
:10044000CDBF2A960FB6F894DEBF0FBECDBFDF91A9
:10045000CF911F910F91FF90EF90089555D280ECAE
:100460005ED254D280E08F5F8038E9F70895CF9351
:10047000C82F4AD283E053D28C2F51D280E04FD282
:10048000C82F44D28C2FCF910895CF93DF93D82FCC
:10049000C62F3AD282E043D28D2F41D28C2F3FD249
:1004A00035D2DF91CF910895CF93C82F2DD221E07F
:1004B00030E0C90102C0880F991FCA95E2F7806831
:1004C0002ED224D2CF910895CF931ED280EA27D284
:1004D00080E025D2C82F1AD28C2FCF9108951F9378
:1004E000CF93DF93182FD62FC42F0ED285E017D2CB
:1004F000812F15D28D2F13D28C2F11D207D2DF91DD
:10050000CF911F910895AADF61E08AE2BEDF61E129
:1005100089E2BBDF62E088E2B8DF40E660E680E6C1
:10052000DEDF40E660E680E7DADF40E060EE8FE0A5
:10053000D6CF08950895CF92DF92EF92FF920F9356
:100540001F93CF93DF936C01EB017A0189E290E076
:100550000FD48C01FC0188E111928150E9F747E149
:1005600050E0B601C8012BD5F80180E0108E178A43
:100570008F5F32968730D1F7209741F4F80116A3A8
:1005800005A3F0A6E7A2802F912F22C0F801D6A3E1
:10059000C5A38F89988D892B41F0FE0121E030E0C1
:1005A000818D928D892B61F402C020E030E0220F12
:1005B000331FC20FD31F188F0F8B802F912F08C0AE
:1005C0002F5F3F4F32962730310551F780E090E0A2
:1005D000DF91CF911F910F91FF90EF90DF90CF901F
:1005E000089540E050E060E070E08AE391E0A3DF2E
:1005F00090930702809306024AE952E0BC0182E42C
:1006000091E099DF60910602709107024AE952E099
:100610008AE491E090DF8091060290910702909326
:10062000090280930802089585B7806885BF80B766
:10063000806280BFFFD180E098E1909303018093B6
:10064000020180E090E290930101809300012DDD92
:1006500060D0C7DF5DD1F9DD789488E191E09093B7
:100660001103809310038AE091E090930F0380932D
:100670000E0394DEFECF89B7826089BF83B78560A1
:1006800083BF87E281BF0895109201021092000299
:10069000089500C000C0000091E29093001000C0D7
:1006A00000C000001092001000C000C000009FE7D2
:1006B0009093001000C000C0000092E290930010E0
:1006C00000C000C000001092001000C000C0000078
:1006D00097E09093001060E070E0A0E090E015C01B
:1006E000A901460F571FE0910801F0910901E40F9D
:1006F000F51F80832F5F3F4F2038310589F7605801
:100700007F4F611524E0720719F02A2F392FE8CFA7
:100710000895F89400C000C000008EEA8093001095
:1007200000C000C0000081EA8093001000C000C03B
:1007300000008AED8093001000C000C0000082E13C
:100740008093001000C000C0000088EC809300106F
:1007500000C000C0000088EA8093001000C000C004
:1007600000008FE38093001000C000C0000085ED02
:100770008093001000C000C0000080E8809300104B
:1007800000C000C0000081E88093001000C000C0DD
:10079000000080E58093001000C000C0000089EDDB
:1007A0008093001000C000C0000081E28093001020
:1007B00000C000C0000080E28093001000C000C0B4
:1007C00000001092001000C000C000008BED80936C
:1007D000001000C000C0000080E38093001000C043
:1007E00000C000008DEA8093001000C000C000002F
:1007F0001092001000C000C0000084EA8093001036
:1008000000C000C0000086EA8093001000C000C055
:1008100000008FEA8093001080E03BDF35DF2BCFB4
:10082000089500C000C0000081E28093001000C065
:1008300000C000001092001000C000C000008FE750
:100840008093001000C000C0000082E2809300107E
:1008500000C000C000001092001000C000C00000E6
:1008600087E08093001000C000C0000010920010CC
:1008700000C000C0000080E18093001040E050E024
:1008800070E060E0A1E0B0E118C09C01240F351FCA
:10089000E0910801F0910901E20FF31F208100C0EF
:1008A00000C000002C9301968038910571F74058E4
:1008B0005F4F411584E0580719F0872F962FE5CF39
:1008C00008951F920F920FB60F9211242F933F930A
:1008D0004F935F936F937F938F939F93AF93BF9348
:1008E000EF93FF939EDFFF91EF91BF91AF919F91A7
:1008F0008F917F916F915F914F913F912F910F90C9
:100900000FBE0F901F901895C4980895C49A08952B
:1009100087B3806B87BBBE988DE58DB908958FB97D
:10092000779BFECF8FB108955D9BFECF8CB980E0A1
:1009300090E0089520910402309105028091020216
:10094000909103022817390711F1809102029091CA
:1009500003029C012F5F3F4F30930302209302025A
:10096000FC01E657FD4F8081209102023091030285
:100970002F773078332334F42150310920683F6FCA
:100980002F5F3F4F3093030220930202089580E0CF
:1009900008951F920F920FB60F9211242F933F9339
:1009A0004F938F939F93EF93FF93F8944CB1809163
:1009B00004029091050220910202309103020196F7
:1009C0008F779078992324F4019780689F6F019620
:1009D00082179307C1F0E0910402F0910502E657F7
:1009E000FD4F4083809104029091050201968F771C
:1009F0009078992324F4019780689F6F01969093D3
:100A00000502809304027894FF91EF919F918F915A
:100A10004F913F912F910F900FBE0F901F901895FF
:100A20001F920F920FB60F9211240F900FBE0F90CE
:100A30001F9018958BB7F8949FE199B910BC9AB1A3
:100A4000986D9AB990B59F7B90BD90B59F7E90BDF3
:100A500090B5977F90BD81FF02C078940895F89477
:100A600008955058BB27AA270ED0E5C0D6D030F045
:100A7000DBD020F031F49F3F11F41EF4CBC00EF414
:100A8000E095E7FBC1C0E92FE7D080F3BA17620712
:100A900073078407950718F071F49EF5FFC00EF4F4
:100AA000E0950B2EBA2FA02D0B01B90190010C017E
:100AB000CA01A0011124FF27591B99F0593F50F496
:100AC000503E68F11A16F040A22F232F342F4427EE
:100AD000585FF3CF469537952795A795F0405395E6
:100AE000C9F77EF41F16BA0B620B730B840BBAF0B6
:100AF0009150A1F0FF0FBB1F661F771F881FC2F721
:100B00000EC0BA0F621F731F841F48F48795779534
:100B10006795B795F7959E3F08F0B3CF9395880FEB
:100B200008F09927EE0F97958795089504D068945B
:100B3000B111B5C0089598D088F09F5790F0B92FA3
:100B40009927B751A0F0D1F0660F771F881F991F22
:100B50001AF0BA95C9F712C0B13081F09FD0B1E058
:100B600008959CC0672F782F8827B85F39F0B93F68
:100B7000CCF3869577956795B395D9F73EF4909524
:100B80008095709561957F4F8F4F9F4F0895E894A2
:100B900009C097FB3EF490958095709561957F4FC5
:100BA0008F4F9F4F9923A9F0F92F96E9BB27939573
:100BB000F695879577956795B795F111F8CFFAF483
:100BC000BB0F11F460FF1BC06F5F7F4F8F4F9F4FB4
:100BD00016C0882311F096E911C0772321F09EE812
:100BE000872F762F05C0662371F096E8862F70E078
:100BF00060E02AF09A95660F771F881FDAF7880F52
:100C00009695879597F9089597F99F6780E870E022
:100C100060E008959FEF80EC089500240A94161672
:100C2000170618060906089500240A9412161306DA
:100C3000140605060895092E0394000C11F4882368
:100C400052F0BB0F40F4BF2B11F460FF04C06F5F84
:100C50007F4F8F4F9F4F089557FD9058440F551F5A
:100C600059F05F3F71F04795880F97FB991F61F02E
:100C70009F3F79F087950895121613061406551FA5
:100C8000F2CF4695F1DF08C0161617061806991F11
:100C9000F1CF86957105610508940895E894BB2706
:100CA00066277727CB0197F908950BD0C4CFB5DF1E
:100CB00028F0BADF18F0952309F0A6CFABCF1124A6
:100CC000EECFCADFA0F3959FD1F3950F50E0551FEB
:100CD000629FF001729FBB27F00DB11D639FAA2791
:100CE000F00DB11DAA1F649F6627B00DA11D661FE0
:100CF000829F2227B00DA11D621F739FB00DA11D01
:100D0000621F839FA00D611D221F749F3327A00DBA
:100D1000611D231F849F600D211D822F762F6A2F56
:100D200011249F5750408AF0E1F088234AF0EE0FDB
:100D3000FF1FBB1F661F771F881F91505040A9F7E8
:100D40009E3F510570F060CFAACF5F3FECF3983E15
:100D5000DCF3869577956795B795F795E7959F5F4F
:100D6000C1F7FE2B880F911D9695879597F90895E9
:100D7000CF93DF938230910510F482E090E0E09110
:100D80000C03F0910D0320E030E0A0E0B0E03097DC
:100D900039F14081518148175907B8F04817590770
:100DA00071F482819381109729F013969C938E930E
:100DB00012972CC090930D0380930C0327C021152C
:100DC000310531F04217530718F0A901DB0101C0CA
:100DD000EF019A01BD01DF010280F381E02DD7CF41
:100DE00021153105F9F0281B390B2430310580F429
:100DF0008A819B816115710521F0FB0193838283B8
:100E000004C090930D0380930C03FE01329644C0FE
:100E1000FE01E20FF31F8193919322503109398330
:100E200028833AC020910A0330910B03232B41F40D
:100E3000209102013091030130930B0320930A03A8
:100E400020910001309101012115310541F42DB7A8
:100E50003EB74091040150910501241B350BE091F0
:100E60000A03F0910B03E217F307A0F42E1B3F0BCC
:100E70002817390778F0AC014E5F5F4F241735070C
:100E800048F04E0F5F1F50930B0340930A0381936A
:100E9000919302C0E0E0F0E0CF01DF91CF9108959F
:100EA000CF93DF93009709F487C0FC013297138238
:100EB0001282C0910C03D0910D03209781F4208100
:100EC0003181280F391F80910A0390910B038217FB
:100ED000930779F5F0930B03E0930A036DC0DE01ED
:100EE00020E030E0AE17BF0750F412964D915C91B0
:100EF00013979D014115510509F1DA01F3CFB38331
:100F0000A28340815181840F951F8A179B0771F43A
:100F10008D919C911197840F951F029691838083E8
:100F200012968D919C91139793838283211531059D
:100F300029F4F0930D03E0930C033EC0D9011396FE
:100F4000FC93EE9312974D915D91A40FB51FEA1794
:100F5000FB0779F480819181840F951F0296D90156
:100F600011969C938E938281938113969C938E937A
:100F70001297E0E0F0E08A819B81009719F0FE0172
:100F8000EC01F9CFCE01029628813981820F931F9F
:100F900020910A0330910B032817390769F4309721
:100FA00029F410920D0310920C0302C013821282D6
:100FB000D0930B03C0930A03DF91CF910895FB01F7
:100FC000DC014150504048F001900D920020C9F7DB
:100FD00001C01D9241505040E0F70895A0E0B0E0FC
:100FE000E3EFF7E083C2AE01475F5F4F6F81788523
:100FF0008D819E8134D0E2E095C20F931F93CF93F1
:10100000DF93182F092FEB018B8181FD03C08FEF38
:101010009FEF20C082FF10C04E815F812C813D81F7
:10102000421753077CF4E881F9819F012F5F3F4FFE
:1010300039832883108306C0E885F985812F0995B7
:10104000892B29F72E813F812F5F3F4F3F832E83CE
:10105000812F902FDF91CF911F910F910895ACE0D8
:10106000B0E0E4E3F8E032C27C016B018A01FC01EC
:1010700017821682838181FFB0C1CE0101964C0197
:10108000F7019381F60193FD859193FF81916F01A3
:10109000882309F49EC1853239F493FD859193FF2D
:1010A00081916F01853221F4B70190E0A6DFE8CF8E
:1010B000512C312C20E02032A0F48B3269F030F436
:1010C000803259F0833269F420612CC08D3239F0BE
:1010D000803339F4216026C02260246023C0286058
:1010E00021C027FD27C030ED380F3A3078F426FFB5
:1010F00006C0FAE05F9E300D1124532E13C08AE023
:10110000389E300D1124332E20620CC08E3221F413
:1011100026FD5FC1206406C08C3611F4206802C031
:10112000883641F4F60193FD859193FF81916F011B
:101130008111C1CF982F9F7D9554933028F40C5F77
:101140001F4FFFE3F9830DC0833631F0833771F011
:10115000833509F057C021C0F801808189830E5F73
:101160001F4F44244394512C540114C03801F2E021
:101170006F0E711CF801A080B18026FF03C0652DA1
:1011800070E002C06FEF7FEFC5012C8736D12C01D4
:1011900083012C852F77222E16C03801F2E06F0EC6
:1011A000711CF801A080B18026FF03C0652D70E09E
:1011B00002C06FEF7FEFC5012C8714D12C012C8565
:1011C0002068222E830123FC19C0832D90E048164D
:1011D0005906A0F4B70180E290E00FDF3A94F5CF12
:1011E000F50127FC859127FE81915F01B70190E011
:1011F00004DF31103A94F1E04F1A510841145104C0
:1012000079F7DEC0843611F0893631F5F80127FF11
:1012100007C060817181828193810C5F1F4F08C07C
:1012200060817181882777FD8095982F0E5F1F4F11
:101230002F76B22E97FF09C0909580957095619595
:101240007F4F8F4F9F4F2068B22E2AE030E0A401DD
:10125000DFD0A82EA81843C0853729F42F7EB22EE0
:101260002AE030E025C0F22FF97FBF2E8F36C1F083
:1012700018F4883579F0ADC0803719F0883721F03F
:10128000A8C02F2F2061B22EB4FE0DC08B2D84601C
:10129000B82E09C024FF0AC09F2F9660B92E06C041
:1012A00028E030E005C020E130E002C020E132E07B
:1012B000F801B7FE07C060817181828193810C5F64
:1012C0001F4F06C06081718180E090E00E5F1F4F6C
:1012D000A4019ED0A82EA818FB2DFF77BF2EB6FE26
:1012E0000BC02B2D2E7FA51450F4B4FE0AC0B2FC07
:1012F00008C02B2D2E7E05C07A2C2B2D03C07A2CF6
:1013000001C0752C24FF0DC0FE01EA0DF11D808186
:10131000803311F4297E09C022FF06C073947394B0
:1013200004C0822F867809F0739423FD12C020FF39
:1013300006C05A2C731418F4530C5718732C7314DA
:1013400060F4B70180E290E02C8757DE73942C851F
:10135000F6CF731410F4371801C0312C24FF11C0DC
:10136000B70180E390E02C8748DE2C8522FF16C071
:1013700021FF03C088E590E002C088E790E0B70154
:101380000CC0822F867851F021FD02C080E201C09E
:101390008BE227FD8DE2B70190E02FDEA51430F43B
:1013A000B70180E390E029DE5A94F8CFAA94F401C3
:1013B000EA0DF11D8081B70190E01FDEA110F6CF8C
:1013C000332009F45DCEB70180E290E016DE3A9456
:1013D000F7CFF7018681978102C08FEF9FEF2C96A0
:1013E000E2E190C0FC010590615070400110D8F717
:1013F000809590958E0F9F1F0895FC01615070405D
:1014000001900110D8F7809590958E0F9F1F089539
:10141000FA01AA27283051F1203181F1E8946F9325
:101420006E7F6E5F7F4F8F4F9F4FAF4FB1E03ED0CB
:10143000B4E03CD0670F781F891F9A1FA11D680F69
:10144000791F8A1F911DA11D6A0F711D811D911D9C
:10145000A11D20D009F468943F912AE0269F112411
:101460003019305D3193DEF6CF010895462F477075
:10147000405D4193B3E00FD0C9F7F6CF462F4F70D0
:10148000405D4A3318F0495D31FD4052419302D02E
:10149000A9F7EACFB4E0A6959795879577956795D4
:1014A000BA95C9F700976105710508959B01AC01D4
:1014B0000A2E06945795479537952795BA95C9F7FB
:1014C000620F731F841F951FA01D08952F923F92D6
:1014D0004F925F926F927F928F929F92AF92BF9244
:1014E000CF92DF92EF92FF920F931F93CF93DF93F0
:1014F000CDB7DEB7CA1BDB0B0FB6F894DEBF0FBE4D
:10150000CDBF09942A88398848885F846E847D8499
:101510008C849B84AA84B984C884DF80EE80FD809B
:101520000C811B81AA81B981CE0FD11D0FB6F89411
:0E153000DEBF0FBECDBFED010895F894FFCFD2
:10153E000000140320000011001400000001000040
:10154E00000000009A0400000000000200000000ED
:10155E009404000000006A6F792073656E743A205F
:10156E0025690925690925690A004D61696E616160
:10157E006100556E646572203100556E646572208F
:0C158E00320025730A002D3E00202000D2
:00000001FF
