:10000000F5C000000FC1000019C100000BC10000C5
:1000100009C1000007C1000005C1000003C10000C4
:1000200001C10000FFC00000FDC00000FBC00000D7
:10003000F9C00000F7C00000F5C00000F3C00000E8
:10004000F1C00000B9C60000EDC000001DC70000EF
:10005000E9C00000E7C00000E5C000005CC7000088
:10006000E1C00000DFC00000DDC00000DBC0000018
:1000700000000000005C00000C000C007C287C28C4
:1000800058DC68002410480028542840000C000068
:10009000007884008478000054385400107C1000EC
:1000A00080400000101010000040000060100C00A4
:1000B00038543800487C40004864580044542C00B0
:1000C0001C107C005C5424003854240064140C0080
:1000D00068542C0048543800004800008048000054
:1000E0001028440028282800442810000454080040
:1000F00038445C00781478007C5428003844280088
:100100007C4438007C5444007C140400384474005F
:100110007C107C00447C440020403C007C106C003F
:100120007C4040007C187C0078103C00384438004B
:100130007C1408003844B8007C146800485424003B
:10014000047C04007C407C003C603C007C307C00F3
:100150006C106C000C700C0064544C00007C44006B
:100160000C106000447C00000804080080808000BF
:1001700000040800304878007C48300030484800CF
:1001800030487C00306850001078140090A8780047
:100190007C08700050744000808074007C106800FF
:1001A000447C4000781078007808700030483000B7
:1001B000F82810003048F80078100800505828003F
:1001C000083C4800384078003840380078207800F3
:1001D0004830480098A0780048685800107884009B
:1001E000007C0000847810000804080411241FBE5D
:1001F000CFEFD4E0DEBFCDBF12E0A0E0B1E0ECE78E
:10020000F7E102C005900D92A831B107D9F723E0BC
:10021000A8E1B2E001C01D92A235B207E1F77AD1A0
:100220000C94BC0BEDCE8A98929A089584608093CA
:1002300000118299FECF8091001108951F920F92B4
:100240000FB60F921124FF920F931F932F933F939A
:100250004F935F936F937F938F939F93AF93BF93CE
:10026000EF93FF93CF93DF93CDB7DEB72E97DEBF2B
:10027000CDBFF894198280E68A8380E98B8381E080
:100280008C83B4D181FF08C081E0898380E78A83B1
:1002900084E98B8382E08C83E981F0E0E65EFD4FA8
:1002A0002081E981F0E0E85EFD4F808130E02F5F42
:1002B0003F4F2770307890E02817390709F459C06C
:1002C000FE0135968AE0DF011D928A95E9F78A8161
:1002D00085666FD18F708E8392D58B819BD580E0A0
:1002E00099D58D838ED58BD58B81826093D58E8168
:1002F000882381F0F12C0F2D10E080E08BD5E7E012
:10030000F0E0EC0FFD1FE00FF11F8083F3948E816E
:10031000F81688F376D52981E981F0E0E65EFD4F95
:10032000808190E0DC01AA0FBB1F880F991F880F06
:10033000991F880F991FA80FB91F80E5289FA00D4E
:10034000B11D1124A45EBD4F8AE0FE0135960190D7
:100350000D928A95E1F7E981F0E0A981B0E0A65E0F
:10036000BD4F8C9190E0019687709078E65EFD4FCE
:1003700080836C8140E08CE244D178942E960FB655
:10038000F894DEBF0FBECDBFDF91CF91FF91EF910B
:10039000BF91AF919F918F917F916F915F914F919D
:1003A0003F912F911F910F91FF900F900FBE0F90D3
:1003B0001F9018953AD143E063E08BE222D18BB7CE
:1003C00080688BBF089580E091C20895FCDF81E0D2
:1003D0008093BC02089528E231E04EE050E061E0F5
:1003E00070E086E391E028D782E08093BC02089514
:1003F000CF9308D27ED0962F672FC82F892F3DD05C
:100400008330D9F028F4882309F1823069F02DC0B7
:10041000843021F1853049F580910701882329F145
:100420001092070191D221C0809106018823E9F042
:10043000109206018FEF5AD218C0809106018823CE
:10044000A1F01092060181E051D20FC08091060107
:10045000882359F010920601EBD207C081E0809307
:100460000601C11180E080930701CF91089580912A
:10047000BC02813009F4BCCF0895289B30C0282FDE
:1004800030E0285631092133310538F4262F30E089
:10049000285631092133310520F190E08058910927
:1004A00070E0605871099B01772324F422273327D9
:1004B000261B370B28173907B4F0319521953109E0
:1004C0008217930794F09C01992324F42227332761
:1004D000281B390B2617370754F482E0089585E06E
:1004E000089584E0089581E0089580E0089583E010
:1004F0000895CF9381E09ADEC82F80E097DE95B112
:1005000090956C2F782F892F8170CF910895389A0C
:1005100030980895F89485B7806885BF80B7806269
:1005200080BF03D580E098E190930301809302019E
:1005300080E090E2909301018093000174DE64D327
:100540000CD161D437DF789488E291E090934F0327
:1005500080934E038AE191E090934D0380934C0386
:100560007DD234DF28E231E04EE050E061E070E01F
:1005700085E491E061D6C1E009C028E231E04AE0BB
:1005800050E061E070E084E591E056D670DF8FEFD7
:100590009FE20197F1F700C00000CF5FB9F7EDCF00
:1005A0002ED480EC37D42DD480E08F5F8038E9F7EB
:1005B0000895CF93C82F23D483E02CD48C2F2AD432
:1005C00080E028D4C82F1DD48C2FCF910895CF93CD
:1005D000DF93D82FC62F13D482E01CD48D2F1AD4CA
:1005E0008C2F18D40ED4DF91CF910895CF9307D4D8
:1005F00080EA10D480E00ED4C82F03D48C2FCF9182
:1006000008951F93CF93DF93182FD62FC42FF7D3BE
:1006100085E000D4812FFED38D2FFCD38C2FFAD30D
:10062000F0D3DF91CF911F910895BADF61E08AE2A4
:10063000CEDF61E189E2CBDF62E088E2C8DF40E63D
:1006400060E680E6DEDF40E660E680E7DADF40E095
:1006500060EE8FE0D6CF089528E231E048E050E028
:1006600061E070E08FE591E0E7C50895CF92DF92F9
:10067000EF92FF920F931F93CF93DF936C017B0157
:100680008A018091C0029091C10268177907C9F070
:10069000FB0184A195A1892BA1F0FF926F9388E6BD
:1006A00091E09F938F9388E291E09F938F9383D5FE
:1006B0000F900F900F900F900F900F9080E090E0B0
:1006C00043C08AE290E041D4EC01FC0180E0119249
:1006D0008F5F8831E1F747E150E0B601CE015CD58C
:1006E000FE0187E0118E108E815032968111FACF73
:1006F000E114F10419F4DFA3CEA322C0FFA2EEA2FD
:10070000F701808D918D892B41F021E030E0A90126
:10071000828D938D892B71F402C040E050E0445FDC
:100720005F4FCA01880F991FF701E80FF91FD183A6
:10073000C08306C02F5F3F4F32962730310539F70F
:1007400019A708A78C2F9D2FDF91CF911F910F9193
:10075000FF90EF90DF90CF900895CF93DF93D7DE97
:100760006091C0027091C1024CE253E08CE791E0CD
:100770007DDF9093C1028093C0024BEE51E0BC013B
:1007800081E891E073DF6091C0027091C1024CE298
:1007900053E087E891E06ADF6091C0027091C10286
:1007A0004CE253E082E991E061DF6091C002709118
:1007B000C1024CE253E08CE991E058DFEC014CE2DD
:1007C00053E0BC0182EA91E051DF4CE253E0BE010C
:1007D00084EB91E04BDF4CE253E0BE0181EC91E011
:1007E00045DF4CE253E0BE018CEC91E03FDF8091AD
:1007F000C0029091C1029093BF028093BE02DF912C
:10080000CF910895CF92DF92EF92FF920F931F93B3
:10081000CF93DF9323D18091BF028F938091BE024B
:100820008F9388E791E09F938F9388E091E09F9367
:100830008F93C1D40F900F900F900F900F900F9047
:10084000C0E0D0E00F2EF8E7EF2EF1E0FF2EF02D04
:1008500008E011E06E018091BE029091BF02DE01BE
:100860001C96AA0FBB1FA80FB91F8D919C91892BB5
:1008700079F18091BD02C81309C0980142E050E0AF
:1008800061E070E081EE91E0D7D408C0980142E0C9
:1008900050E061E070E084EE91E0CED4E091BE02E1
:1008A000F091BF028CE0C80ED11CCC0CDD1CEC0D0D
:1008B000FD1D81818F9380818F93FF92EF921F9313
:1008C0000F9379D40F900F900F900F900F900F907F
:1008D0002196C730D10509F0BDCFDF91CF911F918F
:1008E0000F91FF90EF90DF90CF9008951F93CF93DB
:1008F000DF931091BD02180FC12FD0E01F921F93FC
:1009000027EE31E03F932F9328E231E03F932F937E
:1009100052D42091BE023091BF022C96CC0FDD1F25
:10092000C20FD31F0F900F900F900F900F900F904A
:1009300028813981232B21F0173010F41093BD0248
:10094000DF91CF911F910895CF93DF9380E01CD169
:100950008091BE029091BF02E091BD02F0E03C9612
:10096000EE0FFF1FE80FF91F0190F081E02D309787
:1009700009F448C0808D918D892B09F443C08CE225
:1009800093E09F938F938AEF91E09F938F93C8E2B8
:10099000D1E0DF93CF930FD48091BE029091BF023C
:1009A000E091BD02F0E03C96EE0FFF1FE80FF91F4B
:1009B0000190F081E02D81A58F9380A58F9388E031
:1009C00092E09F938F93DF93CF93F5D38091BE02F4
:1009D0009091BF02E091BD02F0E03C96EE0FFF1F48
:1009E000E80FF91F808191819093BF028093BE022E
:1009F0001092BD028DB79EB70C960FB6F8949EBFAD
:100A00000FBE8DBF8091BE029091BF02E091BD02EA
:100A1000F0E03C96EE0FFF1FE80FF91F0190F08108
:100A2000E02D00A4F1A5E02D0995DF91CF91089567
:100A300080E0AAD0E091BE02F091BF0286A197A10A
:100A40009093BF028093BE02089589B7826089BFE8
:100A500083B7856083BF87E281BF08951092C30288
:100A60001092C20208951092C3028091C20290E0D7
:100A70000196877090788093C20208952091C302F6
:100A800030E02F5F3F4F2F7730782093C302809163
:100A9000C20290E041E050E0222311F040E050E03B
:100AA000840F951F87709078992324F40197886F9D
:100AB0009F6F01968093C20208950F931F93CF9367
:100AC000DF93082F803290F12091C302222374F12A
:100AD0008091C202883050F530E02C5F3F4F2038C3
:100AE00031056CF1C0DF2BC08091C202A091C3021E
:100AF000B0E090E8899FA00DB11D112480911601EE
:100B000090911701A80FB91FCE01800F911FE0919E
:100B10001801F0911901E80FF91F859194918C93B8
:100B2000ADDF2196C430D105F9F613C00A3011F4B7
:100B30009ADF21C00D30F9F41092C3021CC010E0FE
:100B400000521109000F111F000F111FC0E0D0E06B
:100B5000CBCF8091C202E091C302F0E090E8899F80
:100B6000E00DF11D11248091160190911701E80FFD
:100B7000F91F108283DFDF91CF911F910F910895AC
:100B80009CDF80E090E0089500C000C0000091E28A
:100B90009093001000C000C000001092001000C030
:100BA00000C000009FE79093001000C000C000004C
:100BB00092E29093001000C000C00000109200105C
:100BC00000C000C0000097E09093001060E070E06B
:100BD000A0E090E015C0A901460F571FE091160153
:100BE000F0911701E40FF51F80832F5F3F4F2038EE
:100BF000310589F760587F4F611524E0720719F0BD
:100C00002A2F392FE8CF0895F89400C000C00000C3
:100C10008EEA8093001000C000C0000081EA80933B
:100C2000001000C000C000008AED8093001000C0DA
:100C300000C0000082E18093001000C000C00000EE
:100C400088EC8093001000C000C0000088EA809308
:100C5000001000C000C000008FE38093001000C0AF
:100C600000C0000085ED8093001000C000C00000AF
:100C700080E88093001000C000C0000081E88093ED
:100C8000001000C000C0000080E58093001000C08C
:100C900000C0000089ED8093001000C000C000007B
:100CA00081E28093001000C000C0000080E28093C9
:100CB000001000C000C000001092001000C000C072
:100CC00000008BED8093001000C000C0000080E3A6
:100CD0008093001000C000C000008DEA80930010D7
:100CE00000C000C000001092001000C000C0000052
:100CF00084EA8093001000C000C0000086EA809360
:100D0000001000C000C000008FEA8093001080E057
:100D10003BDFA4DE9ACE089500C000C0000081E24F
:100D20008093001000C000C000001092001000C0AE
:100D300000C000008FE78093001000C000C00000DA
:100D400082E28093001000C000C0000010920010EA
:100D500000C000C0000087E08093001000C000C009
:100D600000001092001000C000C0000080E18093DD
:100D7000001040E050E070E060E0A1E0B0E118C099
:100D80009C01240F351FE0911601F0911701E20F2D
:100D9000F31F208100C000C000002C930196803812
:100DA000910571F740585F4F411584E0580719F0DD
:100DB000872F962FE5CF08951F920F920FB60F92AF
:100DC00011242F933F934F935F936F937F938F9350
:100DD0009F93AF93BF93EF93FF939EDFFF91EF91AC
:100DE000BF91AF919F918F917F916F915F914F9143
:100DF0003F912F910F900FBE0F901F901895C498A0
:100E00000895C49A089587B3806B87BBBE988DE51B
:100E10008DB908958FB9779BFECF8FB108955D9BF3
:100E2000FECF8CB980E090E008952091C602309109
:100E3000C7028091C4029091C5022817390711F1A9
:100E40008091C4029091C5029C012F5F3F4F309367
:100E5000C5022093C402FC01E853FD4F808120911C
:100E6000C4023091C5022F773078332334F42150F7
:100E7000310920683F6F2F5F3F4F3093C5022093A9
:100E8000C402089580E008951F920F920FB60F924A
:100E900011242F933F934F938F939F93EF93FF933F
:100EA000F8944CB18091C6029091C7022091C4027F
:100EB0003091C50201968F779078992324F4019799
:100EC00080689F6F019682179307C1F0E091C60278
:100ED000F091C702E853FD4F40838091C602909184
:100EE000C70201968F779078992324F40197806840
:100EF0009F6F01969093C7028093C6027894FF91EA
:100F0000EF919F918F914F913F912F910F900FBE35
:100F10000F901F9018951F920F920FB60F921124E9
:100F20000F900FBE0F901F9018958FE189B910BCDC
:100F30008AB1886D8AB980B58F7B80BD80B58F7E80
:100F400080BD80B5877F80BD0895CF93DF938230C9
:100F5000910510F482E090E0E0914A03F0914B0398
:100F600020E030E0A0E0B0E0309739F140815181DD
:100F700048175907B8F04817590771F482819381CF
:100F8000109729F013969C938E9312972CC09093F0
:100F90004B0380934A0327C02115310531F04217D6
:100FA000530718F0A901DB0101C0EF019A01BD014F
:100FB000DF010280F381E02DD7CF21153105F9F053
:100FC000281B390B2430310580F48A819B816115FF
:100FD000710521F0FB019383828304C090934B033E
:100FE00080934A03FE01329644C0FE01E20FF31FD4
:100FF0008193919322503109398328833AC02091FB
:10100000480330914903232B41F420910201309190
:10101000030130934903209348032091000130914C
:1010200001012115310541F42DB73EB7409104016E
:1010300050910501241B350BE0914803F0914903C1
:10104000E217F307A0F42E1B3F0B2817390778F09F
:10105000AC014E5F5F4F2417350748F04E0F5F1FFE
:1010600050934903409348038193919302C0E0E079
:10107000F0E0CF01DF91CF910895CF93DF930097F8
:1010800009F487C0FC01329713821282C0914A038F
:10109000D0914B03209781F420813181280F391F93
:1010A00080914803909149038217930779F5F09353
:1010B0004903E09348036DC0DE0120E030E0AE1745
:1010C000BF0750F412964D915C9113979D01411505
:1010D000510509F1DA01F3CFB383A2834081518135
:1010E000840F951F8A179B0771F48D919C9111971E
:1010F000840F951F02969183808312968D919C9107
:101100001397938382832115310529F4F0934B03C0
:10111000E0934A033EC0D9011396FC93EE931297D5
:101120004D915D91A40FB51FEA17FB0779F48081FB
:101130009181840F951F0296D90111969C938E93ED
:101140008281938113969C938E931297E0E0F0E056
:101150008A819B81009719F0FE01EC01F9CFCE0145
:10116000029628813981820F931F20914803309184
:1011700049032817390769F4309729F410924B0373
:1011800010924A0302C013821282D0934903C09383
:101190004803DF91CF910895FB01DC01415050409D
:1011A00048F001900D920020C9F701C01D924150F6
:1011B0005040E0F70895A0E0B0E0E0EEF8E0B5C2FE
:1011C000AE01475F5F4F6F8178858D819E8166D0CC
:1011D000E2E0C7C20F931F93CF93DF93182F092F1D
:1011E000EB018B8181FD03C08FEF9FEF20C082FF59
:1011F00010C04E815F812C813D81421753077CF4E2
:10120000E881F9819F012F5F3F4F39832883108345
:1012100006C0E885F985812F0995892B29F72E814C
:101220003F812F5F3F4F3F832E83812F902FDF9190
:10123000CF911F910F910895A0E0B0E0E1E2F9E0B5
:101240006AC26B014A017901D90113962C9121FFE1
:101250001DC0C0E0D0E0C815D905D9F08C015C01F3
:10126000AC0CBD1CC8010A151B0571F00F5F1F4FA8
:10127000D7011896ED91FC911997B701DC018C917B
:101280000995892B79F305C02196E5CF80E090E0A0
:1012900001C0CE01CDB7DEB7ECE059C2ACE0B0E0A2
:1012A000E3E5F9E032C27C016B018A01FC0117829F
:1012B0001682838181FFB0C1CE0101964C01F701F6
:1012C0009381F60193FD859193FF81916F018823AE
:1012D00009F49EC1853239F493FD859193FF819184
:1012E0006F01853221F4B70190E074DFE8CF512C13
:1012F000312C20E02032A0F48B3269F030F48032BF
:1013000059F0833269F420612CC08D3239F080337A
:1013100039F4216026C02260246023C0286021C0E7
:1013200027FD27C030ED380F3A3078F426FF06C08D
:10133000FAE05F9E300D1124532E13C08AE0389ED0
:10134000300D1124332E20620CC08E3221F426FD84
:101350005FC1206406C08C3611F4206802C0883654
:1013600041F4F60193FD859193FF81916F01811105
:10137000C1CF982F9F7D9554933028F40C5F1F4F59
:10138000FFE3F9830DC0833631F0833771F0833585
:1013900009F057C021C0F801808189830E5F1F4F7B
:1013A00044244394512C540114C03801F2E06F0ED0
:1013B000711CF801A080B18026FF03C0652D70E08C
:1013C00002C06FEF7FEFC5012C8736D12C0183015E
:1013D0002C852F77222E16C03801F2E06F0E711C7B
:1013E000F801A080B18026FF03C0652D70E002C027
:1013F0006FEF7FEFC5012C8714D12C012C8520685D
:10140000222E830123FC19C0832D90E04816590633
:10141000A0F4B70180E290E0DDDE3A94F5CFF5016B
:1014200027FC859127FE81915F01B70190E0D2DE14
:1014300031103A94F1E04F1A51084114510479F7F0
:10144000DEC0843611F0893631F5F80127FF07C078
:1014500060817181828193810C5F1F4F08C0608120
:101460007181882777FD8095982F0E5F1F4F2F760B
:10147000B22E97FF09C090958095709561957F4F2A
:101480008F4F9F4F2068B22E2AE030E0A401DFD0BA
:10149000A82EA81843C0853729F42F7EB22E2AE043
:1014A00030E025C0F22FF97FBF2E8F36C1F018F43F
:1014B000883579F0ADC0803719F0883721F0A8C0A1
:1014C0002F2F2061B22EB4FE0DC08B2D8460B82E5C
:1014D00009C024FF0AC09F2F9660B92E06C028E0DD
:1014E00030E005C020E130E002C020E132E0F80148
:1014F000B7FE07C060817181828193810C5F1F4FAD
:1015000006C06081718180E090E00E5F1F4FA401F2
:101510009ED0A82EA818FB2DFF77BF2EB6FE0BC0BD
:101520002B2D2E7FA51450F4B4FE0AC0B2FC08C0C7
:101530002B2D2E7E05C07A2C2B2D03C07A2C01C0BA
:10154000752C24FF0DC0FE01EA0DF11D8081803352
:1015500011F4297E09C022FF06C07394739404C05D
:10156000822F867809F0739423FD12C020FF06C0F5
:101570005A2C731418F4530C5718732C731460F40A
:10158000B70180E290E02C8725DE73942C85F6CF9E
:10159000731410F4371801C0312C24FF11C0B701A7
:1015A00080E390E02C8716DE2C8522FF16C021FFF9
:1015B00003C088E590E002C088E790E0B7010CC066
:1015C000822F867851F021FD02C080E201C08BE2BB
:1015D00027FD8DE2B70190E0FDDDA51430F4B701E1
:1015E00080E390E0F7DD5A94F8CFAA94F401EA0D75
:1015F000F11D8081B70190E0EDDDA110F6CF332021
:1016000009F45DCEB70180E290E0E4DD3A94F7CFD3
:10161000F7018681978102C08FEF9FEF2C96E2E160
:1016200090C0FC010590615070400110D8F7809582
:1016300090958E0F9F1F0895FC016150704001909E
:101640000110D8F7809590958E0F9F1F0895FA018D
:10165000AA27283051F1203181F1E8946F936E7FF1
:101660006E5F7F4F8F4F9F4FAF4FB1E03ED0B4E0E2
:101670003CD0670F781F891F9A1FA11D680F791F23
:101680008A1F911DA11D6A0F711D811D911DA11D34
:1016900020D009F468943F912AE0269F1124301944
:1016A000305D3193DEF6CF010895462F4770405DDF
:1016B0004193B3E00FD0C9F7F6CF462F4F70405D8E
:1016C0004A3318F0495D31FD4052419302D0A9F7E9
:1016D000EACFB4E0A6959795879577956795BA95E3
:1016E000C9F700976105710508959B01AC010A2EA9
:1016F00006945795479537952795BA95C9F7620F80
:10170000731F841F951FA01D08952F923F924F9223
:101710005F926F927F928F929F92AF92BF92CF9281
:10172000DF92EF92FF920F931F93CF93DF93CDB78A
:10173000DEB7CA1BDB0B0FB6F894DEBF0FBECDBF02
:1017400009942A88398848885F846E847D848C84D3
:101750009B84AA84B984C884DF80EE80FD800C81DC
:101760001B81AA81B981CE0FD11D0FB6F894DEBFBF
:0C1770000FBECDBFED010895F894FFCF2F
:10177C0000005203200001010000000200000000E4
:10178C00C005000000000014700000000001000003
:10179C00000000001507000000000002000000001F
:1017AC000F070000000067616D652073746172742F
:1017BC00696E672100656E746572696E67206C6F67
:1017CC006F700A007469636B20783235360A006ECC
:1017DC006F7468696E670A006E6F206D6F7265209A
:1017EC00726F6F6D20696E2025730A004D61696EF2
:1017FC0000537461727400446966666963756C7435
:10180C0079004869676873636F7265004C6567613E
:10181C006C0054544B34313135202D20427967679C
:10182C0065726E0052656E64656C6C2043616C650C
:10183C000057696C6C69616D204B650046726F6472
:10184C00652076616E20646572204D656572656EEB
:10185C00002D3E002020006E65775F737562636813
:10186C006F6963653A2025750A006E6F7468696E3E
:10187C00673A200925700A00616374696F6E203A1B
:08188C0020090925700A000083
:00000001FF
